:02000002D0002C
:1040000000400D00245A0D00000006000C000501C0
:084010000401DB0700000000C1
:0440180098570D00A8
:10401C0009480A49884208B505D0094A824202D0AB
:10402C00121A01F049FB0748074A0021121A01F045
:10403C0051FB014808BD00BFD4E5032094590D0085
:10404C003CE603203CE60320F0E7032070B5074E66
:10405C00074C01F029FAA41BA4080025A54200D1A5
:10406C0070BD56F8043B98470135F7E768590D00C9
:10407C008C590D0000F034B808B500F0B3F8BDE869
:10408C00084001F0D3B900F0DDBA00F0DBBA00F063
:10409C00E1BA0078B0FA80F0400970470123037050
:1040AC007047000010B50C4601F036F9214600F0BF
:1040BC00D4FF2046094901F039FB044668B90121B7
:1040CC00022001F072FA4FF47A7000F0E3FA214604
:1040DC000220BDE8104001F068BA10BDAC570D00CD
:1040EC002DE9F7430023002429492A48042200F033
:1040FC0029FA0123224628492848CDE9004400F03A
:10410C0041FA01F009F94FF4614101F0F5F820464C
:10411C0000F0D4F843F6972805464FF0000900202C
:10412C0000F0CCF8461B61EB0407B94508BFB0455D
:10413C0007D301F0F1F801F0E3F810B900F00AFA36
:10414C00EDE701F0E9F801F0DBF80121072001F0BF
:10415C001BFA0121022001F017FA0121062001F0BF
:10416C0013FA0121052001F00FFA0121042001F0BE
:10417C000BFA0221002001F007FA052000F08AFA60
:10418C0001F0CAF8064903B0BDE8F04300F065BF82
:10419C00AE570D00B7570D00B1400D00C0570D00C4
:1041AC00D1570D0038B50468002000F0A7F920B1F4
:1041BC00637813B900F0CEF9FAE76378BFF35B8F3D
:1041CC00651C0BB9002038BD002000F097F920B118
:1041DC002B7813B900F0BEF9FAE72378012BF1D153
:1041EC00207BF0E730B5002085B001F0F7F900280E
:1041FC0031D10121072001F0D8F9184B184A1B784E
:10420C0018498DF8003002A83C2300F0DBFB02A813
:10421C00FFF7C8FF039C05467CB16368013B6360F4
:10422C005BB9236820469B689847A368013BA36051
:10423C001BB923682046DB68984725B101F06CF860
:10424C00094900F00AFF40F2E93000F023FA00219E
:10425C00072001F0AAF905B030BD00BF40E60320ED
:10426C00AC570D00C0570D00E6570D00024B012056
:10427C001870002100F03AB940E6032008B5024B53
:10428C001B685B6C019308BD4802030008B5024B28
:10429C001B689B6C019308BD4802030008B5024BD8
:1042AC001B685B68019308BD1802030008B5024B3C
:1042BC001B685B69019308BD1802030008B5024B2B
:1042CC001B68DB6D019308BD1802030008B5024B97
:1042DC001B689B68019308BD2C02030008B5024BB8
:1042EC001B68DB68019308BD2C02030008B5024B68
:1042FC001B681B69019308BD2C02030008B5024B17
:10430C001B685B69019308BD2C02030008B5024BC6
:10431C001B681B6A019308BD2802030008B5024BF9
:10432C001B685B6A019308BD2802030008B5024BA9
:10433C001B689B6A019308BD2802030008B5024B59
:10434C001B68DB6A019308BD2802030008B5024B09
:10435C001B681B6B019308BD2802030008B5024BB8
:10436C001B685B6B019308BD2802030008B5024B68
:10437C001B681B6C019308BD2802030008B5024B97
:10438C001B685B69019308BD6402030008B5024B0E
:10439C001B689B68019308BD6802030008B5024BBB
:1043AC001B68DB68019308BD6802030008B5024B6B
:1043BC001B68DB69019308BD3002030008B5024B92
:1043CC001B681B6A019308BD3002030008B5024B41
:1043DC001B681B68019308BD3C02030008B5024B27
:1043EC001B68DB68019308BD3C02030008B5024B57
:1043FC001B681B69019308BD3C02030008B5024B06
:10440C001B685B69019308BD3C02030008B5024BB5
:10441C001B689B69019308BD3C02030008B5024B65
:10442C001B68DB69019308BD3C02030008B5024B15
:10443C001B681B6A019308BD3C02030008B5024BC4
:10444C001B689B6A019308BD3C02030008B5024B34
:10445C001B681B68019308BD4C02030008B5024B96
:10446C001B685B68019308BD4C02030008B5024B46
:10447C001B681B69019308BD4C02030008B5024B75
:10448C001B685B69019308BD4C02030008B5024B25
:10449C001B689B69019308BD4C02030008B5024BD5
:1044AC001B68DB69019308BD4C02030008B5024B85
:1044BC001B681B6A019308BD4C02030008B5024B34
:1044CC001B689B6A019308BD4C02030008B5024BA4
:1044DC001B685B68019308BD2002030008B5024B02
:1044EC001B685B69019308BD2002030008B5024BF1
:1044FC001B68DB6A019308BD2002030008B5024B60
:10450C001B68DB6C019308BD2002030008B5024B4D
:10451C001B685B6D019308BD2002030008B5034BBB
:10452C001B68D3F88830019308BD000020020300FB
:10453C0008B5034B1B68D3F89430019308BD0000F9
:10454C002002030008B5024B1B681B68019308BDD1
:10455C004402030008B5024B1B689B68019308BD1D
:10456C004402030008B5024B1B685B69019308BD4C
:10457C004402030008B5024B1B681B6A019308BD7B
:10458C004402030008B5024B1B685B6A019308BD2B
:10459C004402030008B5024B1B68DB6B019308BD9A
:1045AC004402030008B5024B1B685B68019308BD0D
:1045BC004002030008B5024B1B689B68019308BDC1
:1045CC004002030008B5024B1B68DB68019308BD71
:1045DC004002030008B5024B1B681B69019308BD20
:1045EC004002030008B5024B1B685B69019308BDD0
:1045FC004002030008B5024B1B689B69019308BD80
:10460C004002030008B5024B1B68DB69019308BD2F
:10461C004002030008B5024B1B681B6A019308BDDE
:10462C004002030008B5024B1B681B6B019308BDCD
:10463C004002030008B5024B1B685B6B019308BD7D
:10464C004002030008B5024B1B681B68019308BDB0
:10465C001C02030008B5024B1B685B68019308BD84
:10466C001C02030008B5024B1B68DB6A019308BDF2
:10467C001C02030008B5024B1B681B6B019308BDA1
:10468C001C02030008B5024B1B685B6C019308BD50
:10469C001C0203000021FFF721BF10B583680446FC
:1046AC000BB900F0F8FFC3689847A3681BB103224D
:1046BC0021462046984720461021BDE8104000F0C6
:1046CC00E6BF10B5036804469B689847A368013B96
:1046DC00A3602BB923682046DB68BDE8104018475F
:1046EC0010BD10B50446006808B1FFF7CFFD204699
:1046FC0010BD0B68036013B15A6801325A607047E1
:10470C0010B50446006828B14368013B43600BB9FF
:10471C00FFF7D7FF204610BD10B5064C00232046EE
:10472C002360FFF7ABFD2046034A0449BDE8104067
:10473C0000F0A8BF44E603203CE60320EF460D0042
:10474C0070470020704710B51021044600F09FFF01
:10475C00204610BD08B5FFF7F6FF08BD10B58368FD
:10476C00044613B1032201469847204610BD30B5CC
:10477C0000224FF69C74026084808D888C800C68BB
:10478C00858004600A6030BD10B504460068FFF7F0
:10479C0061FF204610BD38B5C468F4B12378022BF4
:1047AC0003D104F10C00FFF7EFFF656835B1284623
:1047BC00FFF7D4FF1021284600F069FFA56835B13A
:1047CC002846FFF7CBFF1021284600F060FF20465B
:1047DC001421BDE8384000F05ABF38BD73B50E4601
:1047EC00044656F8043B00930D4601A83146FFF7EA
:1047FC0080FF019A009B6260236001A80023019353
:10480C000093FFF77DFF3046FFF77AFF284608211B
:10481C0000F03DFF204602B070BD13B50B460246BA
:10482C00D0E900016C4684E8030093E8030082E8B9
:10483C00030094E8030083E8030002B010BD826813
:10484C0010B50AB900F027FFBDE81040C36818473F
:10485C0008B5006800F11001FFF7F1FF08BD826890
:10486C0010B50AB900F017FFBDE81040C36818472F
:10487C0008B5006800F11001FFF7F1FF08BD00005A
:10488C0038B500230446036010200D46FFF7FBFBF0
:10489C0028B10123C0E90133024B0360C5602060DD
:1048AC00204638BDF8570D0038B5002383608B685F
:1048BC0004460D462BB102229847EB68E360AB68C7
:1048CC00A360204638BD0000F0B589B00468684686
:1048DC00FFF74DFF4FF00203D4E84F2F002A03D10E
:1048EC00C4E8413F0029F7D125D104F10C056946F4
:1048FC002846FFF73CFFBFF35B8F0123637000205A
:10490C0004F10803BFF35B8F53E8006F43E8000228
:10491C00002AF9D1BFF35B8F6EB1FFF7EFFD78B1D1
:10492C0029463046FFF78BFF3046FFF717FF102163
:10493C00304600F0ACFE6846FFF726FF09B0F0BD2C
:10494C00314602A8FFF7B0FFE068B4F9105008B187
:10495C0000F0F6FE06901020ADF81C50FFF793FB0C
:10496C000546E8B1002787601820FFF78CFB04464A
:10497C0088B10146876002A8FFF74FFF049BA2682D
:10498C00A360059B049206A9E268E36004F11000A1
:10499C000592FFF7ECFE084BEB60084B2C60AB600C
:1049AC0006A8FFF7F1FE02A8FFF7D8FE0022294661
:1049BC000348FFF7ABFDB7E75D480D00F54A0D0066
:1049CC00A7460D002DE9F0478AB005469DF84890A2
:1049DC000C4617469846FFF7C5FD07AE824638BB16
:1049EC004FF62E73059005A93046ADF81830FFF739
:1049FC00BEFE1420FFF747FB044648B102230370A8
:104A0C000123C0E901AA437031460C30FFF7AFFE19
:104A1C002846214640F8044BFFF732FF3046FFF79B
:104A2C00B3FE05A8FFF7B0FE28460AB0BDE8F08734
:104A3C000C234FF0000A1420CDE908AA0793FFF7C6
:104A4C0022FB014628B1C0E901AA80F800A080F839
:104A5C0001A004A80391FFF713FF224B0893082031
:104A6C00FFF711FB824628B1039B40F8043B04A9D5
:104A7C00FFF73FFE00965FFA89F34246394620461F
:104A8C00CDF824A0FFF776FDB8B9039B5B7803F053
:104A9C00FF0293B94FF69C7305A903A80592ADF8D4
:104AAC001830FFF711FF05A8FFF76EFE05A809994E
:104ABC00FFF794FE06A8FFF723FE039B059304A9BA
:104ACC0006A8FFF716FE059B069A2B606A6000236A
:104ADC0006A806930593FFF713FE04A8FFF710FE34
:104AEC00A2E700BFB94B0D00022AF8B5054607D066
:104AFC00032A18D0012A01D10B6803600020F8BDED
:104B0C0018200E68FFF7BFFA044650B13146FFF784
:104B1C00CBFE3069B6F9147008B100F011FE2061BB
:104B2C00A7822C60EAE70468002CE7D004F110009F
:104B3C00FFF72AFE2046FFF711FE1821204600F051
:104B4C00A6FDDBE738B5002383608B6804460D4671
:104B5C002BB102229847EB68E360AB68A360204658
:104B6C0038BD022A70B5044607D0032A12D0012A98
:104B7C0001D10B680360002070BD14200E68FFF794
:104B8C0082FA054620B13146FFF7DCFF337C2B74EB
:104B9C002560F0E70468002CEDD02046FFF7DEFD21
:104BAC001421204600F073FDE5E70000F0B589B054
:104BBC0004460D4601A81146FFF710FEA4B124B21D
:104BCC001DB1284600F0BCFD054601A803A90395BC
:104BDC00ADF81040FFF778FE03A8FFF7D5FD02A84B
:104BEC00FFF78EFD09B0F0BD019D0123D5E84F2FD5
:104BFC00002A03D1C5E8413F0029F7D1EFD12B732F
:104C0C00BFF35B8F6B702B1DBFF35B8F53E8006F93
:104C1C0043E80042002AF9D1BFF35B8F002EDED0AF
:104C2C002046FFF76BFC074660B105F10C013046DE
:104C3C00FFF715FE3046FFF791FD1021304600F0CE
:104C4C0026FDCCE7314603A8FFF77CFF2B7B8DF8C4
:104C5C001C301020FFF717FA0546D0B187601420DE
:104C6C00FFF711FA044678B18760014603A8FFF7F5
:104C7C00D4FD059BA268A360069B0592E268E360E5
:104C8C009DF81C3006922374064BEB60064B2C608F
:104C9C00AB6003A8FFF762FD002229460348FFF72B
:104CAC0035FCC7E77D480D006F4B0D00A7460D0086
:104CBC00002240681146FFF7ADBC00224068114647
:104CCC00FFF7B8BC40680022FFF7ACBC406800227C
:104CDC0081F00101FFF796BC002340681A46194683
:104CEC00FFF788BC002340681A461946FFF77ABCC8
:104CFC00002240681146FFF76DBC00224068114647
:104D0C00FFF758BC406800220221FFF75BBC002370
:104D1C0040681A46FFF746BC024B03225A60024A0F
:104D2C001A60704748E6032014580D007047F8B518
:104D3C00064615460C468F18BC4206D0336814F84C
:104D4C00011B9B6830469847F6E72846F8BD007C67
:104D5C000022FFF7DBBA007C0021FFF7DFBA007CF2
:104D6C000021FFF7E3BA007C0021FFF7E7BA007CD3
:104D7C000021FFF7EBBA10B51421044600F087FCB4
:104D8C00204610BD10B54FF47A7304460846002136
:104D9C00C4E90113034B236020741146FFF7E6FAB4
:104DAC00204610BD48580D00704710B51821044618
:104DBC0000F06DFC204610BDF0B5037D062B8DB0C8
:104DCC000E4600F104074FF0000412D000F1080564
:104DDC0015F8011D0A22304600F049F9AF4204448F
:104DEC0019D0002CF4D02E21304600F027F90444C1
:104DFC00EEE72F236A4639460A208DF80040FFF76C
:104E0C00BDFA684600F0B9FC33680246DB686946B7
:104E1C0030469847044620460DB0F0BD10B5054B02
:104E2C000446112240F8043B002100F053FC2046BC
:104E3C0010BD00BF70580D000346074A10B543F86B
:104E4C00042B01F1100251F8044B43F8044B91422E
:104E5C00F9D10A781A7010BD70580D0010B59DF874
:104E6C00084044EA032343EA024242EA0161042374
:104E7C004160037510BD13B5CB7800938B784A78DD
:104E8C000978FFF7EBFF02B010BD0000014B024A9E
:104E9C001A60704750E603207C580D0000234068D0
:104EAC001A46FFF77FBB406800220221FFF78ABB3E
:104EBC00002240681146FFF77DBB00224068114676
:104ECC00FFF788BB002340681A461946FFF78ABBD8
:104EDC00002340681A461946FFF78CBB4068002235
:104EEC0081F00101FFF78EBB40680022FFF79ABBEF
:104EFC00002240681146FFF79DBB00224068114616
:104F0C00FFF788BB2DE9F043002495B016460D46FB
:104F1C000746FFF783FF214618220EA8009400F0E5
:104F2C00D9FB4023CDE90C3421466B460CAA304604
:104F3C00FFF734FA0446002846D10246012168687E
:104F4C00FFF748FB0221804622466868FFF742FBC8
:104F5C00009E81462146002E36D0002934D173683C
:104F6C00022B03D00A2B0BD0F669F4E7B8F1000F33
:104F7C0004D0716938460431FFF77DFF4146F3E7F1
:104F8C00B9F1000F01D14946EEE77469102201A86E
:104F9C0000F0A0FB06238DF8143001AD04F10803DA
:104FAC001834186859682A4603C20833A3421546B8
:104FBC00F7D101A906A807ADFFF73EFF0FCD3C1DA9
:104FCC000FC42B682370DEE70098FFF7DFF9384633
:104FDC0015B0BDE8F0830000024B034A1A600022B2
:104FEC005A60704754E6032088580D00F8B5064601
:104FFC000D468F180024BD420CD0336815F8011BE8
:10500C009B6830469847031E01DB1C44F3E7002CD9
:10501C0008BF1C462046F8BD13B50446084659B1D6
:10502C00019100F0AAFB23680199DB680246204637
:10503C0002B0BDE81040184702B010BD03689B6871
:10504C00184738B50D210546FFF7F8FF0A2104462D
:10505C002846FFF7F3FF204438BD38B50546FFF767
:10506C00DBFF04462846FFF7ECFF204438BD30B583
:10507C008BB000238DF82430012A98BF0A2209AC8A
:10508C000D46B1FBF2F101FB125303F0FF03092BA8
:10509C0094BF30333733DBB2AA4204F8013DEFD969
:1050AC002146FFF7B9FF0BB030BD10B50446FFF732
:1050BC0055FB204610BD00000348044A0449002358
:1050CC00836000F0DFBA00BF5CE603203CE60320FF
:1050DC00B7500D0010B5044608462170FFF766F96D
:1050EC0000236360204610BD10B50446006818B15B
:1050FC00FFF7B0FA0023236010BD10B50446FFF78C
:10510C00F3FF204610BD000010B5094B094C0222DC
:10511C0000201A60084B2060A080A071A360FFF7EC
:10512C00D5F92046054A0649BDE8104000F0AABA58
:10513C0078E603206CE603200000FFFF3CE603202A
:10514C0007510D00024B1A68024B1A60704700BFE2
:10515C00D4E503207CE6032070474174704708B502
:10516C00007CFFF76BF920EAE07008BD08B5007C05
:10517C00FFF73CF920EAE07008BD08B5007CFFF7AA
:10518C0045F940EAE07008BD08B5007CFFF736F938
:10519C0040EAE07008BD007CFFF740B937B5457CAC
:1051AC0004462DB1207C03B0BDE83040FFF716B9A2
:1051BC00007C0191FFF742F900280199F2DC2846A6
:1051CC0003B030BD10B51421044600F060FA20463F
:1051DC0010BD000010B54FF0000C044608461146F7
:1051EC004FF47A72C4E901C2044A2260012220748D
:1051FC0062741A46FFF7EAF8204610BDD8580D0025
:10520C0013B50E4C2178BFF35B8F11F0010112D155
:10521C0020460191FEF73DFF019960B1084A094B08
:10522C000948FFF7D7FF2046FEF738FF074A084921
:10523C00054800F027FA044802B010BD80E60320B0
:10524C0084E6032008E703208CE703203CE60320D8
:10525C0065510D0041747047704708B50021007C02
:10526C00FFF714F940EAE07008BD08B50121007C95
:10527C00FFF70CF940EAE07008BD08B5007CFFF7B9
:10528C00FDF820EAE07008BD08B5007CFFF7EEF8E9
:10529C0020EAE07008BD13B50446007C0191FFF7CD
:1052AC00EDF80028019901DC607C20B1207CFFF72F
:1052BC00F5F820EAE07002B010BD007CFFF7F6B8FC
:1052CC0010B51421044600F0E2F9204610BD000090
:1052DC0010B54FF47A73044608460021C4E9011353
:1052EC00044B23600123207463741146FFF7AEF85E
:1052FC00204610BD08590D00007C0022FFF7AEB807
:10530C00007CFFF7DBB810B514220446002100F036
:10531C00E1F9204610BD000010B5104C88B003A870
:10532C00FFF7F1FF2178BFF35B8F11F0010111D171
:10533C0020460191FEF7ADFE019958B103AA084829
:10534C00FFF7C6FF2046FEF7A9FE064A06490448A9
:10535C0000F098F9024808B010BD00BFA0E7032088
:10536C00A4E703203CE6032065520D0000224068B0
:10537C001146FFF72FB9002240681146FFF74AB9D2
:10538C00002240681146FFF755B940680022FFF72C
:10539C0049B94068002281F00101FFF733B90023BD
:1053AC0040681A461946FFF725B9002340681A468B
:1053BC001946FFF717B9002240681146FFF7FAB8F3
:1053CC00406800220221FFF7FDB8002340681A460E
:1053DC00FFF7E8B8024B04225A60024A1A60704781
:1053EC00B8E7032038590D00014B1860704700BF17
:1053FC00D8E5032008B50B4B43B1FFF78DFF0368CD
:10540C001B699847002801DDAFF30080064B43B1C0
:10541C00FFF7F6FE03681B699847002801DDAFF320
:10542C00008008BD000000000000000008B5FFF778
:10543C00E1FFFEF73BFF014B186008BDD4E70320EA
:10544C000248034A0349121A00F036B900F403204B
:10545C0004F4032090590D0007B5002300931A465D
:10546C006FF07701FFF764F803B05DF804FB000000
:10547C0007B543880A2B08D0502B0BD1094B1B685E
:10548C004BB103B05DF804EB1847FFF7E5FF03B031
:10549C005DF804FB002300931A466FF07701FFF7C9
:1054AC0047F8F4E7C4E7032038B5124C1248134D03
:1054BC000021FFF7E7F82368AB42114B0CBF012228
:1054CC0000221A7002D0FFF7BBFF2560FEF7E6FE44
:1054DC00044600F007F90B4B13B12046AFF30080E4
:1054EC0000210848FFF756F8BDE83840064800216F
:1054FC00FFF714B800F40320F5530D001E1C279A77
:10550C00C0E70320000000007D540D00232813B5D4
:10551C0002D9002002B010BDA0F10B03022B1AD847
:10552C00174C2178BFF35B8F11F001010BD1204692
:10553C000191FEF7AEFD019928B11248FFF7CAFDA3
:10554C002046FEF7ABFD0F4B1878FEF737FF00280F
:10555C00DFD10120DEE7012809D800F06BF800212B
:10556C00007CFEF7FBFE80F00100C0B2D2E70938E8
:10557C000128EED8FFF744FE007CFEF757FFF2E758
:10558C00C8E70320CCE70320232838B504460D4692
:10559C000AD8FF2908D0FFF7B9FF28B129462046C1
:1055AC00BDE83840FEF792BE38BD38B504460D460E
:1055BC00FEF794FEFF2810D0062804D84D2323FABA
:1055CC0000F0C30709D42046FFF7A0FF28B12946F5
:1055DC002046BDE83840FEF789BE38BD10B50446FC
:1055EC00FEF77CFE031FDBB2012B08D92046FFF728
:1055FC008DFF20B12046BDE81040FEF77FBE002095
:10560C0010BD000038B50023202543801423044628
:10561C000380856005610649284600F03AF8044984
:10562C006060284600F035F8E060204638BD00BFC9
:10563C0064590D0030B50F4D2978BFF35B8F11F015
:10564C00010487B013D12846FEF723FD78B101A8D9
:10565C00FFF7D8FF01AA21460748FFF793FB28461E
:10566C00FEF71CFD054A0649034800F00BF80248FA
:10567C0007B030BDD8E70320DCE703203CE603206D
:10568C00394D0D000B460146184600F007B8FEF7E1
:10569C00FEBCFEF7FABC08B5FEF7E4FF10B5054CEE
:1056AC0013462CB10A4601460220AFF3008010BD10
:1056BC002046FCE7000000000A44914200F1FF3351
:1056CC0000D1704710B511F8014B03F8014F91420E
:1056DC00F9D110BD02440346934200D1704703F840
:1056EC00011BF9E738B50D4B1D68AB6B04467BB954
:1056FC001820FEF7A7FF0A4A0A4BA863C0E900234B
:10570C00094B83600B23838101220023C0E904230E
:10571C00AB6B00221C615A6138BD00BFD8E5032079
:10572C000E33CDAB34126DE6ECDE050010F8012B18
:10573C0011F8013B012A28BF9A42F7D0D01A7047C2
:10574C00024B0146186800F003B800BFD8E50320EF
:10575C0037B5044608460D4600F00FF8421C1146BA
:10576C0020460192FEF786FF044618B1019A29469D
:10577C00FFF7A2FF204603B030BD034613F8012B00
:10578C00002AFBD1181A0138704700001D400D008B
:10579C0059400D0081400D0085400D0000000000B7
:1057AC0031004D452040204D544C006C6F636174AA
:1057BC00696F6E00612D626C652D63656E7472612C
:1057CC006C42544E00436F6D706C6574656420764A
:1057DC006F6964207365747570007075626C6973A1
:1057EC006865640000000000000000004D470D00DB
:1057FC0053470D00A3470D0061470D004F470D00A7
:10580C0000000000000000001B4D0D00114D0D00AC
:10581C00074D0D00FD4C0D00F14C0D00E54C0D003D
:10582C00D94C0D00D14C0D00C74C0D00BD4C0D00DA
:10583C00114F0D000000000000000000394D0D005C
:10584C00834D0D005B4D0D003B4D0D00634D0D0068
:10585C006B4D0D00734D0D007B4D0D0000000000D5
:10586C0000000000C54D0D00B54D0D00B74D0D00ED
:10587C00617070000000000000000000A94E0D00D7
:10588C00B34E0D00BD4E0D00C74E0D00D14E0D0098
:10589C00DD4E0D00E94E0D00F54E0D00FD4E0D00D8
:1058AC00074F0D00114F0D0025592D256D2D256429
:1058BC005425483A254D3A2553257A006173637473
:1058CC00696D6500000000000000000065510D00CE
:1058DC00D1510D00A9510D00F94F0D0079510D005A
:1058EC0095510D0087510D00A3510D0067510D000E
:1058FC006B510D00000000000000000065520D000F
:10590C00CD520D00A3520D00F94F0D0095520D0014
:10591C0067520D0077520D00C7520D0087520D00D3
:10592C0061520D000000000000000000D7530D0074
:10593C00CD530D00C3530D0079530D00B7530D001B
:10594C00AB530D009F530D0097530D008D530D005D
:10595C0083530D00114F0D000000000079420D0023
:10596C0025470D00254D0D00994E0D00E54F0D00FE
:10597C00C5500D0015510D0051510D00E1530D0096
:04598C000000000017
:045990000000000013
:10599400C8580D00DCE503200000000000000000F2
:1059A40000000000000000000000000000000000F3
:1059B40000000000000000000000000000000000E3
:1059C40000000000000000000000000000000000D3
:1059D40000000000000000000000000000000000C3
:1059E40000000000000000000000000000000000B3
:0859F4000000000000000000AB
:1059FC00FFFFFFFF00000102030405060708090A68
:105A0C000B0C0D0E0F101112131415161718191A62
:085A1C001B1C1D1E1F202800A9
:045A2400785634126A
:04000003D000401CCD
:00000001FF
