:02000002D0002C
:1040000000400D0070C90D00000006000C00050105
:084010000401DB0700000000C1
:04401800A4BB0D0038
:1040200009480A49884208B505D0094A824202D0A7
:10403000121A05F0D1FE0748074A0021121A05F0AE
:10404000D9FE014808BD00BFD0E0032054C70D00D1
:10405000C4E20320C4E20320F0E7032070B5074E5A
:10406000074C03F03BFDA41BA4080025A54200D18A
:1040700070BD56F8043B98470135F7E724C70D009B
:104080004CC70D0000F0C6BB08B500F093FEBDE8BC
:10409000084003F0E5BC02F0ABB802F0A9B802F0AA
:1040A000AFB80078B0FA80F0400970470123037080
:1040B000704710B52DED048B90ED1E8AB0EE480AC6
:1040C000044603F075FFF0EE408AB0EE480A03F0B4
:1040D000B7FFD4ED1D9AB0EE408AB0EE690A03F046
:1040E00067FFB0EE409AB0EE690A03F0A9FF94EDC5
:1040F0000A7AD4ED096A67EE080AF0EE407A60EEBB
:10410000800A94ED0B0A28EE408AE6EE890AA7EEB3
:10411000288A60EE286AB1EE480AE6EEA70A04F0A3
:1041200039F8BDEC048B84ED1F0A10BD70B52DED80
:10413000028B00F1E00600F1EC058CB02A46314616
:10414000044600F05FFFF6EE008A20EE680A2A4679
:1041500003A920468DED010A00F08FFF9DED010AB5
:10416000324606A9204600F088FF03AA33461146CE
:10417000204600F095FF06AA2B461146204600F087
:104180008FFF06AB03AA09A9204600F04BFF03AA44
:104190001146204600F036FFB0EE088A38EE400A9D
:1041A00003AA20EE280A3146204600F066FF06AA40
:1041B0001146204600F026FF38EE400A06AA20EEFF
:1041C000280A2946204600F058FF09AA1146204631
:1041D00000F018FF38EE400A09AA20EE280A04F180
:1041E000F801204600F049FF0CB0BDEC028B70BD19
:1041F0002DE9F0412DED048B90ED210AD0ED207AD0
:10420000DFED468A20EE000A0446A7EEA70A04F175
:10421000C80504F1F808D0ED227AA7EEA70A03F04A
:10422000BBFFF7EE007A9FED3E7ADFED3E0AF0EE3F
:10423000676AE0EE476A204604F1A407B0EE670A19
:10424000F5EEC06AF1EE10FAB0EE667AF0EE007AA2
:10425000D8BFB1EE667AB7EE001AA7EE670A01F092
:10426000CBF8434604F1800229462046B0EE408A4E
:1042700000F0D8FE9FED2C0A2A4628EE000A3946A7
:10428000204600F0FAFE28EE280A2A46204604F1CD
:10429000B005264900F0F1FE244B2A462946204667
:1042A00000F0FEFE94ED1F9AB0EE490A03F080FE86
:1042B000B0EE408AB0EE490A03F0C2FE94ED3B7ABC
:1042C000D4ED387A27EE487A04F1D406A7EE807A46
:1042D000424631462046B0EE470A00F0CEFE9FED42
:1042E000140A14493246204600F0C7FE114B3A46E4
:1042F0003946204600F0D4FE324620460B49B0EE47
:10430000680A00F0BAFEBDEC048B2A462946204616
:10431000064BBDE8F04100F0C3BE00BFACC5A737F7
:104320000000803B000000000AD7A33CC8E2032045
:104330009A99993FD4E2032038B50446406D05F0C0
:104340007BF945A3D3E9002305F0CEF905F0C4FCC1
:10435000C4F88C00A06D05F06FF93FA3D3E90023EA
:1043600005F0C2F905F0B8FCC4F89000E06D05F066
:1043700063F939A3D3E9002305F0B6F905F0ACFCE5
:104380002368C4F880306368C4F8843004F1BC0545
:10439000A368C4F89400C4F8883004F18C0204F1D6
:1043A000B0032946204600F07BFE04F1A4032A4610
:1043B00004F19801204600F073FED4ED557AD4ED57
:1043C000286A27EEE67A67EEA66A84ED427A94EDD3
:1043D000277AC4ED446A27EE876AD4ED266A84ED15
:1043E000436A27EEC77A27EEE66A67EEA67A0023CD
:1043F000C4F80431C4F81431C4F8243184ED466A99
:1044000004F5947384ED477AC4ED487A04F582721A
:1044100004F1E001204600F050FE04F12403D4ED45
:10442000387A94ED4A7A77EE877A94ED4B7AC4ED38
:10443000387AD4ED397A77EE877A94ED4C7AC4EDF8
:10444000397AD4ED3A7A77EE877A0C34C4ED377A3C
:10445000A342E4D138BD00BF01FFA8C4D4E4533F58
:1044600010B590ED3E0A044603F034FEB1EE400A6A
:10447000D4ED400A84ED1D0A94ED3F0A03F08AFE54
:10448000D4ED380A84ED1E0A94ED3B0A03F082FE57
:1044900084ED1C0A10BD00002DE9F04104460D46D4
:1044A00000293ED103F052FA6749684E684F02F086
:1044B00033FCF4EC017A94ED027AF4EEC77A94EDD1
:1044C000057AF1EE10FAF4EEC77A48BFC4ED027A2D
:1044D000F1EE10FAC8BFC4ED057A03F037FA94ED97
:1044E000020A022102F02CFD03F030FA314602F0FC
:1044F00013FC03F02BFA94ED050A022102F020FDD3
:10450000022D09D003F022FA394602F005FC0135EC
:10451000032DCED1BDE8F08103F018FA02F009FCBA
:10452000F5E701293FD103F011FA4A49474E484FB8
:1045300002F0F2FB24340025F4EC017A94ED027AC7
:10454000F4EEC77A94ED057AF1EE10FAF4EEC77A3C
:1045500048BFC4ED027AF1EE10FAC8BFC4ED057A87
:1045600003F0F4F994ED020A022102F0E9FC03F0F1
:10457000EDF9314602F0D0FB03F0E8F994ED050ABD
:10458000022102F0DDFC022D08D003F0DFF93946EC
:1045900002F0C2FB0135032DCED1BBE703F0D6F903
:1045A00002F0C7FBF6E70229B4D1D0ED187A90EDFE
:1045B000157AC36E254FDFF8988077EE877A90EDF5
:1045C000167AC0ED187AD0ED197A77EE877A90EDE9
:1045D000177AC0ED197AD0ED1A7A77EE877A01331F
:1045E000C0ED1A7AC36603F0B1F91B4902F094FBDF
:1045F00004F15406002503F0A9F9B6EC010A0221E2
:1046000002F09EFC03F0A2F9394602F085FB03F0AC
:104610009DF9D4ED1B7A96ED020AF8EEE77A0221B5
:1046200080EE270A02F08CFC022D08D003F08EF9F0
:10463000414602F071FB0135032DDCD16AE703F03E
:1046400085F902F076FBF6E7B8BB0D00D1BB0D0093
:1046500047C00D00D3BB0D00EBBB0D007047000041
:1046600010B5064B036064330446036102F0F6FDA7
:10467000204603F015F8204610BD00BFE4BE0D0033
:1046800010B50446006808B101F0BAFD204610BD1F
:1046900070B5D0E900560446AE4204D0284603F077
:1046A000F7FB1835F8E7206808B1FFF7F8FC20465B
:1046B00070BD10B51821044603F003FB204610BD61
:1046C00010B50446FFF7CCFF20464C2103F0F9FA61
:1046D000204610BD08B501F003FD08B901F0F8FC53
:1046E00001F0FEFC10B901F0EBFCF9E7BDE8084071
:1046F00001F0F6BC1FB501F0F3FC38B1002301A8AE
:10470000CDE901338DF80C3001F06BFE01F0E8FCCF
:1047100010B101F0D5FCF9E701F0E2FC05B05DF85D
:1047200004FB000070B510EE106A9AB010EE904ACB
:1047300011EE105AFFF7DEFF304604F07DFF02460F
:104740000B462846CDE9042304F076FFCDE90201AB
:10475000204604F071FF104CDDE90423CDE900018F
:104760000E490CA801F05CFD0D4906A802F0F2F913
:1047700006A941F64172204602F0C0FF0CA805F0E0
:104780008AFB0CA90246204602F076FD204602F084
:10479000D3FD1AB070BD00BFE8E403200BBC0D00D0
:1047A000E0E0032070B5184C0023606886B01A461C
:1047B000194601F0CDFC00226068114601F0E0FCD2
:1047C0000028F8D0052001F063FD03F0BFF80F4981
:1047D00002F0A2FA03F0BAF8002211460646606819
:1047E0000B4C01F0ADFC01AD811C684602F072F982
:1047F0000FCD0FC421462B6801F81439304602F062
:10480000AEFA06B070BD00BFB8E7032023BC0D00B0
:10481000CCE403202DE9F04387B003F097F84FF480
:10482000E13103F083F8002001F076FA4FF000093F
:10483000804641F287360027002001F06DFAB0EB88
:10484000080461EB0905AF4208BFA64207D303F095
:104850007DF803F06FF810B901F032FCECE703F0DB
:1048600075F803F067F82049204801F022F9204943
:104870001E4801F0DBF901F019F90121072003F0CE
:104880009DF90121062003F099F90121052003F08B
:1048900095F90121042003F091F90221084603F063
:1048A0008DF9FFF77FFF134B00225868114601F086
:1048B00067FC68B1002241F641710F4802F082FCAA
:1048C0000E49684602F046F90B48694602F04DFF72
:1048D000052001F0DDFC03F039F8094902F035FA52
:1048E00007B0BDE8F08300BF35BC0D007CE40320B9
:1048F00025470D00B8E70320E8E40320E0E00320AB
:1049000043BC0D00000000004F4B2DE9F0414F4C1F
:104910001C604F4B206F04F124021A604D4B04F1D0
:104920005402D4B01A6004F087FE45A3D3E90023F3
:1049300004F0DAFE05F0D0F9474B05461860606FC9
:1049400004F07AFE3EA3D3E9002304F0CDFE05F087
:10495000C3F9424B06461860A06F04F06DFE38A301
:10496000D3E9002304F0C0FE05F0B6F93C4BD4F8BF
:104970007C8018603B4B0746C3F80080206804F039
:104980005BFE02460B464046CDE9182304F054FE78
:10499000CDE91601384604F04FFECDE9140130464A
:1049A00004F04AFECDE91201284604F045FECDE9A7
:1049B0001001E06D04F040FECDE90E01A06D04F0A1
:1049C0003BFECDE90C01606D04F036FECDE90A0135
:1049D000E06A04F031FECDE90801A06A04F02CFE83
:1049E000CDE90601606A04F027FECDE90401A06864
:1049F00004F022FECDE9020160681B4C04F01CFEAD
:104A0000DDE91823CDE90001184920A801F008FCD0
:104A100017491AA802F09EF81AA941F641722046D9
:104A200002F06CFE20A805F036FA20A902462046C6
:104A300002F022FC204602F07FFC54B0BDE8F08179
:104A4000B0CB631ADCA54C40F8E2032000E303205E
:104A5000C0E40320FCE2032034E50320E0E403206B
:104A6000E4E40320C4E40320E8E4032058BC0D0080
:104A7000E0E0032081422DE9F84F80468B463CD090
:104A8000D1E9005AD0F8009083683D4EAAEB0507A3
:104A9000A3EB0903FC10DB1074437343A3422FD232
:104AA00044B1384B9C4201D903F00FF93846FFF767
:104AB000F2FA04462646AA4507D01EB129463046DA
:104AC00003F066FA18361835F5E7D8E90056AE4215
:104AD00004D0284603F0DCF91835F8E7D8F80000D0
:104AE00008B1FFF7DCFAC8F800403C44C8F80840B9
:104AF000D8F800301F44C8F804704046BDE8F88F6D
:104B00004368A3EB0903DB105E43B4421AD8264680
:104B1000CA46002E08DD2946504603F0D4F9183560
:104B20000AF1180A013EF4E724EAE4741820D8F8E0
:104B3000045000FB0494A542DAD0204603F0A8F903
:104B40001834F8E7002E08DD2946484603F0BBF983
:104B5000183509F11809013EF4E7D8E90045291B89
:104B6000DBF80040DBF804600C44A642C0D01DB165
:104B70002146284603F00CFA18341835F5E700BF33
:104B8000ABAAAAAA555555052DE9F74FD0E9009AC9
:104B9000AAEB0904E310394C5C43394B9C420E46A6
:104BA0008046114602D1374803F095F8012C224681
:104BB00038BF0122A418A6EB090200925CD254B1BE
:104BC0009C4228BF1C46182060430191FFF763FAFE
:104BD0000199074600E02746009BF81801D003F032
:104BE00098F93D46CB465E450BD01DB15946284647
:104BF00003F08FF9584603F04BF90BF1180B1835F9
:104C0000F1E7009B204D4FEAD30B05FB0BFB2BF08C
:104C100060464FF0180B0BFB06FB09EB0B030BF187
:104C2000180BBB445A461E4656450DD03146104619
:104C30000193009203F06DF9304603F029F9009AD0
:104C4000019B18361832EFE7F61AF6086E4326F085
:104C50006046182505FB06B6B9F1000F02D048469C
:104C6000FFF71DFA182000FB0474C8E90076C8F8A5
:104C7000084003B0BDE8F08F1C46A4E7ABAAAAAA7F
:104C800055555505A3BC0D00ABAAAA0AF0B544487A
:104C90008DB0002102F049FD041E7EDD404802F087
:104CA00063FA7E2879D1621E10460192FFF7F5F96A
:104CB000019A3C4E01460546394802F0F2FA0023BB
:104CC000384905932846CDE9033305F033FF044600
:104CD000002C35D008AB2046069305F0DCF80F28F1
:104CE00004EB0007029007D9002202A906A803F0EE
:104CF000ADF8029B0690089306983A46214603F0C9
:104D0000DDF8029B069A07930021D154DDE90403E4
:104D100098420FD010B106A903F0FBF8049B18339A
:104D2000049306A803F0B4F83146002005F002FF12
:104D30000446CDE7014606AA03A8FFF725FFF0E7E2
:104D400019481A4E03A9FFF795FE1827DDE903233A
:104D50009B1ADB107343A34213D902F0F7FDDDE980
:104D60000332D21AD2107243A24203D8104821460D
:104D700002F0B4FF07FB04F20134995801F0CCFFB4
:104D8000E4E702F0E3FD01F0D4FF1DB10121284664
:104D900002F097FF03A8FFF77BFC0DB0F0BD00BF4A
:104DA000E8E40320BDBC0D00ECE20320ABAAAAAAF4
:104DB000BFBC0D0010B5FFF769FF0F4C0F4800F0A6
:104DC000CFF800F0A1FF2368C01A642804D9FFF7C8
:104DD0009BFD00F099FF2060094800F0D9FE0220F9
:104DE00002F016FF30B9FFF775FCBDE8104004482B
:104DF00000F092BE10BD00BFE4E0032000E30320FA
:104E00007CE4032038B500211C4D012001F02CF971
:104E100000241B4BAB602C60AC80AC71032001F014
:104E200013F92846174D184A184902F045FF28463D
:104E300000F016FE144A16492846164D02F03CFFB3
:104E4000154800F00BFA284602F00AFC0E4A1349F6
:104E5000284602F031FF12480B4A8460C0E9004442
:104E6000104C114902F028FF204601F025FE204693
:104E7000054A0E49BDE8384002F01EBFE0E20320BB
:104E80000000FFFF7CE40320C4E2032081460D0004
:104E90008D580D00E8E4032000E3032061460D0077
:104EA000ECE20320C8E4032091460D005D460D00AE
:104EB00010B5044600F078FC204600F001FB2046C7
:104EC000BDE8104000F09EBB9FED147AD0ED007A53
:104ED00067EE877AC0ED007AD0ED017A67EE877AC7
:104EE000C0ED017AD0ED027A67EE877A9FED0C7AF9
:104EF000C0ED027AD0ED097A67EE877AC0ED097AC3
:104F0000D0ED0A7A67EE877AC0ED0A7AD0ED0B7A97
:104F100067EE877AC0ED0B7A704700BF6F12833F50
:104F2000ABAA2A3E90F860319BB1034600F10C0118
:104F300053F8042B5A619A608B421A6A9A63DA62B8
:104F4000F6D100230022C26683664366036680F8BA
:104F500060217047002180F85811072002F03FBE01
:104F600010B5044600F0D0FED4F84C31C01A132816
:104F70002FD9C4F8503100F0C7FED4F85031C4F82E
:104F80004C0183423DBFC01A07EE900ADFED1B6A59
:104F90009FED1B7A38BFF8EE677A204638BF87EE60
:104FA000A67A84ED557AFFF783FFD4F870318BB978
:104FB0002046FFF7B7FF94F8583113B994F85931E8
:104FC00023B1D4F85C112046FFF766FA012384F878
:104FD000593110BD012BF9D12046FFF775FFFFF7BE
:104FE00068F82046FFF7A8F92046FFF79FF820460B
:104FF000FFF7FEF82046FFF733FAE7E700007A44B0
:10500000000000009FED060A01F10C03B1EC017AEB
:10501000F2EC017A9942A7EE270AF7D1704700BF58
:105020000000000092ED027AD3ED017AD2ED016A20
:1050300067EEC77A93ED027AE6EE877AC1ED007AE1
:1050400092ED007AD3ED027AD2ED026A67EEC77A6A
:1050500093ED007AE6EE877AC1ED017A92ED017A5E
:10506000D3ED007AD2ED006A67EEC77A93ED017A4C
:10507000E6EE877AC1ED027A7047D2ED007A67EEEC
:10508000807AC1ED007AD2ED017A67EE807AC1EDC7
:10509000017AD2ED027A27EE800A81ED020A70478A
:1050A00002F10C00F2EC017AB3EC017A77EE877A28
:1050B0008242E1EC017AF5D1704770B501F1240527
:1050C00002F10C0610461C46B0EC017AD1ED017AD3
:1050D000D0ED026A67EEA67AD1ED006AE6EE877A35
:1050E0008642D1ED026A90ED057AE6EE877AE4EC2D
:1050F000017AE9D10C318D4203F10C03E2D170BD8C
:1051000010B52DED068BF0EE40AAB0EE410A0C462C
:10511000B0EE608AF0EE418A02F04AFFB0EE409AAB
:10512000B0EE680A02F08CFFF0EE409AB0EE480A4A
:1051300002F03EFFB0EE40AAB0EE480A02F080FF57
:10514000F0EE408AB0EE6A0A02F032FFB0EE408A1A
:10515000B0EE6A0A02F074FF6AEE087A20EE497A2D
:10516000C4ED007A69EE887A29EE088AA7EEA87A5B
:1051700084ED017A28EE287AA9EE807A84ED027A0D
:105180002AEE007A84ED037A29EEA87A69EE8A9AEB
:10519000A7EE008A29EE287A29EE0A9AF1EE688AAB
:1051A00084ED048AC4ED068AC4ED079A84ED089A5A
:1051B000BDEC068BD7EE007AC4ED057A10BD10B5B4
:1051C0002DED028B8AB04FF07E53044607930023E7
:1051D00008930993FFF76CFE00F096FD94ED020A28
:1051E000D4ED017AC4F84C0120EE000A94ED008A57
:1051F000A7EEA70A02F0D0FFF0EE400AB0EE480A90
:1052000002F0C8FFB1EE400A204684ED1D0A07AB4C
:10521000224601A9FFF706FF01AB07AA04A9FFF781
:1052200001FFDDED060A9DED050A02F0B3FF204601
:1052300084ED1E0AFEF73DFF94ED1F0A94ED1E1A41
:10524000D4ED1D0A84ED1C0A04F1E0012046FFF7AD
:1052500057FF0AB0BDEC028B10BD0000002310B553
:10526000002104464FF07E52C0E95311C166036726
:1052700043678367C367C0F8E020C0F8F020C0F838
:105280000021C0F8543140F20110A4F85801012067
:10529000C4E95B10C4E95911C4F85C11C4F8741175
:1052A00084F8781184F8600123666365E3632363FF
:1052B0006362A361E36023606366A3652364636341
:1052C000A362E36123616360A366E3656364A36330
:1052D000E36223626361A360C4F8D430C4F8C830C9
:1052E000C4F8BC30C4F8B030C4F8A430C4F8983066
:1052F000C4F88C30C4F88030C4F8D830C4F8CC304E
:10530000C4F8C030C4F8B430C4F8A830C4F89C3035
:10531000C4F89030C4F88430C4F8DC30C4F8D0301D
:10532000C4F8C430C4F8B830C4F8AC30C4F80821AC
:105330004FF08042C4F80C212B4AC4F810214FF0E2
:105340008142C4F81421294AC4F81821284AC4F813
:105350001C21284AC4F820214FF08242C4F824219D
:10536000C4F8A030C4F89430C4F88830C4F8E430ED
:10537000C4F8E830C4F8EC30C4F8F430C4F8F830BD
:10538000C4F8FC30C4F80431C4F82831C4F82C3116
:10539000C4F83031C4F83431C4F83831C4F83C3181
:1053A000C4F84031C4F84431C4F84831072002F051
:1053B00016FC322000F06CFF204600F02EF820464C
:1053C00000F032F8204600F0E9F8204600F088F9B5
:1053D000142000F05DFF2046FFF7F1FE2046FFF7A6
:1053E000B9FD204610BD00BF000040400000A040B5
:1053F0000000C0400000E040B4EEC10AF1EE10FA37
:10540000D8BFB0EE401AB4EEE01AF1EE10FA54BF75
:10541000B0EE410AB0EE600A704708B502F024FC15
:10542000BDE8084001F0D6BA08B502F01DFC5321D2
:1054300001F006FB02F018FC03682D219B689847D9
:1054400002F012FC036808219B68984702F00CFCEC
:1054500001F0FDFA052000F01BFF02F005FC5321CE
:1054600001F0EEFA02F000FC036831219B689847D6
:1054700002F0FAFB036808219B68984702F0F4FBEE
:1054800001F0E5FA052000F003FF02F0EDFB5321E7
:1054900001F0D6FA02F0E8FB03682C219B689847DC
:1054A00002F0E2FB036809219B68984702F0DCFBED
:1054B00001F0CDFABDE80840052000F0E9BE00008B
:1054C00037B5044602F0D0FB532101F0B9FA02F0DF
:1054D000CBFB036832219B68984702F0C5FB01F0C3
:1054E000B6FA02F0C1FB532101F0AAFA02F0BCFBAC
:1054F0000622532101F09DFA002502F0B5FB036856
:105500001B69984740B102F0AFFB03685B6998479D
:105510000DF805000135F0E702F0A6FB01F097FA5F
:10552000062D28D19DF803209DF8023043EA02237E
:105530001BB207EE903A9DF801209DF80030F8EE7E
:10554000E77A43EA02231BB29DF80520C4ED007AF6
:1055500007EE903A9DF80430F8EEE77A43EA02232A
:105560001BB2C4ED017A07EE903AF8EEE77AC4ED8B
:10557000027A03B030BDD4F864310133C4F8643129
:1055800094F87831002BF4D002F0E0F9024903B02E
:10559000BDE8304001F0D9BB09BD0D0008B502F0EF
:1055A00063FB1E2101F04CFA02F05EFB036802214E
:1055B0009B68984702F058FB036800219B68984756
:1055C00002F052FB01F043FA052000F061FE02F008
:1055D0004BFB1E2101F034FA02F046FB0368002168
:1055E0009B68984702F040FB036818219B68984726
:1055F00002F03AFB01F02BFABDE80840052000F06C
:1056000047BE000037B5044602F02EFB1E2101F014
:1056100017FA02F029FB036803219B68984702F000
:1056200023FB01F014FA02F01FFB1E2101F008FA1F
:1056300002F01AFB06221E2101F0FBF9002502F000
:1056400013FB03681B69984740B102F00DFB036828
:105650005B6998470DF805000135F0E702F004FB9F
:1056600001F0F5F9062D27D1BDF800309DF8022094
:105670005BBA9BB207EE903A9DF8033043EA0223EF
:10568000F8EEE77A1BB25B429DF80420C4ED097A7C
:1056900007EE903A9DF8053043EA0223F8EEE77AE8
:1056A0001BB25B42C4ED0A7A07EE903AF8EEE77A55
:1056B000C4ED0B7A03B030BDD4F868310133C4F8BF
:1056C000683194F87831002BF4D002F03FF90349A7
:1056D00003B0BDE8304001F038BB00BF25BD0D0070
:1056E00008B502F0C1FA682101F0AAF902F0BCFA8B
:1056F00003683E219B68984702F0B6FA0368802150
:105700009B68984702F0B0FA01F0A1F9052000F07B
:10571000BFFD02F0A9FA682101F092F902F0A4FAA3
:10572000036816219B68984702F09EFA03681B21C4
:105730009B68984702F098FA01F089F9052000F07B
:10574000A7FD02F091FA682101F07AF902F08CFAD3
:10575000036815219B68984702F086FA03680A21BE
:105760009B68984702F080FA01F071F9052000F07B
:105770008FFD02F079FA682101F062F902F074FA03
:1057800003683E219B68984702F06EFA0368002187
:105790009B68984702F068FA01F059F9BDE80840A3
:1057A000052000F075BD000037B5044602F05CFA34
:1057B000682101F045F902F057FA03681D219B6842
:1057C000984702F051FA01F042F902F04DFA6821CF
:1057D00001F036F902F048FA0622682101F029F9B1
:1057E000002502F041FA03681B69984740B102F0B6
:1057F0003BFA03685B6998470DF805000135F0E74F
:1058000002F032FA01F023F9062D2BD19DF8022087
:105810009DF8033043EA02231BB25B4207EE903A45
:105820009DF800209DF8013043EA0223F8EEE77A64
:105830001BB25B429DF80420C4ED157A07EE903A46
:105840009DF8053043EA0223F8EEE77A1BB25B428B
:10585000C4ED167A07EE903AF8EEE77AC4ED177ABF
:1058600003B030BDD4F86C310133C4F86C3194F816
:105870007831002BF4D002F069F8034903B0BDE899
:10588000304001F062BA00BF40BD0D0010B5064BBC
:10589000044640F82C3B01F0B1FB04F10C0001F090
:1058A000ADFB204610BD00BFE4BD0D0010B50446A1
:1058B000FFF7ECFF2046442102F003FA204610BD1A
:1058C00070B5194D90F82E302E68184C16F8011C42
:1058D000174A88B0A41B0793436B069390F82B30AC
:1058E000059390F82A30049390F82930039390F8A8
:1058F0002830029390F82730019390F826300093D7
:105900000C4B30465B2918BF13460B4A214600F06A
:105910008FFC844206D32B68084A18441368286019
:105920000133136008B070BD38E6032035E603206C
:10593000BDBC0D0049C00D0058BD0D0040E6032060
:105940002DE9F04304462DED028B636A83B01046C7
:10595000002B38D004F082FA1D4901AA054605F053
:105960003BF968B304F026FA194901AA002057EC64
:10597000106B05F031F918B304F01CFA144901AAB0
:10598000002059EC108B05F027F9C8B104F012FA89
:1059900051EC100B04F0A0F9494608EE900A40467D
:1059A00004F09AF9394608EE100A304604F094F9EA
:1059B000636A00EE100AB0EE681AF0EE480A9847E3
:1059C000284600F01DFC03B0BDEC028BBDE8F0835F
:1059D000BDBC0D00022A38B5044607D0032A11D0F9
:1059E000012A01D10B682360002038BD0C200D680E
:1059F000FEF751FB03460028F5D095E8070083E841
:105A00000700F0E700680028EED00C2102F059F9F9
:105A1000EAE770B4036809685C689D681B681268EF
:105A2000661005EB6400E40744BFAC59E35870BC52
:105A300018470EB403B503AB012153F8042B0193AF
:105A400001F08DFA02B05DF804EB03B0704710B5B9
:105A50008368044613B1032201469847204610BDCF
:105A600038B50F4B0360002542F210730446C0E9BD
:105A700001530C490C3001F00CFB4FF4FA53A362B4
:105A8000C4E907550849656204F12C0001F001FBE7
:105A90004FF49B724FF4CD73C4E90F23204638BDF9
:105AA000E4BD0D008EBD0D009CBD0D0001234360C3
:105AB000704710B504460C3001F0FFFA204610BDC7
:105AC000F8B5104C104F114E1149002520463D608D
:105AD00004F0BCF904F10B0333600E485B23294644
:105AE000A37200F0A9FA33685D221A707D225A7001
:105AF0009A70DD701A1D3B68326003B9237001484B
:105B0000F8BD00BF38E5032040E6032038E6032057
:105B1000A1BD0D00C1580D0030B585B0054601F09E
:105B200015FF184901F011F92846FFF7C9FF04468F
:105B300001F00CFF14492246FFF77BFF2378F3B1F5
:105B400000F0CEFAD8B1114BE9681B788DF800301F
:105B500022463C2302A800F04BFD039C7CB1636805
:105B6000013B63605BB9236820469B689847A36844
:105B7000013BA3601BB923682046DB68984705B04A
:105B800030BD00BFACBD0D00BCBD0D003CE6032028
:105B900010B5036A022B04460BD0032B22D0BBB9ED
:105BA00000F09EFAA0B10223236200F0ADF8E0619C
:105BB0000EE000F0A9F8E369C01AA36A984207D37F
:105BC0006368012B05D12046FFF7A6FF042323625B
:105BD00010BD002BFAD00323236200F095F8A368D0
:105BE000C01AE4E700F07CFA70B100F08DF8E369C8
:105BF000C01AA3689842EBD300F086F8E061204613
:105C0000BDE81040FFF788BF2062E1E738B5002308
:105C100083608B6804460D462BB102229847EB68DF
:105C2000E360AB68A360204638BD000030B58DB09E
:105C3000C3684162044608A8039300F059FA089A21
:105C4000039B00924FF480711A4A1B4800F0F0FA4F
:105C500008A801F0D3F900250C200695FEF71BFAE1
:105C600018B1164B8460C0E90035154B04900793BA
:105C700004A9144B069308A8FFF7C8FF0A9B7BB141
:105C80001020FEF708FA054650B108A9FFF7BEFF3D
:105C90000023CDE900330C4907482A4600F038FAC2
:105CA00008A8FFF7D4FE04A8FFF7D1FE20460DB0E8
:105CB00030BD00BFC8BD0D0038E5032041590D00BF
:105CC000135A0D00D5590D00C7630D00014B012279
:105CD0001A7070473CE6032008B5024B1B685B6CEA
:105CE000019308BD4802030008B5024B1B689B6C7A
:105CF000019308BD4802030008B5024B1B685B68AE
:105D0000019308BD1802030008B5024B1B685B69CC
:105D1000019308BD1802030008B5024B1B68DB6D38
:105D2000019308BD1802030008B5024B1B689B686D
:105D3000019308BD2C02030008B5024B1B68DB6809
:105D4000019308BD2C02030008B5024B1B681B69B8
:105D5000019308BD2C02030008B5024B1B685B6968
:105D6000019308BD2C02030008B5024B1B68DB68D9
:105D7000019308BD2802030008B5024B1B689B690C
:105D8000019308BD2802030008B5024B1B68DB69BC
:105D9000019308BD2802030008B5024B1B681B6A6B
:105DA000019308BD2802030008B5024B1B685B6A1B
:105DB000019308BD2802030008B5024B1B689B6ACB
:105DC000019308BD2802030008B5024B1B68DB6A7B
:105DD000019308BD2802030008B5024B1B681B6B2A
:105DE000019308BD2802030008B5024B1B685B6BDA
:105DF000019308BD2802030008B5024B1B681B6C09
:105E0000019308BD2802030008B5024B1B681B6DF7
:105E1000019308BD2802030008B5024B1B685B69AB
:105E2000019308BD6C02030008B5024B1B689B6917
:105E3000019308BD6C02030008B5024B1B685B6D43
:105E4000019308BD6C02030008B5024B1B689B6DF3
:105E5000019308BD6C02030008B5024B1B685B6927
:105E6000019308BD6402030008B5024B1B681B6A5E
:105E7000019308BD6402030008B5024B1B685B6A0E
:105E8000019308BD6402030008B5024B1B689B6ABE
:105E9000019308BD6402030008B5024B1B689B68B0
:105EA000019308BD6802030008B5024B1B68DB685C
:105EB000019308BD6802030008B5024B1B685B68CC
:105EC000019308BD3802030008B5024B1B689B69AB
:105ED000019308BD3802030008B5024B1B68DB695B
:105EE000019308BD3802030008B5024B1B68DB6A4A
:105EF000019308BD3802030008B5024B1B685B6BB9
:105F0000019308BD3802030008B5024B1B689B6B68
:105F1000019308BD3802030008B5024B1B68DB691A
:105F2000019308BD3002030008B5024B1B681B6AD1
:105F3000019308BD3002030008B5024B1B681B68C3
:105F4000019308BD3C02030008B5024B1B68DB68E7
:105F5000019308BD3C02030008B5024B1B681B6996
:105F6000019308BD3C02030008B5024B1B685B6946
:105F7000019308BD3C02030008B5024B1B689B69F6
:105F8000019308BD3C02030008B5024B1B68DB69A6
:105F9000019308BD3C02030008B5024B1B681B6A55
:105FA000019308BD3C02030008B5024B1B689B6AC5
:105FB000019308BD3C02030008B5024B1B681B6837
:105FC000019308BD4C02030008B5024B1B685B68D7
:105FD000019308BD4C02030008B5024B1B681B6906
:105FE000019308BD4C02030008B5024B1B685B69B6
:105FF000019308BD4C02030008B5024B1B689B6966
:10600000019308BD4C02030008B5024B1B68DB6915
:10601000019308BD4C02030008B5024B1B681B6AC4
:10602000019308BD4C02030008B5024B1B689B6A34
:10603000019308BD4C02030008B5024B1B68DB6DE1
:10604000019308BD7402030008B5024B1B685B682E
:10605000019308BD2002030008B5024B1B685B6971
:10606000019308BD2002030008B5024B1B68DB6AE0
:10607000019308BD2002030008B5024B1B68DB6CCE
:10608000019308BD2002030008B5024B1B685B6D3D
:10609000019308BD2002030008B5034B1B68D3F829
:1060A0008830019308BD00002002030008B5034BAF
:1060B0001B68D3F89430019308BD00002002030050
:1060C00008B5024B1B689B68019308BD440203009E
:1060D00008B5024B1B68DB68019308BD440203004E
:1060E00008B5024B1B685B69019308BD44020300BD
:1060F00008B5024B1B68DB69019308BD440203002D
:1061000008B5024B1B681B6A019308BD44020300DB
:1061100008B5024B1B685B6A019308BD440203008B
:1061200008B5024B1B68DB6B019308BD44020300FA
:1061300008B5024B1B685B6C019308BD4402030069
:1061400008B5024B1B681B68019308BD40020300A1
:1061500008B5024B1B685B68019308BD4002030051
:1061600008B5024B1B689B68019308BD4002030001
:1061700008B5024B1B68DB68019308BD40020300B1
:1061800008B5024B1B681B69019308BD4002030060
:1061900008B5024B1B685B69019308BD4002030010
:1061A00008B5024B1B689B69019308BD40020300C0
:1061B00008B5024B1B68DB69019308BD4002030070
:1061C00008B5024B1B681B6A019308BD400203001F
:1061D00008B5024B1B681B6B019308BD400203000E
:1061E00008B5024B1B685B6B019308BD40020300BE
:1061F00008B5024B1B681B68019308BD1C02030015
:1062000008B5024B1B685B68019308BD1C020300C4
:1062100008B5024B1B689B68019308BD1C02030074
:1062200008B5024B1B68DB68019308BD1C02030024
:1062300008B5024B1B68DB69019308BD1C02030013
:1062400008B5024B1B685B6A019308BD1C02030082
:1062500008B5024B1B68DB6A019308BD1C020300F2
:1062600008B5024B1B681B6B019308BD1C020300A1
:1062700008B5024B1B68DB6B019308BD1C020300D1
:1062800008B5024B1B685B6C019308BD1C02030040
:106290000021FFF7E1BE10B5836804460BB901F099
:1062A00039FDC3689847A3681BB1032221462046E5
:1062B000984720461021BDE8104001F002BD10B5FE
:1062C000036804469B689847A368013BA3602BB909
:1062D00023682046DB68BDE81040184710BD10B5A4
:1062E0000446006808B1FFF7FFFC204610BD0B68AC
:1062F000036013B15A6801325A60704710B5044602
:10630000006828B14368013B43600BB9FFF7D7FF32
:10631000204610BD10B5064C002320462360FFF731
:10632000DBFC2046034A0449BDE8104001F0C4BC30
:1063300044E60320C4E20320DF620D007047002022
:10634000704710B51021044601F0BBFC204610BD7B
:1063500008B5FFF7F6FF08BD30B500224FF69C7474
:10636000026084808D888C800C68858004600A605F
:1063700030BD10B504460068FFF742FF204610BD4F
:1063800038B5C468F4B12378022B03D104F10C00B2
:10639000FFF7EFFF656835B12846FFF758FB10217E
:1063A000284601F08EFCA56835B12846FFF74FFB63
:1063B0001021284601F085FC20461421BDE8384014
:1063C00001F07FBC38BD07B5CDE9001282680AB97B
:1063D00001F0A0FCC36801AA6946984703B05DF8C4
:1063E00004FB07B50823ADF8003003688DF80230D0
:1063F000037A8DF803300021436801936846FFF764
:1064000097FE03B05DF804FB73B50E46044656F8DC
:10641000043B00930D4601A83146FFF768FF019A3F
:10642000009B6260236001A8002301930093FFF7A3
:1064300065FF3046FFF762FF2846082101F041FC66
:10644000204602B070BD13B50B460246D0E90001EC
:106450006C4684E8030093E8030082E8030094E8B4
:10646000030083E8030002B010BD826810B50AB9CA
:1064700001F050FCBDE81040C368184708B500683B
:1064800000F11001FFF7F1FF08BD826810B50AB9ED
:1064900001F040FCBDE81040C368184708B500682B
:1064A00000F11001FFF7F1FF08BD000038B500232F
:1064B0000446036010200D46FDF7EDFD28B10123D1
:1064C000C0E90133024B0360C5602060204638BD3F
:1064D000F4BD0D0038B5002383608B6804460D467B
:1064E0002BB102229847EB68E360AB68A3602046BB
:1064F00038BD0000F0B589B004686846FFF72CFF8E
:106500004FF00203D4E84F2F002A03D1C4E8413FE3
:106510000029F7D125D104F10C0569462846FFF77B
:106520001BFFBFF35B8F01236370002004F108039E
:10653000BFF35B8F53E8006F43E80002002AF9D1F4
:10654000BFF35B8F6EB1FFF797FD78B129463046F8
:10655000FFF78BFF3046FFF77AFA1021304601F043
:10656000B0FB6846FFF705FF09B0F0BD314602A851
:10657000FFF7B0FFE068B4F9105008B103F06EFC0B
:1065800006901020ADF81C50FDF785FD0546E8B1DA
:10659000002787601820FDF77EFD044688B101467C
:1065A000876002A8FFF74FFF049BA268A360059BCA
:1065B000049206A9E268E36004F110000592FFF777
:1065C000CBFE084BEB60084B2C60AB6006A8FFF7D6
:1065D000D0FE02A8FFF73BFA002229460348FFF746
:1065E00053FDB7E77D640D0015670D0097620D0040
:1065F0002DE9F0478AB005469DF848900C461746AD
:106600009846FFF76DFD07AE824638BB4FF62E73F6
:10661000059005A93046ADF81830FFF79DFE14200F
:10662000FDF739FD044648B1022303700123C0E998
:1066300001AA437031460C30FFF78EFE28462146F2
:1066400040F8044BFFF732FF3046FFF792FE05A8F3
:10665000FFF78FFE28460AB0BDE8F0870C234FF005
:10666000000A1420CDE908AA0793FDF714FD01469E
:1066700028B1C0E901AA80F800A080F801A004A810
:106680000391FFF713FF224B08930820FDF703FD4A
:10669000824628B1039B40F8043B04A9FFF727FE7C
:1066A00000965FFA89F3424639462046CDF824A089
:1066B000FFF726FDB8B9039B5B7803F0FF0293B99F
:1066C0004FF69C7305A903A80592ADF81830FFF7A3
:1066D00011FF05A8FFF74DFE05A80999FFF794FEE5
:1066E00006A8FFF70BFE039B059304A906A8FFF776
:1066F000FEFD059B069A2B606A60002306A80693A0
:106700000593FFF7FBFD04A8FFF7F8FDA2E700BF24
:10671000D9670D00022AF8B5054607D0032A18D01C
:10672000012A01D10B6803600020F8BD18200E6813
:10673000FDF7B1FC044650B13146FFF7CBFE30699E
:10674000B6F9147008B103F089FB2061A7822C60B0
:10675000EAE70468002CE7D004F11000FFF709FE17
:106760002046FFF774F91821204601F0AAFADBE76A
:1067700038B5002383608B6804460D462BB1022296
:106780009847EB68E360AB68A360204638BD022AF7
:1067900070B5044607D0032A12D0012A01D10B6834
:1067A0000360002070BD14200E68FDF774FC0546E0
:1067B00020B13146FFF7DCFF337C2B742560F0E716
:1067C0000468002CEDD02046FFF741F91421204643
:1067D00001F077FAE5E70000F0B589B004460D4610
:1067E00001A81146FFF710FEA4B124B21DB128463E
:1067F00003F034FB054601A803A90395ADF810404A
:10680000FFF778FE03A8FFF7B4FD02A8FFF776FDB7
:1068100009B0F0BD019D0123D5E84F2F002A03D117
:10682000C5E8413F0029F7D1EFD12B73BFF35B8F50
:106830006B702B1DBFF35B8F53E8006F43E8004282
:10684000002AF9D1BFF35B8F002EDED02046FFF780
:1068500013FC074660B105F10C013046FFF715FE49
:106860003046FFF7F4F81021304601F02AFACCE761
:10687000314603A8FFF77CFF2B7B8DF81C301020DE
:10688000FDF709FC0546D0B187601420FDF703FC35
:10689000044678B18760014603A8FFF7D4FD059B45
:1068A000A268A360069B0592E268E3609DF81C3035
:1068B00006922374064BEB60064B2C60AB6003A87A
:1068C000FFF7C5F8002229460348FFF7DDFBC7E7BD
:1068D0009D640D008F670D0097620D0000224068D7
:1068E0001146FFF76DBC002240681146FFF778BCE7
:1068F00040680022FFF76CBC4068002281F0010173
:10690000FFF756BC002340681A461946FFF748BCFB
:10691000002340681A461946FFF73ABC0022406837
:106920001146FFF72DBC002240681146FFF718BC46
:10693000406800220221FFF71BBC002340681A4672
:10694000FFF706BC024B03225A60024A1A607047E6
:1069500048E6032010BE0D007047F8B50646154600
:106960000C468F18BC4206D0336814F8011B9B6894
:1069700030469847F6E72846F8BD007C0022FFF72E
:106980000BBA007C0021FFF70FBA007C0021FFF753
:1069900013BA007C0021FFF717BA007C0021FFF733
:1069A0001BBA10B51421044601F08BF9204610BD26
:1069B00010B54FF47A73044608460021C4E9011368
:1069C000034B236020741146FFF716FA204610BDD2
:1069D00044BE0D000023007C1A461946FFF7C4B9D7
:1069E0007FB500221423CDE90122ADF804300B78E5
:1069F0008DF808304B680393CB680493007C0B7AC6
:106A0000059301A9FFF700FA07B05DF804FB1FB575
:106A1000003B8DF800104FF06401039118BF012373
:106A2000694601928DF80830FFF7DAFF05B05DF88E
:106A300004FB0123FFF7EBBF007C0022FFF79CB9AA
:106A4000C9B2FFF7F9BF007C0022FFF79DB9012111
:106A5000FFF7F9BFF0B5037D062B8DB00E4600F1B0
:106A600004074FF0000412D000F1080515F8011DCD
:106A70000A22304600F07DF9AF42044419D0002CC0
:106A8000F4D02E21304600F04BF90444EEE72F23DA
:106A90006A4639460A208DF80040FFF7DDF968465E
:106AA00003F0F9F933680246DB68694630469847D7
:106AB000044620460DB0F0BD10B5054B044611222A
:106AC00040F8043B002103F095F9204610BD00BFBB
:106AD0006CBE0D000346074A10B543F8042B01F1C4
:106AE000100251F8044B43F8044B9142F9D10A7853
:106AF0001A7010BD6CBE0D00037D042B04D14068DC
:106B0000003818BF01207047062B07D143683BB9F6
:106B100083682BB9C3681BB90069F1E7002070478F
:106B20000120704710B59DF8084044EA032343EA6A
:106B3000024242EA016104234160037510BD13B5AE
:106B4000CB7800938B784A780978FFF7EBFF02B097
:106B500010BD000010B5034B03600446FFF7EFFFC4
:106B6000204610BD6CBE0D00014B024A1A607047F2
:106B700050E6032078BE0D00002340681A46FFF758
:106B8000E7BA406800220221FFF7F2BA002240680B
:106B90001146FFF7E5BA002240681146FFF7F0BA48
:106BA000002340681A461946FFF7F2BA00234068EE
:106BB0001A461946FFF7F4BA4068002281F0010135
:106BC000FFF7F6BA40680022FFF702BB00224068D8
:106BD0001146FFF705BB002240681146FFF7F0BAE7
:106BE0002DE9F043002495B016460D460746FFF701
:106BF00063FF214618220EA8009403F0FBF84023FF
:106C0000CDE90C3421466B460CAA3046FFF74CF90F
:106C10000446002846D1024601216868FFF7B0FA11
:106C20000221804622466868FFF7AAFA009E814644
:106C30002146002E36D0002934D17368022B03D0B0
:106C40000A2B0BD0F669F4E7B8F1000F04D0716994
:106C500038460431FFF773FF4146F3E7B9F1000FFF
:106C600001D14946EEE77469102201A803F0C2F889
:106C700006238DF8143001AD04F1080318341868A8
:106C800059682A4603C20833A3421546F7D101A921
:106C900006A807ADFFF71EFF0FCD3C1D0FC42B68E4
:106CA0002370DEE70098FFF7F7F8384615B0BDE827
:106CB000F0830000024B034A1A6000225A607047BA
:106CC00054E6032084BE0D00F8B506460D468F1825
:106CD0000024BD420CD0336815F8011B9B68304678
:106CE0009847031E01DB1C44F3E7002C08BF1C4639
:106CF0002046F8BD13B50446084659B1019103F08A
:106D0000CAF823680199DB680246204602B0BDE854
:106D10001040184702B010BD08B5FFF7EBFF08BDE3
:106D200003689B6818470A680B46126801461846B4
:106D3000104738B50D210546FFF7F2FF0A2104463A
:106D40002846FFF7EDFF204438BD38B50546FFF76C
:106D5000D1FF04462846FFF7ECFF204438BD38B584
:106D60000546FFF7E0FF04462846FFF7E2FF204410
:106D700038BD30B58BB000238DF82430012A98BF80
:106D80000A2209AC0D46B1FBF2F101FB125303F0EC
:106D9000FF03092B94BF30333733DBB2AA4204F828
:106DA000013DEFD92146FFF7A5FF0BB030BD000034
:106DB0002DE9F74F55EC104B06460F4610EE102A02
:106DC00010EE100A2B46294602F028FF40B1534925
:106DD0003046FFF78FFF8246504603B0BDE8F08F84
:106DE00025F000494E4B4FF0FF322046494602F055
:106DF00015FF48B94A4B4FF0FF322046494602F092
:106E0000EFFE08B94749E3E7474B4FF060422046A1
:106E1000294602F0F9FE08B14449D9E7444B4FF046
:106E200060422046294602F0D1FE0028F4D100221B
:106E300000232046294602F0C9FED0B12D2130465C
:106E4000FFF76EFF05F1004382461D463949DFF822
:106E5000EC904FF0000B00204FF000085FFA8BF32E
:106E60009F4208D942464B4602F068FD0BF1010BE8
:106E7000F4E78246EAE722462B4602F07FFA0D4607
:106E8000044602F009FF804602F0B4FB02460B46BE
:106E90002046294602F070FA0A2204460D46304682
:106EA0004146FFF766FF824427B123493046FFF78A
:106EB00021FF8244DFF884904FF00008013FFFB2C9
:106EC000FF2F89D042464B462046294602F00CFC53
:106ED00004460D4602F0B8FEB0F1000B1ADA2D217F
:106EE0003046FFF71DFFCBF1000103460A22304672
:106EF0000193FFF73EFF019B18448244584602F07D
:106F000089FB02460B462046294602F035FA044624
:106F10000D46D3E759460023E8E700BFB0BE0D0099
:106F2000FFFFEF7FB4BE0D00FFFFEF41B8BE0D00C5
:106F3000FFFFEFC10000E03FBCBE0D000000244099
:106F400038B5044610EE100ACDB202F075FB41ECE4
:106F5000100B29462046BDE83840FFF729BF2DE930
:106F6000F04186B000AF05460E46381D1421144688
:106F70003B60FFF765F913280ED8391D2846FFF747
:106F8000B9FE04461EB12846FFF7D3FE044420464E
:106F90001837BD46BDE8F08100F1080323F0070370
:106FA000E846ADEB030D2246411C3B686846FFF7FF
:106FB00047F969462846FFF79DFE0446C546E1E7C6
:106FC00010B50446FEF743FD204610BD0348044AB1
:106FD00004490023836000F06FBE00BF5CE603201D
:106FE000C4E20320C16F0D0010B5044608462170AD
:106FF000FEF792FF00236360204610BD10B50446E3
:107000000068FFF7FDF8204610BD10B50446006883
:1070100008B1FFF7F5F80023C4E90133236010BD80
:1070200038B504460D4600680131FFF7F1F810B19C
:10703000C4E90005012038BD10B50368044623B13A
:1070400043688B4201D3012010BD2046FFF7E8FFC3
:107050000028F9D0A368002BF5D122681370F2E75D
:1070600037B50D46114601920446FFF7E5FF019A38
:1070700028B92046FFF7C9FF204603B030BDA26003
:107080002946206802F0A8FE2268A3680021D15496
:10709000F2E7002313B5C0E90033044683600373AD
:1070A00041B10846019102F0F6FE019902462046E0
:1070B000FFF7D6FF204602B010BD13B5044659B104
:1070C0000846019102F0E7FE019902462046FFF7CB
:1070D000C7FF204602B010BDFFF797FFF9E7000099
:1070E00010B5094B094C022200201A60084B2060A1
:1070F000A080A071A360FEF7A7FF2046054A0649BD
:10710000BDE8104000F0D8BD78E603206CE603200F
:107110000000FFFFC4E2032081460D00024B1A6805
:10712000024B1A60704700BFE8E003207CE60320B2
:1071300010B40468246BA4465DF8044B60470368F0
:107140009B6C1847808E7047028FC08E101A704754
:1071500007B503688DF80710DB6801220DF1070100
:10716000984703B05DF804FB10B503681B6904463B
:10717000984728B1E38EE26B591CE186D05C10BDC4
:107180004FF0FF30FBE710B503681B6904469847D2
:1071900018B1E38EE26BD05C10BD4FF0FF30FBE71F
:1071A000704710B403460846DC6BD98E1A8F03680B
:1071B000521ADB6821445DF8044B1847A0F1100017
:1071C000FFF7EFBF70B503688CB05B6A04460E46EC
:1071D0001546984701231C22002105A8029302F0BE
:1071E00009FE40F61C233046ADF81430FEF74CFE85
:1071F0001122ADF8160002210A20FEF785FE0028B4
:10720000606125DB0422009202AB40F6FF71FEF7BD
:107210005BFEE8B995B10390ADF8100003A9E8B2A0
:10722000FEF7FAFDA0B906230093606903AB41F2B3
:107230000B0240F6FF71FEF747FE48B960691C2259
:1072400005A9FEF739FE18B9656401200CB070BDC0
:10725000236820465B6A98470020F7E710B504468C
:107260004069002801DBFEF737FE4FF0FF33636112
:107270000023E386238710BD70B50546C06BEE8EF4
:1072800068B12B6C9C1B944228BF144622463044A4
:1072900002F0A2FDEB8E2344EB86204670BD04462F
:1072A000F1E7D0B503681B6904460F4616469847B8
:1072B00090B1236820461B699847E38EE16B8642B4
:1072C000A8BF064619443246384602F085FDE38ED3
:1072D0003344E3863046D0BD4FF0FF36FAE7000076
:1072E00070B50446054B44F8043B01F12005064601
:1072F0000FCD0FC42B682370304670BD6CBE0D00DF
:10730000F0B59646026889B0976A0A4A02921C1D37
:107310008C4606460FCC03AD0FC523682B70BDF815
:1073200038300093724602AB61463046B84709B028
:10733000F0BD00BF6CBE0D00F0B5036889B09F6A58
:107340000C4B029300F1200604460FCE03AD0FC58F
:1073500033682B70A38EE28EE16B0093204602AB64
:10736000B84723680546DB6920469847284609B098
:10737000F0BD00BF6CBE0D00F0B54378022B8DB0A0
:1073800005460C46174604D1011D2046FFF7D7FBE2
:1073900022E00A2B25D11122002101A802F02AFDAA
:1073A000AB6803B305F1080301AE05F1180C1868CA
:1073B0005968324603C2083363451646F7D106239F
:1073C00001A906A807AE8DF81430FFF783FB0FCE96
:1073D00004340FC4336823701FB16888FEF74CFD76
:1073E00038800DB0F0BDEB68002BDBD14FF6FF709D
:1073F0002E69FEF739FD8642D4D105F11401C4E7A8
:107400002DE9F04117468EB00022064601AB084632
:1074100011460192FEF748FD041E20DB019B2BB3B1
:107420005B691BB302A8FFF747FB019B0022586969
:1074300002A9FFF7A1FF02A8FFF75EFBB0B1336816
:1074400003ADD3F838800B4B08930FCD09AC0FC4B4
:107450002B6823703A4608A93046C0470446019875
:10746000FEF71AFD20460EB0BDE8F0814FF0FF3464
:10747000F5E700BF6CBE0D002DE9F047D0F8149081
:10748000B9F1000F90B005460E4690461C463CDB15
:1074900000293AD04FF01C0A09AF52460021384665
:1074A00002F0A8FCCDF80CA0DCB100224FF47A70F9
:1074B000B4FBF0F3CDE9043200FB1343584310232F
:1074C00007920690009341F206026B4440F6FF716A
:1074D0004846FEF7F9FC044620B1204610B0BDE84E
:1074E000F087082403ABCDE9007368692346424660
:1074F0003146FEF7F9FC041EEFDB05F1340205F11D
:107500001C013846FFF738FFE7E74FF0FF34E4E7A8
:1075100038B5054614462B7D062B084610D140F69B
:107520001C231380FEF7B0FC08342B1D24F8060C36
:10753000143553F8042B44F8042BAB42F9D138BD71
:10754000042BFCD14FF404731380FEF79DFC608084
:107550006868FEF789FC6060F1E72DE9F0438BB0C5
:1075600003AF4FF01C09984604460D46164600210D
:107570004A46384602F03EFCBDF848103A464046BE
:10758000FFF7C6FF9DF80D3053B1CDE90079606972
:10759000002332462946FEF7AFFC0BB0BDE8F0836E
:1075A0004FF0FF30F9E7F0B591B00C4606460021E8
:1075B000154609A81C221F4602F01CFC09AA00213E
:1075C0002046FFF7A5FF9DF82530022B2DD10A9B01
:1075D000049300230593BDB102A92846FEF724FCBD
:1075E00090B9039003A90298FEF726FC48B9039BC3
:1075F0003BB1DA6812685178022914D1526892B10D
:1076000005920398FEF720FC002F4FF0080300932B
:1076100018BF032204AB08BF042200213046FEF746
:1076200053FC11B0F0BD1B68E2E70A2B15D10BAB80
:107630000FCB04AC84E80F00002F4FF0140300932D
:1076400018BF0C22234608BF0D2229213046089579
:10765000FEF73AFC00EAE070E3E74FF0FF30E0E7C6
:1076600038B500254FF47A73C0E901530B4B03F191
:1076700008026C3303614FF0FF330446026043613C
:107680001C30FFF719FA4FF40073C4E91035E58692
:107690002587E56384F84850204638BDDCBE0D00E0
:1076A00010B590F84830044623B1C06B10B10121E9
:1076B00000F007FB0023E36384F848302364E3868B
:1076C000238710BD70B5044616460D46FFF7E8FF48
:1076D0000023E66323642EB12564206C003818BFB4
:1076E000012070BD002DF8D02846FCF7D6FC012300
:1076F000E06384F848300028EFD0EDE7F8B517468E
:10770000C26B05460C461AB9016C09B1FFF7DAFFE6
:1077100004340FCC05F120060FC623683370002314
:10772000286CAF86EB862B87F8BD37B5C26B044655
:107730000B462AB9016C19B10193FFF7C3FF019BF6
:10774000E16B0022E286228741B1226C32B12068CF
:10775000056B2046A8470028C8BF208723681B69FF
:10776000204603B0BDE83040184710B44469002CEF
:1077700007DB90F84420012320465DF8044BFFF717
:1077800012BF4FF0FF305DF8044B704770474174F3
:10779000704708B5007CFEF707FC20EAE07008BDE2
:1077A00008B5007CFEF7D8FB20EAE07008BD08B5FC
:1077B000007CFEF7E1FB40EAE07008BD08B5007C04
:1077C000FEF7D2FB40EAE07008BD007CFEF7DCBBB0
:1077D00037B5457C04462DB1207C03B0BDE8304070
:1077E000FEF7B2BB007C0191FEF7DEFB0028019999
:1077F000F2DC284603B030BD10B51421044600F079
:1078000060FA204610BD000010B54FF0000C044691
:10781000084611464FF47A72C4E901C2044A226054
:107820000122207462741A46FEF786FB204610BDC2
:1078300054BF0D0013B50E4C2178BFF35B8F11F0D0
:10784000010112D120460191FCF72BFC019960B196
:10785000084A094B0948FFF7D7FF2046FCF726FCEA
:10786000074A0849054800F027FA044802B010BD4D
:1078700080E6032084E6032008E703208CE703204A
:10788000C4E203208D770D0041747047704708B53E
:107890000021007CFEF7B0FB40EAE07008BD08B5AF
:1078A0000121007CFEF7A8FB40EAE07008BD08B5A6
:1078B000007CFEF799FB20EAE07008BD08B5007C6B
:1078C000FEF78AFB20EAE07008BD13B50446007C91
:1078D0000191FEF789FB0028019901DC607C20B151
:1078E000207CFEF791FB20EAE07002B010BD007C26
:1078F000FEF792BB10B51421044600F0E2F92046D1
:1079000010BD000010B54FF47A73044608460021FC
:10791000C4E90113044B23600123207463741146EE
:10792000FEF74AFB204610BD84BF0D00007C0022FC
:10793000FEF74ABB007CFEF777BB10B51422044665
:10794000002102F057FA204610BD000010B5104C7F
:1079500088B003A8FFF7F1FF2178BFF35B8F11F028
:10796000010111D120460191FCF79BFB019958B10F
:1079700003AA0848FFF7C6FF2046FCF797FB064A14
:107980000649044800F098F9024808B010BD00BF4D
:10799000A0E70320A4E70320C4E203208D780D00B4
:1079A000002240681146FEF7EBBB002240681146FA
:1079B000FEF706BC002240681146FEF711BC406885
:1079C0000022FEF705BC4068002281F00101FEF7AD
:1079D000EFBB002340681A461946FEF7E1BB0023BF
:1079E00040681A461946FEF7D3BB0022406811468C
:1079F000FEF7B6BB406800220221FEF7B9BB0023A8
:107A000040681A46FEF7A4BB024B04225A60024AA1
:107A10001A607047B8E70320B4BF0D00014B18602F
:107A2000704700BFF0E0032008B50B4B43B1FFF7F0
:107A30008DFF03681B699847002801DDAFF30080C4
:107A4000064B43B1FFF7F6FE03681B699847002811
:107A500001DDAFF3008008BD000000000000000061
:107A600008B5FFF7E1FFFEF74FF9014B186008BDBD
:107A7000D4E703200248034A0349121A02F0ACB9C2
:107A800000F4032004F4032050C70D0007B50023C1
:107A900000931A466FF07701FEF708FB03B05DF81C
:107AA00004FB000007B543880A2B08D0502B0BD1EC
:107AB000094B1B684BB103B05DF804EB1847FFF7A7
:107AC000E5FF03B05DF804FB002300931A466FF056
:107AD0007701FEF7EBFAF4E7C4E7032038B5124C60
:107AE0001248134D0021FEF7CBFB2368AB42114B2C
:107AF0000CBF012200221A7002D0FFF7BBFF2560E5
:107B0000FEF7FAF8044602F07DF90B4B13B120465C
:107B1000AFF3008000210848FEF702FBBDE83840C3
:107B200006480021FEF7B8BA00F403201D7A0D00C4
:107B30001E1C279AC0E7032000000000A57A0D0054
:107B4000232813B502D9002002B010BDA0F10B0309
:107B5000022B1AD8174C2178BFF35B8F11F001016B
:107B60000BD120460191FCF79CFA019928B11248EB
:107B7000FFF73AFA2046FCF799FA0F4B1878FEF710
:107B8000D3F90028DFD10120DEE7012809D800F071
:107B90006BF80021007CFEF727F980F00100C0B2ED
:107BA000D2E709380128EED8FFF744FE007CFEF743
:107BB000F3F9F2E7C8E70320CCE70320232838B520
:107BC00004460D460AD8FF2908D0FFF7B9FF28B1AF
:107BD00029462046BDE83840FEF7A6B838BD38B57E
:107BE00004460D46FEF7A8F8FF2810D0062804D852
:107BF0004D2323FA00F0C30709D42046FFF7A0FF66
:107C000028B129462046BDE83840FEF79DB838BD6A
:107C100010B50446FEF790F8031FDBB2012B08D91C
:107C20002046FFF78DFF20B12046BDE81040FEF74B
:107C300093B8002010BD000038B5002320254380F4
:107C4000142304460380856005610649284600F038
:107C50003AF804496060284600F035F8E0602046B4
:107C600038BD00BFE0BF0D0030B50F4D2978BFF320
:107C70005B8F11F0010487B013D12846FCF711FA8D
:107C800078B101A8FFF7D8FF01AA21460748FEF7FF
:107C90008FFE2846FCF70AFA054A0649034800F019
:107CA0000BF8024807B030BDD8E70320DCE703201B
:107CB000C4E2032059690D000B460146184602F044
:107CC0007DB8FCF7ECB9FCF7E8B908B5FEF7C0FAE7
:107CD00008B5FEF7BDFA08B5FEF7BAFA0FB480B5DD
:107CE00084B000AF07F1180454F8042B7A601046F2
:107CF00002F0D1F800F2072323F00703ADEB030DE8
:107D000000F500717A68FC602346684600F058F878
:107D1000FEF79EFA08B5FEF79BFA000080B59CB00E
:107D2000064600AF0C46A41B0E496922381D02F01E
:107D300053F804F1700323F00703ADEB030D6D4618
:107D40006822391D284602F047F82246314605F1DF
:107D500068002C4402F040F8002384F8683028467C
:107D6000FFF7B6FFE1BF0D002DE9F04100AF84B091
:107D70006D4605F10C04DFF8448023464FF00A0CF1
:107D8000B2FBFCF60CFB162E18F80EE003F801ED22
:107D90009646BEF1090F3246F2D8E41A8C4209D851
:107DA000C4F10C012246294402F016F82046BD46D3
:107DB000BDE8F0814FF0FF34F8E700BF4AC00D0086
:107DC00001392DE9F0410746154600EB010804464C
:107DD0002A7862B344452ED2252A07D16A78732ABD
:107DE00009D07A2A12D0252A00D1013515F8012BA5
:107DF00004F8012BECE753F8042B013A12F8011FA9
:107E0000E9B1444517D004F8011BF7E7AA78752AB1
:107E1000ECD11E46A8EB040156F8042B2046FFF7D0
:107E2000A3FF002807DD044403353346D0E7227062
:107E3000E01BBDE8F08121463846FFF76FFF0235B1
:107E4000C6E70AB101F0C8BF7047000008B50B686B
:107E5000B3F1804F02D30D48FFF73DFF93420BD99A
:107E6000B3EB420F4FEA420006D2B0F1804F2ABF77
:107E70006FF0404308600B600868013001D5FFF7E0
:107E800024FFBDE80840FCF706B900BF55C00D004F
:107E900050F8083B834202D01846FCF700B97047FF
:107EA000012A10B502D10A78027010BDFFF7C9FF90
:107EB000FBE708B5521AFFF7F3FF08BD08B5521AE1
:107EC000FFF7EEFF08BD8842F7B504460E461ED008
:107ED00003464D6853F8082B9A4214BF82680F225C
:107EE000AA420AD201A90195FFF7B0FF0746204632
:107EF000FFF7CEFF019B2760A36025B131682068A2
:107F00002A46FFF7CDFF2368656000225A5503B06B
:107F1000F0BD70B504460E460830206056F8083BA8
:107F20009E420D460BD110223146FFF78AFF6B6847
:107F3000636000232E606B602B72204670BD23604F
:107F40008B68A360F3E7000073B5044616460D4640
:107F500019B912B10D48FFF7BBFE731B0F2B01932C
:107F600007D9002201A92046FFF770FF019B20607E
:107F7000A360324629462068FFF79BFF019B2268D9
:107F800063600021D15402B070BD00BF6DC00D0010
:107F900038B500F108030360D1E9005204464FF000
:107FA00000032A442946FFF7CFFF204638BD0000D2
:107FB00000B510EE103A204A23F00043934283B0FC
:107FC00019DDB3F1FF4F04DB30EE400A03B05DF87A
:107FD00004FB684600F0DAFA00F00300012811D033
:107FE00002281FD0B8B1DDED010A9DED000A012085
:107FF00000F0D2FFEAE7DFED110A00F015FC03B054
:108000005DF804FBDDED010A9DED000A00F0C4FF00
:10801000B1EE400ADAE7DDED010A9DED000A00F05D
:1080200003FCD3E7DDED010A9DED000A00F0FCFB47
:10803000B1EE400ACAE700BFD80F493F0000000078
:1080400000B510EE103A214A23F00043934283B06A
:108050001ADDB3F1FF4F04DB30EE400A03B05DF8E8
:1080600004FB684600F092FA00F00300012813D0E8
:10807000022820D0B8B1DDED010A9DED000A00F024
:10808000D3FBB1EE400AE9E7DFED110A002000F072
:1080900083FF03B05DF804FBDDED010A9DED000AEE
:1080A00000F0C2FBDAE7DDED010A9DED000A0120D8
:1080B00000F072FFD2E7DDED010A9DED000A01201C
:1080C00000F06AFFB1EE400AC8E700BFD80F493F91
:1080D0000000000010B52DED028B2B4C8AB0B0EEE5
:1080E000408A00F0B1F894F900300133F0EE408A94
:1080F0000FD0B4EE488AF1EE10FA0AD6B0EE480A74
:1081000001F076F8F7EE007AB4EEE70AF1EE10FA35
:1081100005DCB0EE680A0AB0BDEC028B10BD01238D
:108120001A4A009318EE100A00230192089301F0F6
:1081300083FA02460B461648CDE90423CDE9022313
:1081400000F076FF94F90030022B8DED060B11D074
:10815000684600F069FF68B1089B83B9DDE9060154
:1081600001F0BAFD08EE900AB0EE680A0AB0BDEC64
:10817000028B10BDFEF77CF821230360ECE7FEF7CD
:1081800077F8089B0360E9E7ECE0032098C00D0056
:10819000A0C00D0000F052B910B52DED028B8AB0D1
:1081A000B0EE408A00F03CFB254B93F90040631C85
:1081B00009D0B4EE488AF1EE10FA04D6B5EEC08AC2
:1081C000F1EE10FA03D40AB0BDEC028B10BD01230E
:1081D0001C4A009318EE100A00230192089301F044
:1081E0002BFA0022CDE90401CDE902010023BCB144
:1081F0001046194601F0A2FB022CCDE9060111D16F
:10820000FEF736F821230360089B9BB9DDE90601E0
:1082100001F062FD00EE100A0AB0BDEC028B10BD49
:10822000CDE90623684600F0FFFE0028E8D0089B51
:10823000002BEBD0FEF71CF8089B0360E6E700BFBD
:10824000ECE00320A4C00D0038B510EE105A25F064
:108250000044B4F17E5F2DED048B7FD077DCB4F168
:108260007C5F0EDAB4F1485F80F29480DFED637AD0
:1082700070EE277AB7EE007AF4EEC77AF1EE10FAD4
:1082800062DC00F0B5FFF7EE007A37EEC00AB6EE1A
:10829000008A20EE088A9FED5A3A9FED5A4ADFED98
:1082A0005A3ADFED5A4A9FED5A5ADFED5A5A9FED7E
:1082B0005A6A9FED5A7ADFED5A6ADFED5A8AA8EEC4
:1082C000034AE8EE234AA4EE085AE4EE885AA5EEE3
:1082D000086AA5EE887AE6EE086AE7EE087AE6EE26
:1082E000888AB0EE480AB0EE679A00F099FA4E4BD1
:1082F0009C4268EE888A3EDC10EE103A23F47F63DD
:1083000023F00F0306EE903AA6EEE68A70EE267A88
:10831000C8EE895A88EE275A9FED447ADFED447AF9
:10832000B0EE006AA5EE467A30EE000AB0EE675A6B
:10833000A6EEC65A90EE257A37EE450A37EEC00A09
:10834000002DD8BFB1EE400ABDEC048B38BDBDECAA
:10835000048B70EE407A87EEA70A38BDDFED337AE2
:108360009FED347A60EE277ABDEC048BE0EE077A5D
:10837000B0EE670A38BDC8EE896A9FED2F7ADFED4F
:108380002D7AA0EE260AF0EE006AA0EE267A37EEED
:10839000C70AD5E760EE007ADFED192ADFED193A5A
:1083A000DFED1B4A9FED183A9FED184ADFED1A6A80
:1083B0009FED185ADFED1A5A9FED186A9FED197A52
:1083C000E7EEA23ABDEC048BE3EEA74AA7EE834AA0
:1083D000E4EEA76AA4EE275AE6EEA75AA5EE276AAE
:1083E000A5EEA77AF7EE006AE6EE276A67EE277A2F
:1083F00087EEA67AA0EE070A38BD00BFCAF249711F
:1084000008EF1138047F4F3A2EC69D3D613330BFCF
:10841000461124BD2D570140A80A4E3E39D119C03E
:1084200090B0A6BEABAA2A3E9999793F2EBD3BB328
:10843000DB0F493FDB0FC93F2EBD3B3310B582B088
:10844000CDED010A019B23F00042B2F1FF4FF0EEA7
:10845000407A30DC10EE100A20F00041B1F1FF4FFD
:1084600029DCB3F17E5F42D09C1704F0020444EA99
:10847000D07431B37AB3B2F1FF4F40D0B1F1FF4FB6
:1084800029D08A1AB2F1F45F4FEAE25134DA002BB4
:1084900042DA3C3140DA9FED340A012C4ED0022CF6
:1084A00043D064B19FED317ADFED317A30EE070AC7
:1084B00030EE670A03E09DED017A37EE270A02B03D
:1084C00010BD022C10D09FED2B0A032C18BFB0EE6C
:1084D000670A02B010BD9FED280ADFED287A002858
:1084E000B8BFB0EE670AEAE79FED210AE7E702B0FE
:1084F000BDE8104000F0A4BD9FED1F0ACDE7B1F12B
:10850000FF4F04F1FF3420D0022C26D81C4B03EB84
:10851000840494ED000AD2E79DED017A87EE870A84
:1085200000F066FE00F08CFDB7E79FED107ADFEDFE
:10853000107A30EE070A37EEC00AC0E710EE103AA4
:1085400003F1004300EE103AB9E7022C08D80D4BB6
:1085500003EB840494ED000AB1E79FED030AAEE754
:108560009FED090AABE700BF000000002EBDBB3342
:10857000DB0F4940DB0F49C0DB0FC93FDB0FC9BF31
:10858000B8C00D00ACC00D00DB0F493F70B510EE58
:10859000103A954A23F00044944286B0054668DDBF
:1085A000924A944210EE106A1ADC002BDFED907AAA
:1085B000904A24F00F0440F3F180944270EE677A01
:1085C00066D09FED8D7A77EEC76A012077EEE67A66
:1085D000C5ED006A77EEC77AC5ED017A06B070BDC9
:1085E000864A944267DDB4F1FF4F49DAE215863AD4
:1085F000A4EBC25307EE903ABDEEE77ADFED806A56
:10860000B8EEC77A77EEC77A8DED037A67EEA67A71
:10861000BDEEE77AB8EEC77A77EEC77A8DED047AC9
:1086200067EEA67AF5EE407AF1EE10FACDED057A16
:1086300040F0A380B5EE407AF1EE10FA14BF0223A9
:108640000123704901910221009103A8294600F0FD
:108650006DF9002EC2DA95ED007AD5ED017AB1EE12
:10866000477AF1EE677A404285ED007AC5ED017AEE
:10867000B4E7002285ED000A4260002006B070BD1C
:1086800070EE407A0020C5ED017AC5ED007AA5E7CD
:10869000DFED5D6A9FED5D7A77EEE67A012077EE99
:1086A000C76A77EEE67AC5ED006A77EEC77AC5ED60
:1086B000017A06B070BD00F09BFDDFED556A9FEDBD
:1086C0004C6A9FED4D7AF6EE007AE0EE267AFDEEEA
:1086D000E77A17EE900AF8EEE76A1F28A6EEC60AB8
:1086E00066EE877AB1EE666A1EDC4A4A411E24F0C5
:1086F000FF0352F82120934216D030EE677A85EDC1
:10870000007A30EE470A002E30EE670A85ED010A46
:10871000BFF664AFB1EE477AB1EE400A85ED007A5C
:1087200085ED010A404259E730EE677AE21517EE0F
:10873000103AC3F3C753C3EBD454082CDFDDDFED8D
:10874000327A9FED327AF0EE405AE6EE275A30EE5A
:10875000650AA6EE270AF0EE407AD6EE877A35EE65
:10876000E77A17EE103AC3F3C753D21A192A06DC78
:1087700085ED007AB0EE650AC3E7032361E79FED5C
:10878000267A9FED265AB0EE650AA6EE070A75EE28
:10879000C07AE6EE077AD6EE857AAEE7944270EEBE
:1087A000277A0ED09FED147A77EE876A4FF0FF306C
:1087B00077EEE67AC5ED006A77EE877AC5ED017A45
:1087C0000CE7DFED116A9FED117A77EEA67A4FF094
:1087D000FF3077EE876A77EEE67AC5ED006A77EECE
:1087E000877AC5ED017AF9E6D80F493FE3CB164009
:1087F000800FC93FD00FC93F43443537800F4943ED
:108800000000804344C10D000044353708A3852E85
:1088100084F9223FC4C00D0000A3852E32318D247F
:10882000B1EEC00A704700BF10EE103A23F00043CB
:10883000B3F1485F2CDAFDEEC07A17EE903A002BC8
:1088400060D020EE007ADFED314A9FED315ADFED46
:10885000315A9FED316ADFED317ADFED316AA7EEF3
:10886000245AE7EE055AA7EE256AE7EE067AE7EE08
:10887000276A67EE266A60EEC00AF6EE007AE7EE37
:10888000260AB7EE000AD7EE270A30EE600A7047D4
:1088900020EE007ADFED1D4A9FED1D5ADFED1D5AD7
:1088A0009FED1D6ADFED1D7ADFED1D6A1D4AA7EE03
:1088B000245A9342E5EE075AA5EE876AE6EE077A58
:1088C000E7EE876A66EE876AD5DD174A934214DCC5
:1088D00003F17F4307EE903AB7EE006A36EE676A1F
:1088E00060EEC00AF6EE005AE7EE260AD7EE257AC9
:1088F00077EEE00A36EE600A7047B6EE076AF5EEEC
:10890000027AEDE7B7EE000A704700BF4ED747ADD9
:10891000F6740F317CF293B4010DD037610BB6BA07
:10892000ABAA2A3D9999993E0000483F2DE9F04FA6
:108930002DED048BDBB0D74C689D0791111D54F8C9
:10894000256004930992834603F1FF39C0F29D82AA
:10895000D31E44BF13460433DB1003930133DB0003
:108960000893DDE908239B1A0693039B16EB090184
:10897000A3EB090316D401319FEDC77A6998194416
:108980001EAA002BA4BF50F8234007EE904A03F123
:108990000103ACBFF8EEE77AF0EE477A8B42E2ECE7
:1089A000017AEED1002EC0F2E082049B1EA901EBF9
:1089B000830446AD4FEA830C4846F7180BEB83015E
:1089C000B9F1000FDFEDB47A09DB22465B46F3EC28
:1089D000016A32ED017A8B42E6EE877AF7D10130F7
:1089E000B842E5EC017A04F10404E9D10DF128085C
:1089F00008EB8603083B05939FEDA99ADFEDA78A54
:108A00000698009609AB03EB860A0BEB0C0446AF05
:108A10005B465AAA02EB8602002E12ED140A4FEAB8
:108A2000860B16DD07EB8602414660EE097AB0EE52
:108A3000407AFDEEE77A72ED016AF8EEE77ABA4223
:108A4000A7EEE87A37EEA60ABDEEC77AA1EC017A66
:108A5000EBD1CDE9010300F019FCB0EE408AB4EE91
:108A6000000A28EE000A00F0CBFBF2EE007AA0EE3E
:108A7000678A0198029BFDEEC89A0028F8EEE97A11
:108A800038EE678A78DD06F1FF3CC0F1080258F83D
:108A90002C5045FA02F101FA02F2AA1A48F82C20E9
:108AA000C0F1070519EE90CA42FA05F58C44002D75
:108AB00009EE90CA68DCB5EE408AF1EE10FA40F09B
:108AC000B680009A06F1FF3E724510DC06F1804246
:108AD000013A08EB820200219C4652F804395245C3
:108AE00041EA0301F9D16346002940F0F280009A7F
:108AF000013A58F82220002A40F0E680059A4FF00B
:108B0000010C52F804190CF1010C0029F9D006F1FE
:108B1000010BB444DE460499039A8D195A441EA9E8
:108B200002F1804201EB85056999013A01EB820669
:108B300007EB8B0BD6ED017A9FED577AF8EEE77ACB
:108B4000B9F1000F06F104062946C5ED007A05F1DA
:108B5000040509DB1A4601E071ED017AF2EC016AC5
:108B6000A242A6EEA77AF7D10EF1010EE645ABECD4
:108B7000017ADFDD66464CE740F09C80721E58F8B3
:108B800022502D12002D96DD19EE902A002E02F1B2
:108B9000010209EE902A40F38E81D8F800100029D6
:108BA00074D1012E1CD042464FF0010C52F8041F24
:108BB000002979D00CF10102C1F58071964248F884
:108BC0002C100CDD58F82210C34408EB820200E0A0
:108BD0001168C1F1FF0142F8041B5A45F8D1012187
:108BE00000280CDD012800F04781022807D106F19A
:108BF000FF3C58F82C2002F03F0248F82C20022DB0
:108C00007FF459AFB7EE000A30EE488A00293FF4EE
:108C100052AFCDE9010300F039FB38EE408ADDE9BF
:108C20000103B5EE408AF1EE10FA3FF44AAFDDE9F8
:108C30000832B0EE480A981A02960195009E00F09C
:108C400025FB9FED167AB4EEC70AF1EE10FADDE9C6
:108C50000123C0F25781DFED127A069960EE277A80
:108C60000831FDEEE77A0691F8EEE77A5D1CA7EE93
:108C7000C70AFDEEE77ABDEEC00A10EE101A48F8FA
:108C8000231017EE903A48F8253039E001224FF0D2
:108C9000000C91E788C40D00000000000000804334
:108CA0000000803B0000C93F0CF1010CB4457FF48B
:108CB0007DAF95E7F6EE007AB4EEE78AF1EE10FAB2
:108CC00080F2E8800025F6E606F1010BDE46DC4680
:108CD00021E7069858F82E10083833462A46009E99
:108CE0000690754661B903F18043023B08EB8303AC
:108CF000014653F80409013D08390028F9D00691CE
:108D000006980092B7EE000A00F0C0FA002D009A13
:108D1000C0F21E814FEA850E46AB03EB0E070EF143
:108D2000040C1FED217A08EB0C03391D73ED017A59
:108D3000F8EEE77A434567EE807A20EE070A61EDA8
:108D4000017AF3D1002E1FED296A4FF0000420DBD9
:108D50008F48DFED907A3946B0EE467A002303E083
:108D60009C4208DBB0EC017AF1EC016A01339E42CF
:108D7000E6EE877AF4DA5AAB03EB8403A54243EDBF
:108D8000287AA7F1040704F1010305D0002E1C4640
:108D9000DEDADFED807AEEE7689902291CDC002933
:108DA00000F38B800FD132ABDFED7A7A9C443CED3F
:108DB000017A634577EE877AF9D10AB1F1EE677AE5
:108DC000079BC3ED007A19EE903A03F007005BB001
:108DD000BDEC048BBDE8F08F689B032BF3D1002D15
:108DE00000F0CB805AAB734432A913ED287A01EB23
:108DF000850373ED017AF0EE476A37EE277A9942E0
:108E000077EEC77A83ED007A77EEA67AC3ED017A22
:108E1000EFD1012D40F3B18005F180455AAB013D02
:108E20009E44AD002B1D1EED287A0B4433A873ED34
:108E3000017AF0EE476A37EE277A984277EEC77AE2
:108E400083ED007A77EEA67AC3ED017AEFD108358B
:108E5000DFED507A4B19083133ED017A994277EE04
:108E6000877AF9D1002A55D10799329A339BC1EDFF
:108E7000027A0A604B60A6E706F1FF3C58F82C2006
:108E800002F07F0248F82C20B9E60823089300235B
:108E9000039366E519EE902A002E02F1010209EE15
:108EA000902AC8BF02253FF778AEF7EE007A37EE7A
:108EB000C88A0225FFE5002192E632A9DFED357A66
:108EC00001EB830333ED017A994277EE877AF9D18A
:108ED00092BB9DED327A079B002DC3ED007A77EEB1
:108EE000677A0BDD33A90123B1EC017A01339D428E
:108EF00077EE877AF8DA0AB1F1EE677A079BC3ED6D
:108F0000017A60E7BDEEC00A1D4610EE101A48F85F
:108F10002310F5E6DDED326A9DED337A079BF1EE25
:108F2000677AF1EE666AB1EE477AC3ED027AC3ED75
:108F3000006A83ED017A46E7DDED326A079BB1EE08
:108F4000677A002D76EEE77A83ED007ACADCD3E704
:108F5000689B022B0DDC002B14DC7FF434AFDFEDBB
:108F60000D7A002A3FF42CAF28E7049B4FEA830CCC
:108F70003CE5689B032B7FF426AFDFED067A002AE1
:108F8000C8D171E7DFED037A002AA2D0D4E700BF91
:108F900060C40D000000000010EE103A23F0004302
:108FA000B3F1485F04DAFDEEC07A17EE903A5BB396
:108FB00060EE007A9FED155ADFED155A9FED156AA8
:108FC000DFED156A9FED157AE7EE855A20EE275AF8
:108FD000A5EEA76AE6EE276AA6EEA77A30B9DFED1E
:108FE000106AE7EE876AA6EE850A704727EE457A93
:108FF000F6EE006AA0EEA67ADFED0A6AD7EE270A3F
:10900000E5EE260A30EE600A704700BFD3C92E2F66
:10901000342FD7B21BEF3836010D50B98988083C80
:10902000ABAA2ABEABAA2A3E00207047000000006F
:109030009FED010B704700BF000000000000F87FAB
:1090400038B510EE105A25F00044B4F1A14FF0EEFF
:10905000407A0BDBB4F1FF4F59DCDFED527A9FED24
:10906000520A002DC8BFB0EE670A38BD4F4B9C4274
:109070005CDCB4F1445F4DDB4FF0FF3327EEA76AB1
:109080009FED4B1A9FED4B2A9FED4B3ADFED4B1AAC
:10909000DFED4B2A9FED4B4ADFED4B3A9FED4B5AEC
:1090A000DFED4B4ADFED4B6ADFED4B5A26EE067AD9
:1090B0005A1CA7EE012AE7EE212AA2EE073AE2EEB9
:1090C000873AA3EE074AE3EE874AA4EE075AE4EE96
:1090D000875AE5EE076A25EE877A66EE866A3AD009
:1090E0003E493F4A01EB830176EE876A91ED000A23
:1090F00096EEA70A02EB8303002D93ED007A70EE43
:10910000677A37EE670AB0DAB1EE400A38BD30EE62
:10911000000A38BD9FED337A30EE077AF7EE006A29
:10912000B4EEE67AF1EE10FAA6DD38BD00F060F894
:109130002D4B9C4216DCA3F5D0039C4227DCF0EEBD
:10914000007ABFEE007AA0EE277A002330EE270ADD
:10915000C7EE007A92E776EE876AE6EEE77AB0EE3F
:10916000670A38BD214B9C420BDCF7EE087AB7EE5C
:10917000007AA0EE277A022330EE670AC0EE077A63
:109180007CE7BFEE007AC7EE007A032376E7F7EEBE
:10919000007A30EE677A30EE270A0123C7EE007AB4
:1091A0006CE700BFDB0FC93FDB0FC9BFFFFFDF3E2E
:1091B000D769853C59DA4B3D356B883D21A215BDF9
:1091C0006BF16EBD6E2EBA3D95879DBD2549123E51
:1091D000388EE3BDABAAAA3ECDCC4CBEA4C40D00D4
:1091E00094C40D00CAF24971FFFF973FFFFF1B4077
:1091F00010EE103A23F0004300EE103A704700BF23
:1092000010EE102AC2F3C7537F3B162B22F0004109
:109210001ADC002B1EDB1A4919410A4227D0DFED68
:10922000197A70EE277AF5EEC07AF1EE10FA1EDDAB
:10923000002A04DA4FF4000040FA03F31A4422EA49
:10924000010300EE103A7047B1F1FF4F0FD330EE3B
:10925000000A7047DFED0B7A70EE277AF5EEC07AE0
:10926000F1EE10FA03DD002A02DB9FED070A7047DA
:109270000029FFEE007A18BFB0EE670A704700BF02
:10928000FFFF7F00CAF249710000000082B08DED3F
:10929000010A019B33F000422AD0B2F1FF4F23D2E2
:1092A00013F0FF4F28D19DED017ADFED2A7A2A4B8A
:1092B00067EE277A9842CDED017A37DB019BC3F345
:1092C000C752193A0244FE2A1ADD9FED240A9FED87
:1092D000247A019B002BF0EE407AB8BFB0EE470A2B
:1092E00020EE270A02B0704730EE000A02B0704745
:1092F0009DED010A02B07047D20D0244FE2AE4DC63
:10930000002A0BDC12F1160F17DA4CF25033984298
:10931000DBDC9FED140A9FED147ADAE723F0FF43BC
:1093200043EAC25300EE103A02B070479FED0D0AB7
:10933000DDED017A27EE800AD8E7193223F0FF43EA
:1093400043EAC253DFED097A07EE103A27EE270A07
:10935000CCE700BF0000004CB03CFFFFCAF24971EF
:10936000CAF249F16042A20D6042A28D00000033B2
:1093700081F0004102E000BF83F0004330B54FEAC6
:1093800041044FEA430594EA050F08BF90EA020F33
:109390001FBF54EA000C55EA020C7FEA645C7FEAC6
:1093A000655C00F0E2804FEA5454D4EB5555B8BFE9
:1093B0006D420CDD2C4480EA020281EA030382EA5A
:1093C000000083EA010180EA020281EA0303362DEC
:1093D00088BF30BD11F0004F4FEA01314FF4801CBF
:1093E0004CEA113102D0404261EB410113F0004FD1
:1093F0004FEA03334CEA133302D0524263EB430388
:1094000094EA050F00F0A780A4F10104D5F1200E25
:109410000DDB02FA0EFC22FA05F2801841F1000180
:1094200003FA0EF2801843FA05F359410EE0A5F154
:1094300020050EF1200E012A03FA0EFC28BF4CF085
:10944000020C43FA05F3C01851EBE37101F000453B
:1094500007D54FF0000EDCF1000C7EEB00006EEB48
:109460000101B1F5801F1BD3B1F5001F0CD34908D2
:109470005FEA30004FEA3C0C04F101044FEA445229
:1094800012F5800F80F09A80BCF1004F08BF5FEAB0
:10949000500C50F1000041EB045141EA050130BD90
:1094A0005FEA4C0C404141EB0101013C28BFB1F5A2
:1094B000801FE9D291F0000F04BF01460020B1FAED
:1094C00081F308BF2033A3F10B03B3F120020CDAC0
:1094D0000C3208DD02F1140CC2F10C0201FA0CF09E
:1094E00021FA02F10CE002F11402D8BFC2F1200C03
:1094F00001FA02F120FA0CFCDCBF41EA0C019040B9
:10950000E41AA2BF01EB0451294330BD6FEA040401
:109510001F3C1CDA0C340EDC04F11404C4F12002EC
:1095200020FA04F001FA02F340EA030021FA04F3FE
:1095300045EA030130BDC4F10C04C4F1200220FA55
:1095400002F001FA04F340EA0300294630BD21FA93
:1095500004F0294630BD94F0000F83F4801306BF59
:1095600081F480110134013D4EE77FEA645C18BF4D
:109570007FEA655C29D094EA050F08BF90EA020FE4
:1095800005D054EA000C04BF1946104630BD91EADC
:10959000030F1EBF0021002030BD5FEA545C05D1DF
:1095A0004000494128BF41F0004130BD14F580041E
:1095B0003CBF01F5801130BD01F0004545F0FE4192
:1095C00041F470014FF0000030BD7FEA645C1ABFC7
:1095D000194610467FEA655C1CBF0B46024650EAFE
:1095E000013406BF52EA033591EA030F41F400212A
:1095F00030BD00BF90F0000F04BF0021704730B5B0
:109600004FF4806404F132044FF000054FF0000184
:1096100050E700BF90F0000F04BF0021704730B545
:109620004FF4806404F1320410F0004548BF40421A
:109630004FF000013EE700BF42004FEAE2014FEA6F
:1096400031014FEA02701FBF12F07F4393F07F4F4A
:1096500081F06051704732F07F4208BF704793F04D
:109660007F4F04BF41F40021704730B54FF4607460
:1096700001F0004521F000411CE700BF50EA010263
:1096800008BF704730B54FF000050AE050EA01020C
:1096900008BF704730B511F0004502D5404261EB7C
:1096A00041014FF4806404F132045FEA915C3FF4BD
:1096B000D8AE4FF003025FEADC0C18BF03325FEA5A
:1096C000DC0C18BF033202EBDC02C2F1200300FA0B
:1096D00003FC20FA02F001FA03FE40EA0E0021FA30
:1096E00002F11444BDE600BF70B54FF0FF0C4CF41E
:1096F000E06C1CEA11541DBF1CEA135594EA0C0FD0
:1097000095EA0C0F00F0DEF82C4481EA030621EA0A
:109710004C5123EA4C5350EA013518BF52EA033545
:1097200041F4801143F4801338D0A0FB02CE4FF0F7
:109730000005E1FB02E506F00042E0FB03E54FF027
:109740000006E1FB03569CF0000F18BF4EF0010E1F
:10975000A4F1FF04B6F5007F64F5407404D25FEA1B
:109760004E0E6D4146EB060642EAC62141EA5551CE
:109770004FEAC52040EA5E504FEACE2EB4F1FD0C10
:1097800088BFBCF5E06F1ED8BEF1004F08BF5FEA8E
:10979000500E50F1000041EB045170BD06F0004640
:1097A00046EA010140EA020081EA0301B4EB5C04ED
:1097B000C2BFD4EB0C0541EA045170BD41F48011E5
:1097C0004FF0000E013C00F3AB8014F1360FDEBF0A
:1097D000002001F0004170BDC4F10004203C35DAE6
:1097E0000C341BDC04F11404C4F1200500FA05F369
:1097F00020FA04F001FA05F240EA020001F000420A
:1098000021F0004110EBD37021FA04F642EB06017F
:109810005EEA430E08BF20EAD37070BDC4F10C04A9
:10982000C4F1200500FA04F320FA05F001FA04F26D
:1098300040EA020001F0004110EBD37041F1000159
:109840005EEA430E08BF20EAD37070BDC4F1200564
:1098500000FA05F24EEA020E20FA04F301FA05F2CC
:1098600043EA020321FA04F001F0004121FA04F274
:1098700020EA020000EBD3705EEA430E08BF20EA44
:10988000D37070BD94F0000F0FD101F0004640007E
:1098900041EB010111F4801F08BF013CF7D041EA00
:1098A000060195F0000F18BF704703F00046520004
:1098B00043EB030313F4801F08BF013DF7D043EAD5
:1098C0000603704794EA0C0F0CEA135518BF95EA8B
:1098D0000C0F0CD050EA410618BF52EA4306D1D112
:1098E00081EA030101F000414FF0000070BD50EA31
:1098F000410606BF1046194652EA430619D094EABB
:109900000C0F02D150EA013613D195EA0C0F05D1A4
:1099100052EA03361CBF104619460AD181EA0301F8
:1099200001F0004141F0FE4141F470014FF00000B0
:1099300070BD41F0FE4141F4780170BD70B54FF04B
:10994000FF0C4CF4E06C1CEA11541DBF1CEA1355CB
:1099500094EA0C0F95EA0C0F00F0A7F8A4EB0504AD
:1099600081EA030E52EA03354FEA013100F08880A4
:109970004FEA03334FF0805545EA131343EA12636D
:109980004FEA022245EA111545EA10654FEA002622
:109990000EF000419D4208BF964244F1FD0404F5DB
:1099A000407402D25B084FEA3202B61A65EB030537
:1099B0005B084FEA32024FF480104FF4002CB6EBF4
:1099C000020E75EB030E22BFB61A754640EA0C0074
:1099D0005B084FEA3202B6EB020E75EB030E22BFB4
:1099E000B61A754640EA5C005B084FEA3202B6EBF5
:1099F000020E75EB030E22BFB61A754640EA9C00B4
:109A00005B084FEA3202B6EB020E75EB030E22BF83
:109A1000B61A754640EADC0055EA060E18D04FEA41
:109A2000051545EA16754FEA06164FEAC30343EAE1
:109A300052734FEAC2025FEA1C1CC0D111F4801FAE
:109A40000BD141EA00014FF000004FF0004CB6E7A7
:109A500011F4801F04BF01430020B4F1FD0C88BF46
:109A6000BCF5E06F3FF6AFAEB5EB030C04BFB6EB51
:109A7000020C5FEA500C50F1000041EB045170BD44
:109A80000EF0004E4EEA113114EB5C04C2BFD4EB71
:109A90000C0541EA045170BD41F480114FF0000EF5
:109AA000013C90E645EA060E8DE60CEA135594EA71
:109AB0000C0F08BF95EA0C0F3FF43BAF94EA0C0F74
:109AC0000AD150EA01347FF434AF95EA0C0F7FF4E9
:109AD00025AF104619462CE795EA0C0F06D152EA3D
