:02000002D0002C
:1040000000400D00A8540D00000006000C00050142
:084010000401DB0700000000C1
:044018003C520D0009
:10401C0009480A49884208B505D0094A824202D0AB
:10402C00121A01F0BBF80748074A0021121A01F0D6
:10403C00C3F8014808BD00BFD4E5032014540D009B
:10404C0040E6032040E60320F0E7032070B5074E5E
:10405C00074C00F077FFA41BA4080025A54200D153
:10406C0070BD56F8043B98470135F7E7E0530D0057
:10407C0004540D0000F014B808B500F079F8BDE850
:10408C00084000F021BF00F091BA00F097BA007818
:10409C00B0FA80F0400970470123037070470000AC
:1040AC002DE9F84300F086FE4FF4614100F072FEFA
:1040BC00002000F0CFF84FF00009804643F6972619
:1040CC000027002000F0C6F8B0EB080461EB0905EE
:1040DC00AF4208BFA64207D300F06CFE00F05EFEB4
:1040EC0010B900F003FAECE700F064FE00F056FEA5
:1040FC000121072000F096FF0121022000F092FF21
:10410C000121062000F08EFF0121052000F08AFF1E
:10411C000121042000F086FF0221002000F082FF24
:10412C00052000F063FA00F045FE074900F061FC41
:10413C0000F040FE0A220446012100F064FC2046F7
:10414C00BDE8F84300F049BC50520D0008B5012100
:10415C00072000F078FF7D2000F048FA07200021AE
:10416C0000F071FFBDE808407D2000F03FBA000070
:10417C001FB500F01FFE03681B69984700B31F4969
:10418C00684600F0C8FC00F015FE03681B699847F0
:10419C0048B100F00FFE03685B699847C1B26846EE
:1041AC0000F0E4FCEFE700F005FE154900F00EFC12
:1041BC0000F000FE009900F01CFC684600F060FC6A
:1041CC00002000F059FF88B9FFF7C0FF0D4A1378A3
:1041DC007D200133137000F009FA00F0EBFD0A4961
:1041EC0000F007FCFF21022000F059FF0021022003
:1041FC0000F029FF05B05DF804FB00BF80520D00F4
:10420C0065520D00D4E5032075520D0000210120EC
:10421C0000F050B908B5024B1B685B6C019308BDEC
:10422C004802030008B5024B1B689B6C019308BD48
:10423C004802030008B5024B1B685B68019308BD7C
:10424C001802030008B5024B1B685B69019308BD9B
:10425C001802030008B5024B1B68DB6D019308BD07
:10426C001802030008B5024B1B685B68019308BD7C
:10427C002C02030008B5024B1B689B68019308BD18
:10428C002C02030008B5024B1B68DB68019308BDC8
:10429C002C02030008B5024B1B681B69019308BD77
:1042AC002C02030008B5024B1B685B69019308BD27
:1042BC002C02030008B5024B1B689B6A019308BDD6
:1042CC002C02030008B5024B1B689B6F019308BDC1
:1042DC002C02030008B5024B1B681B6A019308BD36
:1042EC002802030008B5024B1B685B6A019308BDEA
:1042FC002802030008B5024B1B689B6A019308BD9A
:10430C002802030008B5024B1B68DB6A019308BD49
:10431C002802030008B5024B1B681B6B019308BDF8
:10432C002802030008B5024B1B685B6B019308BDA8
:10433C002802030008B5024B1B681B6C019308BDD7
:10434C002802030008B5024B1B685B69019308BD8A
:10435C006402030008B5024B1B689B68019308BDFF
:10436C006802030008B5024B1B68DB68019308BDAB
:10437C006802030008B5024B1B68DB69019308BD9A
:10438C003002030008B5024B1B681B6A019308BD81
:10439C003002030008B5024B1B681B68019308BD73
:1043AC003C02030008B5024B1B68DB68019308BD97
:1043BC003C02030008B5024B1B681B69019308BD46
:1043CC003C02030008B5024B1B685B69019308BDF6
:1043DC003C02030008B5024B1B689B69019308BDA6
:1043EC003C02030008B5024B1B68DB69019308BD56
:1043FC003C02030008B5024B1B681B6A019308BD05
:10440C003C02030008B5024B1B689B6A019308BD74
:10441C003C02030008B5024B1B681B68019308BDE6
:10442C004C02030008B5024B1B685B68019308BD86
:10443C004C02030008B5024B1B681B69019308BDB5
:10444C004C02030008B5024B1B685B69019308BD65
:10445C004C02030008B5024B1B689B69019308BD15
:10446C004C02030008B5024B1B68DB69019308BDC5
:10447C004C02030008B5024B1B681B6A019308BD74
:10448C004C02030008B5024B1B689B6A019308BDE4
:10449C004C02030008B5024B1B685B68019308BD16
:1044AC002002030008B5024B1B685B69019308BD31
:1044BC002002030008B5024B1B68DB6A019308BDA0
:1044CC002002030008B5034B1B68D3F88830019316
:1044DC0008BD00002002030008B5034B1B68D3F88D
:1044EC009430019308BD00002002030008B5024B74
:1044FC001B689B68019308BD4402030008B5024B7E
:10450C001B68DB6B019308BD4402030008B5024B2A
:10451C001B685B68019308BD4002030008B5024BA1
:10452C001B689B68019308BD4002030008B5024B51
:10453C001B68DB68019308BD4002030008B5024B01
:10454C001B681B69019308BD4002030008B5024BB0
:10455C001B685B69019308BD4002030008B5024B60
:10456C001B689B69019308BD4002030008B5024B10
:10457C001B68DB69019308BD4002030008B5024BC0
:10458C001B681B6A019308BD4002030008B5024B6F
:10459C001B681B6B019308BD4002030008B5024B5E
:1045AC001B685B6B019308BD4002030008B5024B0E
:1045BC001B681B68019308BD1C02030008B5024B65
:1045CC001B685B68019308BD1C02030008B5024B15
:1045DC001B689B68019308BD1C02030008B5024BC5
:1045EC001B685B6C019308BD1C0203000021FFF7E4
:1045FC0059BF10B50446006808B1FFF713FE2046FA
:10460C0010BD000010B5064C002320462360FFF7B8
:10461C0001FE2046034A0449BDE8104000F0A6BD47
:10462C0044E6032040E60320FF450D0010B58368E7
:10463C00044613B1032201469847204610BD0022C0
:10464C0040681146FFF79ABF002240681146FFF7F9
:10465C00A5BF40680022FFF799BF4068002281F097
:10466C000101FFF783BF002340681A461946FFF784
:10467C0075BF002340681A461946FFF767BF002232
:10468C0040681146FFF75ABF002240681146FFF7F9
:10469C0045BF406800220221FFF748BF0023406855
:1046AC001A46FFF733BF0000024B03225A60024A3E
:1046BC001A60704748E603208C520D007047F8B51D
:1046CC00064615460C468F18BC4206D0336814F8C3
:1046DC00011B9B6830469847F6E72846F8BD007CDE
:1046EC000022FFF7F7BD007C0021FFF7FBBD007C2B
:1046FC000021FFF7FFBD007C0021FFF703BE007C0B
:10470C000021FFF707BE10B51421044600F033FD5D
:10471C00204610BD10B54FF47A73044608460021AC
:10472C00C4E90113034B236020741146FFF702FE0A
:10473C00204610BDC0520D00704710B5182104461C
:10474C0000F019FD204610BDF0B5037D062B8DB091
:10475C000E4600F104074FF0000412D000F10805DA
:10476C0015F8011D0A22304600F04DF9AF42044401
:10477C0019D0002CF4D02E21304600F02BF9044433
:10478C00EEE72F236A4639460A208DF80040FFF7E2
:10479C00D9FD684600F044FD33680246DB68694683
:1047AC0030469847044620460DB0F0BD10B5054B79
:1047BC000446112240F8043B002100F0FDFC204689
:1047CC0010BD00BFE8520D000346074A10B543F870
:1047DC00042B01F1100251F8044B43F8044B9142A5
:1047EC00F9D10A781A7010BDE8520D0010B59DF879
:1047FC00084044EA032343EA024242EA01610423EB
:10480C004160037510BD13B5CB7800938B784A7853
:10481C000978FFF7EBFF02B010BD0000014B024A14
:10482C001A60704750E60320F4520D0000234068D4
:10483C001A46FFF76BBE406800220221FFF776BED6
:10484C00002240681146FFF769BE002240681146FD
:10485C00FFF774BE002340681A461946FFF776BE70
:10486C00002340681A461946FFF778BE40680022BC
:10487C0081F00101FFF77ABE40680022FFF786BE87
:10488C00002240681146FFF789BE0022406811469D
:10489C00FFF774BE2DE9F043002495B016460D4683
:1048AC000746FFF783FF214618220EA8009400F05C
:1048BC0083FC4023CDE90C3421466B460CAA3046D0
:1048CC00FFF750FD0446002846D1024601216868D6
:1048DC00FFF734FE0221804622466868FFF72EFE61
:1048EC00009E81462146002E36D0002934D17368B3
:1048FC00022B03D00A2B0BD0F669F4E7B8F1000FAA
:10490C0004D0716938460431FFF77DFF4146F3E767
:10491C00B9F1000F01D14946EEE77469102201A8E4
:10492C0000F04AFC06238DF8143001AD04F10803A5
:10493C001834186859682A4603C20833A34215462E
:10494C00F7D101A906A807ADFFF73EFF0FCD3C1D1F
:10495C000FC42B682370DEE70098FFF7FBFC38468A
:10496C0015B0BDE8F0830000024B034A1A60002228
:10497C005A60704754E6032000530D00F8B5064604
:10498C000D468F180024BD420CD0336815F8011B5E
:10499C009B6830469847031E01DB1C44F3E7002C50
:1049AC0008BF1C462046F8BD13B50446084659B14D
:1049BC00019100F035FC23680199DB680246204622
:1049CC0002B0BDE81040184702B010BD08B5FFF7A3
:1049DC00EBFF08BD03689B68184738B50D210546E9
:1049EC00FFF7F8FF0A2104462846FFF7F3FF20449F
:1049FC0038BD38B50546FFF7D7FF04462846FFF704
:104A0C00ECFF204438BD30B58BB000238DF824303A
:104A1C00012A98BF0A2209AC0D46B1FBF2F101FB49
:104A2C00125303F0FF03092B94BF30333733DBB23F
:104A3C00AA4204F8013DEFD92146FFF7B5FF0BB0B0
:104A4C0030BD10B50446FFF7F1FD204610BD000047
:104A5C000348044A04490023836000F087BB00BF6D
:104A6C005CE6032040E603204F4A0D0010B50446D7
:104A7C0008462170FFF77EFC00236360204610BDC2
:104A8C0010B504460068FFF799FD204610BD10B51F
:104A9C000446006808B1FFF791FD0023C4E9013317
:104AAC00236010BD38B504460D4600680131FFF790
:104ABC008DFD10B1C4E90005012038BD10B50368A7
:104ACC00044623B143688B4201D3012010BD20461C
:104ADC00FFF7E8FF0028F9D0A368002BF5D1226876
:104AEC001370F2E737B50D46114601920446FFF7F5
:104AFC00E5FF019A28B92046FFF7C9FF204603B00D
:104B0C0030BDA2602946206800F048FB2268A368EB
:104B1C000021D154F2E7002313B5C0E90033044659
:104B2C008360037341B10846019100F079FB019950
:104B3C0002462046FFF7D6FF204602B010BD70B5E6
:104B4C0005460E4609B9002070BD6AB1846814444C
:104B5C002146FFF7B3FF0028F5D02868AB68314633
:104B6C00184400F055FBAC600120EDE707B50023BD
:104B7C008DF80410012201A98DF80530FFF7DFFF35
:104B8C0003B05DF804FB10B50446006818B1FFF7DC
:104B9C0015FD0023236010BD10B50446FFF7F3FF8D
:104BAC00204610BD10B5094B094C022200201A609A
:104BBC00084B2060A080A071A360FFF76BFC20461F
:104BCC00054A0649BDE8104000F0D0BA78E603204B
:104BDC006CE603200000FFFF40E60320A54B0D0010
:104BEC00024B1A68024B1A60704700BFD8E50320CD
:104BFC007CE6032070474174704708B5007CFFF7D2
:104C0C0001FC20EAE07008BD08B5007CFFF7D2FB80
:104C1C0020EAE07008BD08B5007CFFF7DBFB40EA3A
:104C2C00E07008BD08B5007CFFF7CCFB40EAE070F3
:104C3C0008BD007CFFF7D6BB37B5457C04462DB1CB
:104C4C00207C03B0BDE83040FFF7ACBB007C019189
:104C5C00FFF7D8FB00280199F2DC284603B030BDE1
:104C6C0010B51421044600F086FA204610BD000051
:104C7C0010B54FF0000C0446084611464FF47A72FA
:104C8C00C4E901C2044A22600122207462741A46EB
:104C9C00FFF780FB204610BD50530D0013B50E4C92
:104CAC002178BFF35B8F11F0010112D120460191E5
:104CBC00FFF7EDF9019960B1084A094B0948FFF774
:104CCC00D7FF2046FFF7E8F9074A0849054800F0E6
:104CDC004DFA044802B010BD80E6032084E60320A0
:104CEC0008E703208CE7032040E60320014C0D006D
:104CFC0041747047704708B50021007CFFF7AAFB90
:104D0C0040EAE07008BD08B50121007CFFF7A2FB6A
:104D1C0040EAE07008BD08B5007CFFF793FB20EA81
:104D2C00E07008BD08B5007CFFF784FB20EAE0705A
:104D3C0008BD13B50446007C0191FFF783FB0028E6
:104D4C00019901DC607C20B1207CFFF78BFB20EA11
:104D5C00E07002B010BD007CFFF78CBB10B51421C5
:104D6C00044600F008FA204610BD000010B54FF4C0
:104D7C007A73044608460021C4E90113044B2360EE
:104D8C000123207463741146FFF744FB204610BDC9
:104D9C0080530D00007C0022FFF744BB007CFFF722
:104DAC0071BB10B514220446002100F005FA204610
:104DBC0010BD000010B5104C88B003A8FFF7F1FF30
:104DCC002178BFF35B8F11F0010111D120460191C5
:104DDC00FFF75DF9019958B103AA0848FFF7C6FF20
:104DEC002046FFF759F9064A0649044800F0BEF977
:104DFC00024808B010BD00BFA0E70320A4E70320C1
:104E0C0040E60320014D0D00002240681146FFF7DB
:104E1C0095BB002240681146FFF7B0BB00224068EA
:104E2C001146FFF7BBBB40680022FFF7AFBB4068E1
:104E3C00002281F00101FFF799BB002340681A465C
:104E4C001946FFF78BBB002340681A461946FFF73B
:104E5C007DBB002240681146FFF760BB4068002212
:104E6C000221FFF763BB002340681A46FFF74EBBD5
:104E7C00024B04225A60024A1A607047B8E70320BA
:104E8C00B0530D00014B1860704700BFDCE50320E8
:104E9C0008B50B4B43B1FFF78DFF03681B699847AF
:104EAC00002801DDAFF30080064B43B1FFF7F6FE9F
:104EBC0003681B699847002801DDAFF3008008BD2B
:104ECC00000000000000000008B5FFF7E1FFFFF74D
:104EDC00B9F9014B186008BDD4E703200248034A16
:104EEC000349121A00F05AB900F4032004F4032009
:104EFC0010540D0007B5002300931A466FF077018C
:104F0C00FFF7EAFA03B05DF804FB000007B543882D
:104F1C000A2B08D0502B0BD1094B1B684BB103B09B
:104F2C005DF804EB1847FFF7E5FF03B05DF804FBF1
:104F3C00002300931A466FF07701FFF7CDFAF4E7E0
:104F4C00C4E7032038B5124C1248134D0021FFF76B
:104F5C0045FB2368AB42114B0CBF012200221A7097
:104F6C0002D0FFF7BBFF2560FFF764F9044600F0A1
:104F7C002BF90B4B13B12046AFF3008000210848EE
:104F8C00FFF7BCFABDE8384006480021FFF79ABA93
:104F9C0000F40320914E0D001E1C279AC0E703203D
:104FAC0000000000194F0D00232813B502D9002072
:104FBC0002B010BDA0F10B03022B1AD8174C2178AC
:104FCC00BFF35B8F11F001010BD120460191FFF76C
:104FDC005EF8019928B11248FFF748FD2046FFF70B
:104FEC005BF80F4B1878FFF7CDF90028DFD10120C3
:104FFC00DEE7012809D800F091F80021007CFFF7CA
:10500C0091F980F00100C0B2D2E709380128EED83E
:10501C00FFF744FE007CFFF7EDF9F2E7C8E7032049
:10502C00CCE70320232838B504460D460AD8FF29BF
:10503C0008D0FFF7B9FF28B129462046BDE8384013
:10504C00FFF718B938BD38B504460D46FFF71AF905
:10505C00FF2810D0062804D84D2323FA00F0C307EC
:10506C0009D42046FFF7A0FF28B129462046BDE809
:10507C003840FFF70FB938BD10B50446FFF702F9F9
:10508C00031FDBB2012B08D92046FFF78DFF20B19F
:10509C002046BDE81040FFF705B9002010BD38B51B
:1050AC0004460D46FFF780FFF0B104212046FFF7C0
:1050BC00D9F8042805D1A9B22046BDE83840FFF73D
:1050CC00F9B802212046FFF7CDF802280CD1204672
:1050DC00FFF7D8F8012801D0042805D1294620462D
:1050EC00BDE83840FFF7EEB838BD000038B50023F6
:1050FC0020254380142304460380856005610649FE
:10510C00284600F03AF804496060284600F035F86B
:10511C00E060204638BD00BFDC530D0030B50F4DAC
:10512C002978BFF35B8F11F0010487B013D12846A7
:10513C00FEF7ADFF78B101A8FFF7D8FF01AA214611
:10514C000748FFF7E7FA2846FEF7A6FF054A064987
:10515C00034800F00BF8024807B030BDD8E7032035
:10516C00DCE7032040E60320C9460D000B46014650
:10517C00184600F005B8FEF788BFFEF784BF0000A4
:10518C0010B5054C13462CB10A4601460220AFF36C
:10519C00008010BD2046FCE7000000000A4491424C
:1051AC0000F1FF3300D1704710B511F8014B03F833
:1051BC00014F9142F9D110BD02440346934200D1F4
:1051CC00704703F8011BF9E738B50D4B1D68AB6B45
:1051DC0004467BB91820FFF7E9F90A4A0A4BA86381
:1051EC00C0E90023094B83600B2383810122002338
:1051FC00C0E90423AB6B00221C615A6138BD00BFAF
:10520C00DCE503200E33CDAB34126DE6ECDE05008D
:10521C00034611F8012B03F8012B002AF9D1704732
:10522C00034613F8012B002AFBD1181A01387047DA
:10523C001D400D0059400D0081400D0085400D00B2
:10524C0000000000436F6D706C6574656420766FB0
:10525C006964207365747570005265636569766561
:10526C00643A20415343494900425F544E20414324
:10527C0054495645000000000000000000000000EA
:10528C00A9460D009F460D0095460D008B460D005E
:10529C007F460D0073460D0067460D005F460D00FE
:1052AC0055460D004B460D00A1480D0000000000B6
:1052BC0000000000C9460D0013470D00EB460D0021
:1052CC00CB460D00F3460D00FB460D0003470D00C9
:1052DC000B470D00000000000000000055470D00BA
:1052EC0045470D0047470D0061707000000000003D
:1052FC000000000039480D0043480D004D480D00DA
:10530C0057480D0061480D006D480D0079480D009F
:10531C0085480D008D480D0097480D00A1480D00E3
:10532C0025592D256D2D25645425483A254D3A25B2
:10533C0053257A0061736374696D65000000000089
:10534C0000000000014C0D006D4C0D00454C0D0093
:10535C0089490D00154C0D00314C0D00234C0D00EE
:10536C003F4C0D00034C0D00074C0D0000000000DD
:10537C0000000000014D0D00694D0D003F4D0D006A
:10538C0089490D00314D0D00034D0D00134D0D00DD
:10539C00634D0D00234D0D00FD4C0D000000000071
:1053AC0000000000734E0D00694E0D005F4E0D00A5
:1053BC00154E0D00534E0D00474E0D003B4E0D008B
:1053CC00334E0D00294E0D001F4E0D00A1480D004F
:1053DC000000000019420D0011460D00B5460D00ED
:1053EC0029480D0075490D005D4A0D00B14B0D00AB
:1053FC00ED4B0D007D4E0D00000000000000000084
:04540C00000000009C
:045410000000000098
:10541400FF00000040530D00E0E503200000000001
:105424000000000000000000000000000000000078
:105434000000000000000000000000000000000068
:105444000000000000000000000000000000000058
:105454000000000000000000000000000000000048
:105464000000000000000000000000000000000038
:0C5474000000000000000000000000002C
:10548000FFFFFFFF00000102030405060708090AE9
:105490000B0C0D0E0F101112131415161718191AE4
:0854A0001B1C1D1E1F2028002B
:0454A80078563412EC
:04000003D000401CCD
:00000001FF
