:02000002D0002C
:1040000000400D00E8550D00000006000C00050101
:084010000401DB0700000000C1
:0440180094530D00B0
:10401C0009480A49884208B505D0094A824202D0AB
:10402C00121A01F067F90748074A0021121A01F029
:10403C006FF9014808BD00BFD4E5032054550D00AD
:10404C0040E6032040E60320F0E7032070B5074E5E
:10405C00074C01F017F8A41BA4080025A54200D1B9
:10406C0070BD56F8043B98470135F7E72C550D0009
:10407C0050550D0000F014B808B500F05DF8BDE81F
:10408C00084000F0C1BF00F025BB00F02BBB00784E
:10409C00B0FA80F0400970470123037070470000AC
:1040AC0010B500F027FF4FF4614100F013FF00F052
:1040BC0021FF00F013FF012118B9072001F052F87D
:1040CC00F5E7022001F04EF80121062001F04AF834
:1040DC000121052001F046F80121042001F042F8ED
:1040EC000021084601F03EF8052000F01FFB00F00F
:1040FC0001FF074900F01DFD00F0FCFE0A220446FA
:10410C00012100F020FD2046BDE8104000F005BD67
:10411C00A8530D0008B50121072001F034F87D20CB
:10412C0000F004FB0720002101F02DF8BDE8084049
:10413C007D2000F0FBBA000010B586B000F0DAFE6E
:10414C0003681B69984700B37F4902A800F083FD00
:10415C0000F0D0FE03681B69984748B100F0CAFE16
:10416C0003685B699847C1B202A800F09FFDEFE7B6
:10417C0000F0C0FE754900F0C9FC00F0BBFE0299CE
:10418C0000F0D7FC02A800F01BFD002001F014F891
:10419C0001286F4C07D1FFF7BDFF23787D20013339
:1041AC00237000F0C3FA23780522B3FBF2F202EB82
:1041BC0082029B1ADBB2032B00F2AD80DFE803F026
:1041CC00022B517764220021052001F01FF8642294
:1041DC000021042001F01AF864220021022001F0D1
:1041EC0015F8132000F0FBFF0446132000F0F7FF36
:1041FC00031EB8BF0F331B110093002340F6FF7250
:10420C001946204600F086FA64220146062000F08A
:10421C00FDFF06B010BD64220021062000F0F6FF61
:10422C0064220021042000F0F1FF6422002102200E
:10423C0000F0ECFF132000F0D2FF0446132000F036
:10424C00CEFF031EB8BF0F331B110093002340F6A3
:10425C00FF721946204600F05DFA642201460520E3
:10426C00D5E764220021052000F0D0FF6422002154
:10427C00062000F0CBFF64220021022000F0C6FFD4
:10428C00132000F0ACFF0446132000F0A8FF031E1F
:10429C00B8BF0F331B110093002340F6FF72194671
:1042AC00204600F037FA642201460420AFE764226E
:1042BC000021022000F0AAFF132000F090FF04461A
:1042CC00132000F08CFF031EB8BF0F331B1100939B
:1042DC000023194640F6FF72204600F01BFA6422B8
:1042EC000146062000F092FF132000F078FF0446F0
:1042FC00132000F074FF031EB8BF0F331B11009383
:10430C00002340F6FF721946204600F003FA64229F
:10431C0001460520B2E764220021052000F076FF5B
:10432C0064220021062000F071FF64220021042089
:10433C0000F06CFF132000F052FF0028B8BF0F30C4
:10434C0001116422022062E7CC530D00BD530D0015
:10435C00D4E503200021012000F048B908B5024B38
:10436C001B685B6C019308BD4802030008B5024B47
:10437C001B689B6C019308BD4802030008B5024BF7
:10438C001B685B68019308BD1802030008B5024B5B
:10439C001B685B69019308BD1802030008B5024B4A
:1043AC001B685B68019308BD2C02030008B5024B27
:1043BC001B689B68019308BD2C02030008B5024BD7
:1043CC001B68DB68019308BD2C02030008B5024B87
:1043DC001B681B69019308BD2C02030008B5024B36
:1043EC001B685B69019308BD2C02030008B5024BE6
:1043FC001B681B6B019308BD2C02030008B5024B14
:10440C001B68DB6F019308BD2C02030008B5024B3F
:10441C001B681B6A019308BD2802030008B5024BF8
:10442C001B685B6A019308BD2802030008B5024BA8
:10443C001B689B6A019308BD2802030008B5024B58
:10444C001B68DB6A019308BD2802030008B5024B08
:10445C001B681B6B019308BD2802030008B5024BB7
:10446C001B685B6B019308BD2802030008B5024B67
:10447C001B681B6C019308BD2802030008B5024B96
:10448C001B685B69019308BD6402030008B5024B0D
:10449C001B689B68019308BD6802030008B5024BBA
:1044AC001B68DB68019308BD6802030008B5024B6A
:1044BC001B68DB69019308BD3002030008B5024B91
:1044CC001B681B6A019308BD3002030008B5024B40
:1044DC001B681B68019308BD3C02030008B5024B26
:1044EC001B68DB68019308BD3C02030008B5024B56
:1044FC001B681B69019308BD3C02030008B5024B05
:10450C001B685B69019308BD3C02030008B5024BB4
:10451C001B689B69019308BD3C02030008B5024B64
:10452C001B68DB69019308BD3C02030008B5024B14
:10453C001B681B6A019308BD3C02030008B5024BC3
:10454C001B689B6A019308BD3C02030008B5024B33
:10455C001B681B68019308BD4C02030008B5024B95
:10456C001B685B68019308BD4C02030008B5024B45
:10457C001B681B69019308BD4C02030008B5024B74
:10458C001B685B69019308BD4C02030008B5024B24
:10459C001B689B69019308BD4C02030008B5024BD4
:1045AC001B68DB69019308BD4C02030008B5024B84
:1045BC001B681B6A019308BD4C02030008B5024B33
:1045CC001B689B6A019308BD4C02030008B5024BA3
:1045DC001B685B68019308BD2002030008B5024B01
:1045EC001B685B69019308BD2002030008B5024BF0
:1045FC001B68DB6A019308BD2002030008B5034B5E
:10460C001B68D3F88830019308BD0000200203001A
:10461C0008B5034B1B68D3F89430019308BD000018
:10462C002002030008B5024B1B68DB6B019308BD2D
:10463C004402030008B5024B1B685B68019308BD7C
:10464C004002030008B5024B1B689B68019308BD30
:10465C004002030008B5024B1B68DB68019308BDE0
:10466C004002030008B5024B1B681B69019308BD8F
:10467C004002030008B5024B1B685B69019308BD3F
:10468C004002030008B5024B1B689B69019308BDEF
:10469C004002030008B5024B1B68DB69019308BD9F
:1046AC004002030008B5024B1B681B6A019308BD4E
:1046BC004002030008B5024B1B681B6B019308BD3D
:1046CC004002030008B5024B1B685B6B019308BDED
:1046DC004002030008B5024B1B681B68019308BD20
:1046EC001C02030008B5024B1B685B68019308BDF4
:1046FC001C02030008B5024B1B689B68019308BDA4
:10470C001C02030008B5024B1B685B6C019308BDCF
:10471C001C0203008A4210B507D0029C401AE41A0E
:10472C006043521A90FBF2F0184410BD0021FFF7C1
:10473C0055BF10B50446006808B1FFF717FE2046B8
:10474C0010BD000010B5064C002320462360FFF777
:10475C0005FE2046034A0449BDE8104000F0B2BDF6
:10476C0044E6032040E603203F470D0010B5836864
:10477C00044613B1032201469847204610BD00227F
:10478C0040681146FFF78EBF002240681146FFF7C4
:10479C0099BF40680022FFF78DBF4068002281F06E
:1047AC000101FFF777BF002340681A461946FFF74F
:1047BC0069BF002340681A461946FFF75BBF002209
:1047CC0040681146FFF74EBF002240681146FFF7C4
:1047DC0039BF406800220221FFF73CBF002340682C
:1047EC001A46FFF727BF0000024B03225A60024A09
:1047FC001A60704748E60320D8530D007047F8B58F
:10480C00064615460C468F18BC4206D0336814F881
:10481C00011B9B6830469847F6E72846F8BD007C9C
:10482C000022FFF7F3BD007C0021FFF7F7BD007CF1
:10483C000021FFF7FBBD007C0021FFF7FFBD007CD2
:10484C000021FFF703BE10B51421044600F03FFD14
:10485C00204610BD10B54FF47A730446084600216B
:10486C00C4E90113034B236020741146FFF7FEFDCE
:10487C00204610BD0C540D00704710B5182104468D
:10488C0000F025FD204610BDF0B5037D062B8DB044
:10489C000E4600F104074FF0000412D000F1080599
:1048AC0015F8011D0A22304600F04DF9AF420444C0
:1048BC0019D0002CF4D02E21304600F02BF90444F2
:1048CC00EEE72F236A4639460A208DF80040FFF7A1
:1048DC00D5FD684600F050FD33680246DB6869463A
:1048EC0030469847044620460DB0F0BD10B5054B38
:1048FC000446112240F8043B002100F009FD20463B
:10490C0010BD00BF34540D000346074A10B543F8E0
:10491C00042B01F1100251F8044B43F8044B914263
:10492C00F9D10A781A7010BD34540D0010B59DF8E9
:10493C00084044EA032343EA024242EA01610423A9
:10494C004160037510BD13B5CB7800938B784A7812
:10495C000978FFF7EBFF02B010BD0000014B024AD3
:10496C001A60704750E6032040540D000023406845
:10497C001A46FFF75FBE406800220221FFF76ABEAD
:10498C00002240681146FFF75DBE002240681146C8
:10499C00FFF768BE002340681A461946FFF76ABE47
:1049AC00002340681A461946FFF76CBE4068002287
:1049BC0081F00101FFF76EBE40680022FFF77ABE5E
:1049CC00002240681146FFF77DBE00224068114668
:1049DC00FFF768BE2DE9F043002495B016460D464E
:1049EC000746FFF783FF214618220EA8009400F01B
:1049FC008FFC4023CDE90C3421466B460CAA304683
:104A0C00FFF74CFD0446002846D102460121686898
:104A1C00FFF728FE0221804622466868FFF722FE37
:104A2C00009E81462146002E36D0002934D1736871
:104A3C00022B03D00A2B0BD0F669F4E7B8F1000F68
:104A4C0004D0716938460431FFF77DFF4146F3E726
:104A5C00B9F1000F01D14946EEE77469102201A8A3
:104A6C0000F056FC06238DF8143001AD04F1080358
:104A7C001834186859682A4603C20833A3421546ED
:104A8C00F7D101A906A807ADFFF73EFF0FCD3C1DDE
:104A9C000FC42B682370DEE70098FFF7F7FC38464D
:104AAC0015B0BDE8F0830000024B034A1A600022E7
:104ABC005A60704754E603204C540D00F8B5064676
:104ACC000D468F180024BD420CD0336815F8011B1D
:104ADC009B6830469847031E01DB1C44F3E7002C0F
:104AEC0008BF1C462046F8BD13B50446084659B10C
:104AFC00019100F041FC23680199DB6802462046D5
:104B0C0002B0BDE81040184702B010BD08B5FFF761
:104B1C00EBFF08BD03689B68184738B50D210546A7
:104B2C00FFF7F8FF0A2104462846FFF7F3FF20445D
:104B3C0038BD38B50546FFF7D7FF04462846FFF7C2
:104B4C00ECFF204438BD30B58BB000238DF82430F9
:104B5C00012A98BF0A2209AC0D46B1FBF2F101FB08
:104B6C00125303F0FF03092B94BF30333733DBB2FE
:104B7C00AA4204F8013DEFD92146FFF7B5FF0BB06F
:104B8C0030BD10B50446FFF7F1FD204610BD000006
:104B9C000348044A04490023836000F093BB00BF20
:104BAC005CE6032040E603208F4B0D0010B5044655
:104BBC0008462170FFF77AFC00236360204610BD85
:104BCC0010B504460068FFF78DFD204610BD10B5EA
:104BDC000446006808B1FFF785FD0023C4E90133E2
:104BEC00236010BD38B504460D4600680131FFF74F
:104BFC0081FD10B1C4E90005012038BD10B5036872
:104C0C00044623B143688B4201D3012010BD2046DA
:104C1C00FFF7E8FF0028F9D0A368002BF5D1226834
:104C2C001370F2E737B50D46114601920446FFF7B3
:104C3C00E5FF019A28B92046FFF7C9FF204603B0CB
:104C4C0030BDA2602946206800F054FB2268A3689E
:104C5C000021D154F2E7002313B5C0E90033044618
:104C6C008360037341B10846019100F085FB019903
:104C7C0002462046FFF7D6FF204602B010BD70B5A5
:104C8C0005460E4609B9002070BD6AB1846814440B
:104C9C002146FFF7B3FF0028F5D02868AB683146F2
:104CAC00184400F061FBAC600120EDE707B5002370
:104CBC008DF80410012201A98DF80530FFF7DFFFF4
:104CCC0003B05DF804FB10B50446006818B1FFF79B
:104CDC0009FD0023236010BD10B50446FFF7F3FF58
:104CEC00204610BD10B5094B094C022200201A6059
:104CFC00084B2060A080A071A360FFF767FC2046E2
:104D0C00054A0649BDE8104000F0DCBA78E60320FD
:104D1C006CE603200000FFFF40E60320E54C0D008D
:104D2C00024B1A68024B1A60704700BFD8E503208B
:104D3C007CE6032070474174704708B5007CFFF790
:104D4C00FDFB20EAE07008BD08B5007CFFF7CEFB48
:104D5C0020EAE07008BD08B5007CFFF7D7FB40EAFD
:104D6C00E07008BD08B5007CFFF7C8FB40EAE070B6
:104D7C0008BD007CFFF7D2BB37B5457C04462DB18E
:104D8C00207C03B0BDE83040FFF7A8BB007C01914C
:104D9C00FFF7D4FB00280199F2DC284603B030BDA4
:104DAC0010B51421044600F092FA204610BD000004
:104DBC0010B54FF0000C0446084611464FF47A72B9
:104DCC00C4E901C2044A22600122207462741A46AA
:104DDC00FFF77CFB204610BD9C540D0013B50E4C08
:104DEC002178BFF35B8F11F0010112D120460191A4
:104DFC00FFF74DF9019960B1084A094B0948FFF7D3
:104E0C00D7FF2046FFF748F9074A0849054800F044
:104E1C0059FA044802B010BD80E6032084E6032052
:104E2C0008E703208CE7032040E60320414D0D00EA
:104E3C0041747047704708B50021007CFFF7A6FB52
:104E4C0040EAE07008BD08B50121007CFFF79EFB2D
:104E5C0040EAE07008BD08B5007CFFF78FFB20EA44
:104E6C00E07008BD08B5007CFFF780FB20EAE0701D
:104E7C0008BD13B50446007C0191FFF77FFB0028A9
:104E8C00019901DC607C20B1207CFFF787FB20EAD4
:104E9C00E07002B010BD007CFFF788BB10B5142188
:104EAC00044600F014FA204610BD000010B54FF473
:104EBC007A73044608460021C4E90113044B2360AD
:104ECC000123207463741146FFF740FB204610BD8C
:104EDC00CC540D00007C0022FFF740BB007CFFF798
:104EEC006DBB10B514220446002100F011FA2046C7
:104EFC0010BD000010B5104C88B003A8FFF7F1FFEF
:104F0C002178BFF35B8F11F0010111D12046019183
:104F1C00FFF7BDF8019958B103AA0848FFF7C6FF7F
:104F2C002046FFF7B9F8064A0649044800F0CAF9CA
:104F3C00024808B010BD00BFA0E70320A4E703207F
:104F4C0040E60320414E0D00002240681146FFF759
:104F5C0089BB002240681146FFF7A4BB00224068C1
:104F6C001146FFF7AFBB40680022FFF7A3BB4068B8
:104F7C00002281F00101FFF78DBB002340681A4627
:104F8C001946FFF77FBB002340681A461946FFF706
:104F9C0071BB002240681146FFF754BB40680022E9
:104FAC000221FFF757BB002340681A46FFF742BBAC
:104FBC00024B04225A60024A1A607047B8E7032079
:104FCC00FC540D00014B1860704700BFDCE503205A
:104FDC0008B50B4B43B1FFF78DFF03681B6998476E
:104FEC00002801DDAFF30080064B43B1FFF7F6FE5E
:104FFC0003681B699847002801DDAFF3008008BDEA
:10500C00000000000000000008B5FFF7E1FFFFF70B
:10501C00BDF9014B186008BDD4E703200248034AD0
:10502C000349121A00F066B900F4032004F40320BB
:10503C0050550D0007B5002300931A466FF0770109
:10504C00FFF7E6FA03B05DF804FB000007B54388F0
:10505C000A2B08D0502B0BD1094B1B684BB103B05A
:10506C005DF804EB1847FFF7E5FF03B05DF804FBB0
:10507C00002300931A466FF07701FFF7C9FAF4E7A3
:10508C00C4E7032038B5124C1248134D0021FFF72A
:10509C0039FB2368AB42114B0CBF012200221A7062
:1050AC0002D0FFF7BBFF2560FFF768F9044600F05C
:1050BC0037F90B4B13B12046AFF3008000210848A1
:1050CC00FFF7B0FABDE8384006480021FFF796BA62
:1050DC0000F40320D14F0D001E1C279AC0E70320BB
:1050EC000000000059500D00232813B502D90020F0
:1050FC0002B010BDA0F10B03022B1AD8174C21786B
:10510C00BFF35B8F11F001010BD120460191FEF72B
:10511C00BEFF019928B11248FFF748FD2046FEF763
:10512C00BBFF0F4B1878FFF7C9F90028DFD101201E
:10513C00DEE7012809D800F09DF80021007CFFF77C
:10514C008DF980F00100C0B2D2E709380128EED801
:10515C00FFF744FE007CFFF7E9F9F2E7C8E703200C
:10516C00CCE70320232838B504460D460AD8FF297E
:10517C0008D0FFF7B9FF28B129462046BDE83840D2
:10518C00FFF714B938BD38B504460D46FFF716F9CC
:10519C00FF2810D0062804D84D2323FA00F0C307AB
:1051AC0009D42046FFF7A0FF28B129462046BDE8C8
:1051BC003840FFF70BB938BD10B50446FFF7FEF8C1
:1051CC00031FDBB2012B08D92046FFF78DFF20B15E
:1051DC002046BDE81040FFF701B9002010BD0D2896
:1051EC0010B504469CBF0E34A4B22046FFF77CFFDA
:1051FC0050B103212046FFF7D1F8032804D12046F3
:10520C00BDE81040FFF7F2B8002010BD70B50446A1
:10521C000D461646FFF768FF98B102212046FFF7AE
:10522C00BDF802280DD12046FFF7C8F8012801D09F
:10523C00042806D1324629462046BDE87040FFF7C7
:10524C00DDB870BD38B500232025438014230446F7
:10525C000380856005610649284600F03AF8044948
:10526C006060284600F035F8E060204638BD00BF8D
:10527C0028550D0030B50F4D2978BFF35B8F11F019
:10528C00010487B013D12846FEF701FF78B101A8BD
:10529C00FFF7D8FF01AA21460748FFF7DBFA28469B
:1052AC00FEF7FAFE054A0649034800F00BF80248DF
:1052BC0007B030BDD8E70320DCE7032040E603202D
:1052CC0009480D000B460146184600F005B8FEF7DC
:1052DC00DCBEFEF7D8BE000010B5054C13462CB151
:1052EC000A4601460220AFF3008010BD2046FCE7C1
:1052FC00000000000A44914200F1FF3300D17047D6
:10530C0010B511F8014B03F8014F9142F9D110BDC2
:10531C0002440346934200D1704703F8011BF9E79E
:10532C0038B50D4B1D68AB6B04467BB91820FFF7E5
:10533C00D1F90A4A0A4BA863C0E90023094B8360E0
:10534C000B23838101220023C0E90423AB6B0022D1
:10535C001C615A6138BD00BFDCE503200E33CDABB8
:10536C0034126DE6ECDE0500034611F8012B03F850
:10537C00012B002AF9D17047034613F8012B002AA0
:10538C00FBD1181A013870471D400D0059400D0013
:10539C0081400D0085400D0000000000436F6D70D2
:1053AC006C6574656420766F6964207365747570C0
:1053BC000052656365697665643A204153434949F7
:1053CC00000000000000000000000000E9470D0094
:1053DC00DF470D00D5470D00CB470D00BF470D0033
:1053EC00B3470D00A7470D009F470D0095470D00D3
:1053FC008B470D00E1490D0000000000000000008B
:10540C0009480D0053480D002B480D000B480D00AA
:10541C0033480D003B480D0043480D004B480D0030
:10542C00000000000000000095480D0085480D00AC
:10543C0087480D0061707000000000000000000043
:10544C0079490D0083490D008D490D0097490D00D8
:10545C00A1490D00AD490D00B9490D00C5490D001C
:10546C00CD490D00D7490D00E1490D0025592D25D9
:10547C006D2D25645425483A254D3A2553257A003F
:10548C0061736374696D650000000000000000002A
:10549C00414D0D00AD4D0D00854D0D00C94A0D005F
:1054AC00554D0D00714D0D00634D0D007F4D0D00E0
:1054BC00434D0D00474D0D000000000000000000A2
:1054CC00414E0D00A94E0D007F4E0D00C94A0D0036
:1054DC00714E0D00434E0D00534E0D00A34E0D00AA
:1054EC00634E0D003D4E0D0000000000000000005A
:1054FC00B34F0D00A94F0D009F4F0D00554F0D00E0
:10550C00934F0D00874F0D007B4F0D00734F0D0017
:10551C00694F0D005F4F0D00E1490D0000000000C8
:10552C0061430D0051470D00F5470D0069490D0011
:10553C00B54A0D009D4B0D00F14C0D002D4D0D008D
:04554C00BD4F0D0042
:045550000000000057
:10555400FF0000008C540D00E0E503200000000073
:105564000000000000000000000000000000000037
:105574000000000000000000000000000000000027
:105584000000000000000000000000000000000017
:105594000000000000000000000000000000000007
:1055A40000000000000000000000000000000000F7
:0C55B400000000000000000000000000EB
:1055C000FFFFFFFF00000102030405060708090AA8
:1055D0000B0C0D0E0F101112131415161718191AA3
:0855E0001B1C1D1E1F202800EA
:0455E80078563412AB
:04000003D000401CCD
:00000001FF
