:02000002D0002C
:1040000000400D0018980D00000006000C0005018E
:084010000401DB0700000000C1
:04401800508F0D00B8
:1040200009480A49884208B505D0094A824202D0A7
:10403000121A04F0D3FE0748074A0021121A04F0AE
:10404000DBFE014808BD00BFF4E2032084970D00A9
:1040500060E3032060E30320F0E7032070B5074E20
:10406000074C02F0C1FDA41BA4080025A54200D105
:1040700070BD56F8043B98470135F7E754970D009B
:1040800078970D0000F044BC08B500F0D9FBBDE8FE
:10409000084002F06BBD01F0F1BC01F0EFBC01F093
:1040A000F5BC0078B0FA80F0400970470123037036
:1040B000704710B52DED048B90ED1E8AB0EE480AC6
:1040C000044602F09BFFF0EE408AB0EE480A02F090
:1040D000DDFFD4ED1D9AB0EE408AB0EE690A02F021
:1040E0008DFFB0EE409AB0EE690A02F0CFFF94ED7A
:1040F0000A7AD4ED096A67EE080AF0EE407A60EEBB
:10410000800A94ED0B0A28EE408AE6EE890AA7EEB3
:10411000288A60EE286AB1EE480AE6EEA70A03F0A4
:104120005FF8BDEC048B84ED1F0A10BD70B52DED5A
:10413000028B00F1E00600F1EC058CB02A46314616
:10414000044600F053FEF6EE008A20EE680A2A4686
:1041500003A920468DED010A00F083FE9DED010AC2
:10416000324606A9204600F07CFE03AA33461146DB
:10417000204600F089FE06AA2B461146204600F094
:1041800083FE06AB03AA09A9204600F03FFE03AA5E
:104190001146204600F02AFEB0EE088A38EE400AAA
:1041A00003AA20EE280A3146204600F05AFE06AA4D
:1041B0001146204600F01AFE38EE400A06AA20EE0C
:1041C000280A2946204600F04CFE09AA114620463E
:1041D00000F00CFE38EE400A09AA20EE280A04F18D
:1041E000F801204600F03DFE0CB0BDEC028B70BD26
:1041F0002DE9F0412DED048B90ED210AD0ED207AD0
:10420000DFED468A20EE000A0446A7EEA70A04F175
:10421000C80504F1F808D0ED227AA7EEA70A02F04B
:10422000E1FFF7EE007A9FED3E7ADFED3E0AF0EE19
:10423000676AE0EE476A204604F1A407B0EE670A19
:10424000F5EEC06AF1EE10FAB0EE667AF0EE007AA2
:10425000D8BFB1EE667AB7EE001AA7EE670A00F093
:10426000BFFF434604F1800229462046B0EE408A53
:1042700000F0CCFD9FED2C0A2A4628EE000A3946B4
:10428000204600F0EEFD28EE280A2A46204604F1DA
:10429000B005264900F0E5FD244B2A462946204674
:1042A00000F0F2FD94ED1F9AB0EE490A02F0A6FE6E
:1042B000B0EE408AB0EE490A02F0E8FE94ED3B7A97
:1042C000D4ED387A27EE487A04F1D406A7EE807A46
:1042D000424631462046B0EE470A00F0C2FD9FED4F
:1042E000140A14493246204600F0BBFD114B3A46F1
:1042F0003946204600F0C8FD324620460B49B0EE54
:10430000680A00F0AEFDBDEC048B2A462946204623
:10431000064BBDE8F04100F0B7BD00BFACC5A73704
:104320000000803B000000000AD7A33C64E30320A8
:104330009A99993F70E3032038B50446406D04F024
:104340009FF945A3D3E9002304F0F2F904F0E8FC57
:10435000C4F88C00A06D04F093F93FA3D3E90023C7
:1043600004F0E6F904F0DCFCC4F89000E06D04F021
:1043700087F939A3D3E9002304F0DAF904F0D0FC7B
:104380002368C4F880306368C4F8843004F1BC0545
:10439000A368C4F89400C4F8883004F18C0204F1D6
:1043A000B0032946204600F06FFD04F1A4032A461D
:1043B00004F19801204600F067FDD4ED557AD4ED64
:1043C000286A27EEE67A67EEA66A84ED427A94EDD3
:1043D000277AC4ED446A27EE876AD4ED266A84ED15
:1043E000436A27EEC77A27EEE66A67EEA67A0023CD
:1043F000C4F80431C4F81431C4F8243184ED466A99
:1044000004F5947384ED477AC4ED487A04F582721A
:1044100004F1E001204600F044FD04F12403D4ED52
:10442000387A94ED4A7A77EE877A94ED4B7AC4ED38
:10443000387AD4ED397A77EE877A94ED4C7AC4EDF8
:10444000397AD4ED3A7A77EE877A0C34C4ED377A3C
:10445000A342E4D138BD00BF01FFA8C4D4E4533F58
:1044600010B590ED3E0A044602F05AFEB1EE400A45
:10447000D4ED400A84ED1D0A94ED3F0A02F0B0FE2F
:10448000D4ED380A84ED1E0A94ED3B0A02F0A8FE32
:1044900084ED1C0A10BD00002DE9F04104460D46D4
:1044A00000293ED102F0D8FA6749684E684F02F001
:1044B00039F8F4EC017A94ED027AF4EEC77A94EDCF
:1044C000057AF1EE10FAF4EEC77A48BFC4ED027A2D
:1044D000F1EE10FAC8BFC4ED057A02F0BDFA94ED12
:1044E000020A022102F022F902F0B6FA314602F085
:1044F00019F802F0B1FA94ED050A022102F016F95A
:10450000022D09D002F0A8FA394602F00BF8013565
:10451000032DCED1BDE8F08102F09EFA02F009F839
:10452000F5E701293FD102F097FA4A49474E484F33
:1045300001F0F8FF24340025F4EC017A94ED027ABE
:10454000F4EEC77A94ED057AF1EE10FAF4EEC77A3C
:1045500048BFC4ED027AF1EE10FAC8BFC4ED057A87
:1045600002F07AFA94ED020A022102F0DFF802F07A
:1045700073FA314601F0D6FF02F06EFA94ED050AA7
:10458000022102F0D3F8022D08D002F065FA394674
:1045900001F0C8FF0135032DCED1BBE702F05CFA74
:1045A00001F0C7FFF6E70229B4D1D0ED187A90EDFB
:1045B000157AC36E254FDFF8988077EE877A90EDF5
:1045C000167AC0ED187AD0ED197A77EE877A90EDE9
:1045D000177AC0ED197AD0ED1A7A77EE877A01331F
:1045E000C0ED1A7AC36602F037FA1B4901F09AFF50
:1045F00004F15406002502F02FFAB6EC010A02215C
:1046000002F094F802F028FA394601F08BFF02F02C
:1046100023FAD4ED1B7A96ED020AF8EEE77A02212E
:1046200080EE270A02F082F8022D08D002F014FA78
:10463000414601F077FF0135032DDCD16AE702F036
:104640000BFA01F076FFF6E7648F0D007D8F0D0009
:104650000F930D007F8F0D00978F0D0070B5104DDB
:10466000104E86B00446A86804F00AF8CDE90401AB
:10467000686804F005F8CDE90201286804F000F844
:10468000094ACDE900014FF48071304601F00EFA7D
:104690003146204602F0C3F8204606B070BD00BF88
:1046A0008CE3032098E30320BD8F0D0070B5104DFF
:1046B000104E86B00446A86803F0E2FFCDE904017D
:1046C000686803F0DDFFCDE90201286803F0D8FF38
:1046D000094ACDE900014FF48071304601F0E6F956
:1046E0003146204602F09BF8204606B070BD00BF60
:1046F00024E6032098E30320BD8F0D0070B5104D14
:10470000104E86B00446A86803F0BAFFCDE9040154
:10471000686803F0B5FFCDE90201286803F0B0FF37
:10472000094ACDE900014FF48071304601F0BEF92D
:104730003146204602F073F8204606B070BD00BF37
:1047400098E4032098E30320BD8F0D0030B5144B8F
:10475000144D89B00446186803F092FFCDE90601B4
:10476000114B186803F08CFFCDE904010F4B18685A
:1047700003F086FFCDE902010D4B186803F080FFBE
:104780000C4ACDE900014FF48071284601F08EF902
:104790002946204602F043F8204609B030BD00BF4C
:1047A000A4E4032098E3032034E6032030E603204A
:1047B00040E60320B78F0D0010B50446006808B12D
:1047C00001F064F9204610BD30B585B003461446AB
:1047D00068460D4698470298206001F04FF928601E
:1047E00050B12268009904F0F9FA0024684601F0FB
:1047F000CBFF204605B030BD004CF7E7FCFEFFFFC5
:1048000038B50468002001F095F820B1637813B939
:1048100001F0BCF8FAE76378BFF35B8F651C0BB956
:10482000002038BD002001F085F820B12B7813B9A5
:1048300001F0ACF8FAE72378012BF1D1207BF0E707
:1048400030B585B000F02EFF214B1860214B1B685E
:1048500003F57A73834202D21F4800F075FA0220F2
:1048600002F05CFA002831D10121072002F03DFA64
:104870001A4B1B4A1B781B498DF8003002A83C23B9
:1048800001F0D4FA02A8FFF7BBFF039C05467CB1F8
:104890006368013B63605BB9236820469B68984767
:1048A000A368013BA3601BB923682046DB689847D7
:1048B00025B102F0D1F80C4901F047FE40F2E93091
:1048C00001F01CF90021072002F00FFA05B030BDFD
:1048D00038E603203CE60320A8E4032088E3032015
:1048E000CF8F0D0003900D0014900D001FB5002315
:1048F000CDE901330C23ADF80430044B03930422BB
:1049000001AB01F03BF805B05DF804FBC9470D00B1
:104910002DE9F743002304223149324801F02EF8F3
:1049200031493248FFF7E2FF31493248FFF7DEFFF5
:1049300031493248FFF7DAFF002431493148FFF7A7
:10494000D5FF0123224630493048CDE9004401F02B
:1049500035F802F081F84FF4614102F06DF820461D
:1049600000F0A8FE43F6972805464FF00009002006
:1049700000F0A0FE461B61EB0407B94508BFB04537
:1049800007D302F069F802F05BF810B900F0FEFFFF
:10499000EDE702F061F802F053F81D4B1A681D4B69
:1049A000012107201A6002F08FF90121062002F090
:1049B0008BF90121052002F087F90121042002F082
:1049C00083F90221084602F07FF9052001F096F8EC
:1049D00002F042F8104903B0BDE8F04301F0B5BD64
:1049E0001E900D0027900D005D460D00E0900D001B
:1049F000AD460D00FC900D00FD460D0030900D0001
:104A00004D470D003A900D00214B0D0003900D0015
:104A100038E603203CE6032050900D002DE9F74FC7
:104A2000D0E9009AAAEB0904E310394C5C43394BF6
:104A30009C420E468046114602D1374802F0D1F919
:104A4000012C224638BF0122A418A6EB09020092CD
:104A50005CD254B19C4228BF1C461820604301918F
:104A6000FFF719FB0199074600E02746009BF8185D
:104A700001D002F0A9FA3D46CB465E450BD01DB1F0
:104A80005946284602F0A0FA584602F087FA0BF180
:104A9000180B1835F1E7009B204D4FEAD30B05FBAF
:104AA0000BFB2BF060464FF0180B0BFB06FB09EBE2
:104AB0000B030BF1180BBB445A461E4656450DD04E
:104AC000314610460193009202F07EFA304602F021
:104AD00065FA009A019B18361832EFE7F61AF608C5
:104AE0006E4326F06046182505FB06B6B9F1000FA7
:104AF00002D04846FFF7D3FA182000FB0474C8E937
:104B00000076C8F8084003B0BDE8F08F1C46A4E763
:104B1000ABAAAAAA5555550565900D00ABAAAA0ADD
:104B2000F0B58DB000AF00230846C7E903337B61C1
:104B3000796004F0B2F9073020F00700ADEB000D0A
:104B400079683D4D684604F083F93B49684604F0B6
:104B5000ADF90446002C3CD007F120032046BB6190
:104B600004F09BF90F2804EB0006B86009D9002275
:104B700007F1080107F1180002F0EEF9BB68B8610F
:104B80003B62B8693246214602F019FABB68BA693D
:104B9000FB610021D154D7E90403984211D018B128
:104BA00007F1180102F010FA3B6918333B6107F175
:104BB000180002F0F3F92946002004F077F90446C2
:104BC000C8E7014607F1180207F10C00FFF726FFBE
:104BD000EDE71A4D1826D7E903239B1ADB106B4328
:104BE000A34213D901F038FFD7E90332D21AD21009
:104BF0006A43A24203D81248214602F0F5F806FBA8
:104C000004F20134995801F0A0FCE4E701F024FF1C
:104C10000C4901F09AFCD7E90345A54204D020468F
:104C200002F0BCF91834F8E7F86808B1FFF737FA72
:104C30003437BD46F0BD00BF7F900D00ABAAAAAAD5
:104C400081900D00CB900D0038B50D4B0D480E4CEA
:104C500000251D7000F0F6F92946012000F062FEE3
:104C60000A4B25600120A580A571A36000F04AFED3
:104C70002046074A0749BDE8384002F0A3B800BF04
:104C800088E30320A8E403207CE303200000FFFF67
:104C900060E30320B9470D0010B5044600F078FC2E
:104CA000204600F001FB2046BDE8104000F09EBB0E
:104CB0009FED147AD0ED007A67EE877AC0ED007A26
:104CC000D0ED017A67EE877AC0ED017AD0ED027AF5
:104CD00067EE877A9FED0C7AC0ED027AD0ED097A03
:104CE00067EE877AC0ED097AD0ED0A7A67EE877AA7
:104CF000C0ED0A7AD0ED0B7A67EE877AC0ED0B7AB9
:104D0000704700BF6F12833FABAA2A3E90F8603114
:104D10009BB1034600F10C0153F8042B5A619A60D1
:104D20008B421A6A9A63DA62F6D100230022C266C5
:104D300083664366036680F860217047002180F82F
:104D40005811072001F0D1BF10B5044600F0AAFCAD
:104D5000D4F84C31C01A132843D9C4F8503100F0AC
:104D6000A1FCD4F85031C4F84C0183423DBFC01AB5
:104D700007EE900ADFED1B6A9FED1B7A38BFF8EE55
:104D8000677A204638BF87EEA67A84ED557AFFF71A
:104D900083FFD4F870317BB92046FFF7B7FF94F852
:104DA000583113B994F85931DBB1D4F85C1120466D
:104DB000BDE81040FFF770BB012B12D12046FFF772
:104DC00077FFFFF776F92046FFF7B6FA2046FFF7A0
:104DD000ADF92046FFF70CFA2046BDE81040FFF77A
:104DE0003FBB10BD00007A44000000009FED060AA2
:104DF00001F10C03B1EC017AF2EC017A9942A7EED1
:104E0000270AF7D1704700BF0000000092ED027A38
:104E1000D3ED017AD2ED016A67EEC77A93ED027A9B
:104E2000E6EE877AC1ED007A92ED007AD3ED027A50
:104E3000D2ED026A67EEC77A93ED007AE6EE877AE2
:104E4000C1ED017A92ED017AD3ED007AD2ED006ADC
:104E500067EEC77A93ED017AE6EE877AC1ED027AC2
:104E60007047D2ED007A67EE807AC1ED007AD2ED1C
:104E7000017A67EE807AC1ED017AD2ED027A27EEEF
:104E8000800A81ED020A704702F10C00F2EC017A0F
:104E9000B3EC017A77EE877A8242E1EC017AF5D1C0
:104EA000704770B501F1240502F10C0610461C464E
:104EB000B0EC017AD1ED017AD0ED026A67EEA67A04
:104EC000D1ED006AE6EE877A8642D1ED026A90ED76
:104ED000057AE6EE877AE4EC017AE9D10C318D426D
:104EE00003F10C03E2D170BD10B52DED068BF0EE91
:104EF00040AAB0EE410A0C46B0EE608AF0EE418A5C
:104F000002F07CF8B0EE409AB0EE680A02F0BEF80B
:104F1000F0EE409AB0EE480A02F070F8B0EE40AA07
:104F2000B0EE480A02F0B2F8F0EE408AB0EE6A0A3B
:104F300002F064F8B0EE408AB0EE6A0A02F0A6F819
:104F40006AEE087A20EE497AC4ED007A69EE887A32
:104F500029EE088AA7EEA87A84ED017A28EE287A4D
:104F6000A9EE807A84ED027A2AEE007A84ED037A43
:104F700029EEA87A69EE8A9AA7EE008A29EE287AA5
:104F800029EE0A9AF1EE688A84ED048AC4ED068A55
:104F9000C4ED079A84ED089ABDEC068BD7EE007A33
:104FA000C4ED057A10BD10B52DED028B8AB04FF01F
:104FB0007E5304460793002308930993FFF76CFE82
:104FC00000F070FB94ED020AD4ED017AC4F84C01B4
:104FD00020EE000A94ED008AA7EEA70A02F002F97B
:104FE000F0EE400AB0EE480A02F0FAF8B1EE400ADC
:104FF000204684ED1D0A07AB224601A9FFF706FFF4
:1050000001AB07AA04A9FFF701FFDDED060A9DED3C
:10501000050A02F0E5F8204684ED1E0AFFF749F87C
:1050200094ED1F0A94ED1E1AD4ED1D0A84ED1C0A9E
:1050300004F1E0012046FFF757FF0AB0BDEC028BF8
:1050400010BD0000002310B5002104464FF07E5231
:10505000C0E95311C166036743678367C367C0F83C
:10506000E020C0F8F020C0F80021C0F8543140F230
:105070000110A4F858010120C4E95B10C4E95911DA
:10508000C4F85C11C4F8741184F8781184F86001D4
:1050900023666365E36323636362A361E360236064
:1050A0006366A36523646363A362E3612361636052
:1050B000A366E3656364A363E36223626361A36041
:1050C000C4F8D430C4F8C830C4F8BC30C4F8B03028
:1050D000C4F8A430C4F89830C4F88C30C4F88030D8
:1050E000C4F8D830C4F8CC30C4F8C030C4F8B430F8
:1050F000C4F8A830C4F89C30C4F89030C4F88430A8
:10510000C4F8DC30C4F8D030C4F8C430C4F8B830C7
:10511000C4F8AC30C4F808214FF08042C4F80C2128
:105120002B4AC4F810214FF08142C4F81421294AB7
:10513000C4F81821284AC4F81C21284AC4F82021A0
:105140004FF08242C4F82421C4F8A030C4F894304F
:10515000C4F88830C4F8E430C4F8E830C4F8EC305F
:10516000C4F8F430C4F8F830C4F8FC30C4F80431A2
:10517000C4F82831C4F82C31C4F83031C4F83431C3
:10518000C4F83831C4F83C31C4F84031C4F8443173
:10519000C4F84831072001F0A8FD322000F0AEFC31
:1051A000204600F02EF8204600F032F8204600F0AD
:1051B000E9F8204600F088F9142000F09FFC204612
:1051C000FFF7F1FE2046FFF7B9FD204610BD00BFF6
:1051D000000040400000A0400000C0400000E0404F
:1051E000B4EEC10AF1EE10FAD8BFB0EE401AB4EE38
:1051F000E01AF1EE10FA54BFB0EE410AB0EE600AC8
:10520000704708B501F0B6FDBDE8084001F000B8F0
:1052100008B501F0AFFD532101F030F801F0AAFD0F
:1052200003682D219B68984701F0A4FD03680821BD
:105230009B68984701F09EFD01F027F8052000F0DB
:105240005DFC01F097FD532101F018F801F092FD8B
:10525000036831219B68984701F08CFD03680821A1
:105260009B68984701F086FD01F00FF8052000F0DB
:1052700045FC01F07FFD532101F000F801F07AFDBB
:1052800003682C219B68984701F074FD036809218D
:105290009B68984701F06EFD00F0F7FFBDE80840FD
:1052A000052000F02BBC000037B5044601F062FD7C
:1052B000532100F0E3FF01F05DFD036832219B689C
:1052C000984701F057FD00F0E0FF01F053FD532136
:1052D00000F0D4FF01F04EFD0622532100F0C7FF7D
:1052E000002501F047FD03681B69984740B101F0B4
:1052F00041FD03685B6998470DF805000135F0E74B
:1053000001F038FD00F0C1FF062D28D19DF80320E3
:105310009DF8023043EA02231BB207EE903A9DF853
:1053200001209DF80030F8EEE77A43EA02231BB231
:105330009DF80520C4ED007A07EE903A9DF8043000
:10534000F8EEE77A43EA02231BB2C4ED017A07EED6
:10535000903AF8EEE77AC4ED027A03B030BDD4F8A3
:1053600064310133C4F8643194F87831002BF4D0FF
:1053700001F072FB024903B0BDE8304001F0E5B82E
:10538000D2900D0008B501F0F5FC1E2100F076FF6B
:1053900001F0F0FC036802219B68984701F0EAFCE9
:1053A000036800219B68984701F0E4FC00F06DFF62
:1053B000052000F0A3FB01F0DDFC1E2100F05EFFE4
:1053C00001F0D8FC036800219B68984701F0D2FCEB
:1053D000036818219B68984701F0CCFC00F055FF4A
:1053E000BDE80840052000F089BB000037B5044641
:1053F00001F0C0FC1E2100F041FF01F0BBFC03687E
:1054000003219B68984701F0B5FC00F03EFF01F0D6
:10541000B1FC1E2100F032FF01F0ACFC06221E217F
:1054200000F025FF002501F0A5FC03681B699847E3
:1054300040B101F09FFC03685B6998470DF80500D7
:105440000135F0E701F096FC00F01FFF062D27D193
:10545000BDF800309DF802205BBA9BB207EE903A8F
:105460009DF8033043EA0223F8EEE77A1BB25B4271
:105470009DF80420C4ED097A07EE903A9DF80530B6
:1054800043EA0223F8EEE77A1BB25B42C4ED0A7AE4
:1054900007EE903AF8EEE77AC4ED0B7A03B030BD30
:1054A000D4F868310133C4F8683194F87831002BAE
:1054B000F4D001F0D1FA034903B0BDE8304001F067
:1054C00044B800BFEE900D0008B501F053FC682110
:1054D00000F0D4FE01F04EFC03683E219B68984723
:1054E00001F048FC036880219B68984701F042FC6A
:1054F00000F0CBFE052000F001FB01F03BFC682131
:1055000000F0BCFE01F036FC036816219B6898474A
:1055100001F030FC03681B219B68984701F02AFCCE
:1055200000F0B3FE052000F0E9FA01F023FC682149
:1055300000F0A4FE01F01EFC036815219B6898474B
:1055400001F018FC03680A219B68984701F012FCDF
:1055500000F09BFE052000F0D1FA01F00BFC682161
:1055600000F08CFE01F006FC03683E219B68984722
:1055700001F000FC036800219B68984701F0FAFBEA
:1055800000F083FEBDE80840052000F0B7BA000037
:1055900037B5044601F0EEFB682100F06FFE01F024
:1055A000E9FB03681D219B68984701F0E3FB00F0CD
:1055B0006CFE01F0DFFB682100F060FE01F0DAFB19
:1055C0000622682100F053FE002501F0D3FB03689A
:1055D0001B69984740B101F0CDFB03685B699847B0
:1055E0000DF805000135F0E701F0C4FB00F04DFEB9
:1055F000062D2BD19DF802209DF8033043EA0223AB
:105600001BB25B4207EE903A9DF800209DF80130F6
:1056100043EA0223F8EEE77A1BB25B429DF80420CE
:10562000C4ED157A07EE903A9DF8053043EA02235F
:10563000F8EEE77A1BB25B42C4ED167A07EE903AB9
:10564000F8EEE77AC4ED177A03B030BDD4F86C31C8
:105650000133C4F86C3194F87831002BF4D001F0A8
:10566000FBF9034903B0BDE8304000F06EBF00BF56
:1056700009910D0008B5024B1B685B6C019308BDD6
:105680004802030008B5024B1B689B6C019308BDE0
:105690004802030008B5024B1B685B68019308BD14
:1056A0001802030008B5024B1B685B69019308BD33
:1056B0001802030008B5024B1B68DB6D019308BD9F
:1056C0001802030008B5024B1B689B68019308BDD4
:1056D0002C02030008B5024B1B68DB68019308BD70
:1056E0002C02030008B5024B1B681B69019308BD1F
:1056F0002C02030008B5024B1B685B69019308BDCF
:105700002C02030008B5024B1B68DB68019308BD3F
:105710002802030008B5024B1B689B69019308BD72
:105720002802030008B5024B1B68DB69019308BD22
:105730002802030008B5024B1B681B6A019308BDD1
:105740002802030008B5024B1B685B6A019308BD81
:105750002802030008B5024B1B689B6A019308BD31
:105760002802030008B5024B1B68DB6A019308BDE1
:105770002802030008B5024B1B681B6B019308BD90
:105780002802030008B5024B1B685B6B019308BD40
:105790002802030008B5024B1B681B6C019308BD6F
:1057A0002802030008B5024B1B681B6D019308BD5E
:1057B0002802030008B5024B1B685B69019308BD12
:1057C0006402030008B5024B1B689B68019308BD87
:1057D0006802030008B5024B1B68DB68019308BD33
:1057E0006802030008B5024B1B68DB69019308BD22
:1057F0003002030008B5024B1B681B6A019308BD09
:105800003002030008B5024B1B681B68019308BDFA
:105810003C02030008B5024B1B68DB68019308BD1E
:105820003C02030008B5024B1B681B69019308BDCD
:105830003C02030008B5024B1B685B69019308BD7D
:105840003C02030008B5024B1B689B69019308BD2D
:105850003C02030008B5024B1B68DB69019308BDDD
:105860003C02030008B5024B1B681B6A019308BD8C
:105870003C02030008B5024B1B689B6A019308BDFC
:105880003C02030008B5024B1B681B68019308BD6E
:105890004C02030008B5024B1B685B68019308BD0E
:1058A0004C02030008B5024B1B681B69019308BD3D
:1058B0004C02030008B5024B1B685B69019308BDED
:1058C0004C02030008B5024B1B689B69019308BD9D
:1058D0004C02030008B5024B1B68DB69019308BD4D
:1058E0004C02030008B5024B1B681B6A019308BDFC
:1058F0004C02030008B5024B1B689B6A019308BD6C
:105900004C02030008B5024B1B685B68019308BD9D
:105910002002030008B5024B1B685B69019308BDB8
:105920002002030008B5024B1B68DB6A019308BD27
:105930002002030008B5024B1B68DB6C019308BD15
:105940002002030008B5024B1B685B6D019308BD84
:105950002002030008B5034B1B68D3F8883001937D
:1059600008BD00002002030008B5034B1B68D3F8F4
:105970009430019308BD00002002030008B5024BDB
:105980001B681B68019308BD4402030008B5024B65
:105990001B689B68019308BD4402030008B5024BD5
:1059A0001B685B69019308BD4402030008B5024B04
:1059B0001B681B6A019308BD4402030008B5024B33
:1059C0001B685B6A019308BD4402030008B5024BE3
:1059D0001B68DB6B019308BD4402030008B5024B52
:1059E0001B685B68019308BD4002030008B5024BC9
:1059F0001B689B68019308BD4002030008B5024B79
:105A00001B68DB68019308BD4002030008B5024B28
:105A10001B681B69019308BD4002030008B5024BD7
:105A20001B685B69019308BD4002030008B5024B87
:105A30001B689B69019308BD4002030008B5024B37
:105A40001B68DB69019308BD4002030008B5024BE7
:105A50001B681B6A019308BD4002030008B5024B96
:105A60001B681B6B019308BD4002030008B5024B85
:105A70001B685B6B019308BD4002030008B5024B35
:105A80001B681B68019308BD1C02030008B5024B8C
:105A90001B685B68019308BD1C02030008B5024B3C
:105AA0001B689B68019308BD1C02030008B5024BEC
:105AB0001B68DB69019308BD1C02030008B5024B9B
:105AC0001B68DB6A019308BD1C02030008B5024B8A
:105AD0001B681B6B019308BD1C02030008B5024B39
:105AE0001B68DB6B019308BD1C02030008B5024B69
:105AF0001B685B6C019308BD1C0203000021FFF7CB
:105B000009BF10B5836804460BB901F089F9C36871
:105B10009847A3681BB10322214620469847204698
:105B20001021BDE8104001F052B910B503680446D9
:105B30009B689847A368013BA3602BB92368204664
:105B4000DB68BDE81040184710BD10B5044600687A
:105B500008B1FFF797FD204610BD0B68036013B135
:105B60005A6801325A60704710B50446006828B17F
:105B70004368013B43600BB9FFF7D7FF204610BDD8
:105B800010B5064C002320462360FFF773FD204626
:105B9000034A0449BDE8104001F014B944E603206B
:105BA00060E303204B5B0D0070470020704710B589
:105BB0001021044601F00BF9204610BD08B5FFF78F
:105BC000F6FF08BD10B58368044613B103220146F1
:105BD0009847204610BD30B500224FF69C740260F5
:105BE00084808D888C800C68858004600A6030BD5C
:105BF00010B504460068FFF749FF204610BD38B5D0
:105C0000C468F4B12378022B03D104F10C00FFF730
:105C1000EFFF656835B12846FFF7D4FF102128460D
:105C200001F0D5F8A56835B12846FFF7CBFF102164
:105C3000284601F0CCF820461421BDE8384001F098
:105C4000C6B838BD73B50E46044656F8043B0093FB
:105C50000D4601A83146FFF780FF019A009B626064
:105C6000236001A8002301930093FFF77DFF3046D6
:105C7000FFF77AFF2846082101F0A9F8204602B074
:105C800070BD13B50B460246D0E900016C4684E8AE
:105C9000030093E8030082E8030094E8030083E82C
:105CA000030002B010BD826810B50AB901F0B8F85F
:105CB000BDE81040C368184708B5006800F110013E
:105CC000FFF7F1FF08BD826810B50AB901F0A8F826
:105CD000BDE81040C368184708B5006800F110011E
:105CE000FFF7F1FF08BD000038B50023044603604C
:105CF00010200D46FEF7CFF928B10123C0E901338A
:105D0000024B0360C5602060204638BD2C910D0019
:105D100038B5002383608B6804460D462BB1022200
:105D20009847EB68E360AB68A360204638BD00008D
:105D3000F0B589B004686846FFF74DFF4FF00203E5
:105D4000D4E84F2F002A03D1C4E8413F0029F7D1FE
:105D500025D104F10C0569462846FFF73CFFBFF347
:105D60005B8F01236370002004F10803BFF35B8F96
:105D700053E8006F43E80002002AF9D1BFF35B8FBC
:105D80006EB1FFF7D7FD78B129463046FFF78BFF9C
:105D90003046FFF717FF1021304601F018F868462B
:105DA000FFF726FF09B0F0BD314602A8FFF7B0FFAC
:105DB000E068B4F9105008B103F052F806901020D2
:105DC000ADF81C50FEF767F90546E8B1002787607B
:105DD0001820FEF760F9044688B10146876002A8E2
:105DE000FFF74FFF049BA268A360059B049206A9DE
:105DF000E268E36004F110000592FFF7ECFE084B47
:105E0000EB60084B2C60AB6006A8FFF7F1FE02A820
:105E1000FFF7D8FE002229460348FFF793FDB7E7B6
:105E2000B95C0D00515F0D00035B0D002DE9F047DB
:105E30008AB005469DF848900C4617469846FFF7ED
:105E4000ADFD07AE824638BB4FF62E73059005A90F
:105E50003046ADF81830FFF7BEFE1420FEF71BF9F0
:105E6000044648B1022303700123C0E901AA43702C
:105E700031460C30FFF7AFFE2846214640F8044B70
:105E8000FFF732FF3046FFF7B3FE05A8FFF7B0FE7D
:105E900028460AB0BDE8F0870C234FF0000A142012
:105EA000CDE908AA0793FEF7F6F8014628B1C0E944
:105EB00001AA80F800A080F801A004A80391FFF7D0
:105EC00013FF224B08930820FEF7E5F8824628B11D
:105ED000039B40F8043B04A9FFF73FFE00965FFADE
:105EE00089F3424639462046CDF824A0FFF75EFDEF
:105EF000B8B9039B5B7803F0FF0293B94FF69C732C
:105F000005A903A80592ADF81830FFF711FF05A801
:105F1000FFF76EFE05A80999FFF794FE06A8FFF7A4
:105F200023FE039B059304A906A8FFF716FE059B15
:105F3000069A2B606A60002306A806930593FFF774
:105F400013FE04A8FFF710FEA2E700BF15600D00C6
:105F5000022AF8B5054607D0032A18D0012A01D134
:105F60000B6803600020F8BD18200E68FEF793F858
:105F7000044650B13146FFF7CBFE3069B6F91470D4
:105F800008B102F06DFF2061A7822C60EAE7046887
:105F9000002CE7D004F11000FFF72AFE2046FFF79F
:105FA00011FE1821204600F012FFDBE738B5002370
:105FB00083608B6804460D462BB102229847EB683C
:105FC000E360AB68A360204638BD022A70B5044682
:105FD00007D0032A12D0012A01D10B6803600020E8
:105FE00070BD14200E68FEF756F8054620B1314604
:105FF000FFF7DCFF337C2B742560F0E70468002C8E
:10600000EDD02046FFF7DEFD1421204600F0DFFE34
:10601000E5E70000F0B589B004460D4601A8114639
:10602000FFF710FEA4B124B21DB1284602F018FFFC
:10603000054601A803A90395ADF81040FFF778FEC7
:1060400003A8FFF7D5FD02A8FFF78EFD09B0F0BD4C
:10605000019D0123D5E84F2F002A03D1C5E8413F18
:106060000029F7D1EFD12B73BFF35B8F6B702B1D22
:10607000BFF35B8F53E8006F43E80042002AF9D179
:10608000BFF35B8F002EDED02046FFF753FC0746A0
:1060900060B105F10C013046FFF715FE3046FFF701
:1060A00091FD1021304600F092FECCE7314603A866
:1060B000FFF77CFF2B7B8DF81C301020FDF7EBFFEA
:1060C0000546D0B187601420FDF7E5FF044678B19E
:1060D0008760014603A8FFF7D4FD059BA268A36073
:1060E000069B0592E268E3609DF81C3006922374DB
:1060F000064BEB60064B2C60AB6003A8FFF762FD1C
:10610000002229460348FFF71DFCC7E7D95C0D00B4
:10611000CB5F0D00035B0D00002240681146FFF7C6
:1061200095BC002240681146FFF7A0BC40680022E1
:10613000FFF794BC4068002281F00101FFF77EBCAC
:10614000002340681A461946FFF770BC00234068D8
:106150001A461946FFF762BC002240681146FFF755
:1061600055BC002240681146FFF740BC4068002241
:106170000221FFF743BC002340681A46FFF72EBCFC
:10618000024B03225A60024A1A60704748E6032015
:1061900048910D007047F8B5064615460C468F1815
:1061A000BC4206D0336814F8011B9B683046984700
:1061B000F6E72846F8BD007C0022FFF7BBBA007C5A
:1061C0000021FFF7BFBA007C0021FFF7C3BA007CB3
:1061D0000021FFF7C7BA007C0021FFF7CBBA10B54A
:1061E0001421044600F0F3FD204610BD10B54FF415
:1061F0007A73044608460021C4E90113034B236067
:1062000020741146FFF7C6FA204610BD7C910D00A0
:106210000023007C1A461946FFF774BA7FB50022A6
:106220001423CDE90122ADF804300B788DF8083045
:106230004B680393CB680493007C0B7A059301A908
:10624000FFF7B0FA07B05DF804FB1FB5003B8DF80F
:1062500000104FF06401039118BF012369460192B9
:106260008DF80830FFF7DAFF05B05DF804FB012375
:10627000FFF7EBBF007C0022FFF74CBAC9B2FFF773
:10628000F9BF007C0022FFF74DBA0121FFF7F9BFEB
:10629000704710B51821044600F099FD204610BD46
:1062A000F0B5037D062B8DB00E4600F104074FF0CC
:1062B000000412D000F1080515F8011D0A2230462D
:1062C00000F04DF9AF42044419D0002CF4D02E2137
:1062D000304600F02BF90444EEE72F236A46394696
:1062E0000A208DF80040FFF765FA684602F0D5FDF8
:1062F00033680246DB6869463046984704462046C4
:106300000DB0F0BD10B5054B0446112240F8043B1A
:10631000002102F071FD204610BD00BFA4910D00C8
:106320000346074A10B543F8042B01F1100251F857
:10633000044B43F8044B9142F9D10A781A7010BD0E
:10634000A4910D0010B59DF8084044EA032343EAE8
:10635000024242EA016104234160037510BD13B596
:10636000CB7800938B784A780978FFF7EBFF02B07F
:1063700010BD0000014B024A1A60704750E603202E
:10638000B0910D00002340681A46FFF727BB406814
:1063900000220221FFF732BB002240681146FFF7BE
:1063A00025BB002240681146FFF730BB0023406840
:1063B0001A461946FFF732BB002340681A461946B1
:1063C000FFF734BB4068002281F00101FFF736BBC4
:1063D00040680022FFF742BB002240681146FFF7E9
:1063E00045BB002240681146FFF730BB2DE9F04362
:1063F000002495B016460D460746FFF783FF214659
:1064000018220EA8009402F0F7FC4023CDE90C34CA
:1064100021466B460CAA3046FFF7DCF904460028FB
:1064200046D1024601216868FFF7F0FA0221804652
:1064300022466868FFF7EAFA009E81462146002E50
:1064400036D0002934D17368022B03D00A2B0BD02D
:10645000F669F4E7B8F1000F04D0716938460431E9
:10646000FFF77DFF4146F3E7B9F1000F01D149463F
:10647000EEE77469102201A802F0BEFC06238DF835
:10648000143001AD04F108031834186859682A461D
:1064900003C20833A3421546F7D101A906A807ADE8
:1064A000FFF73EFF0FCD3C1D0FC42B682370DEE7C6
:1064B0000098FFF787F9384615B0BDE8F083000073
:1064C000024B034A1A6000225A60704754E60320C8
:1064D000BC910D00F8B506460D468F180024BD424C
:1064E0000CD0336815F8011B9B6830469847031E93
:1064F00001DB1C44F3E7002C08BF1C462046F8BD16
:1065000013B50446084659B1019102F0C6FC236850
:106510000199DB680246204602B0BDE810401847EA
:1065200002B010BD08B5FFF7EBFF08BD03689B681C
:10653000184738B50D210546FFF7F8FF0A21044634
:106540002846FFF7F3FF204438BD38B50546FFF76E
:10655000D7FF04462846FFF7ECFF204438BD30B58E
:106560008BB000238DF82430012A98BF0A2209AC91
:106570000D46B1FBF2F101FB125303F0FF03092BAF
:1065800094BF30333733DBB2AA4204F8013DEFD970
:106590002146FFF7B5FF0BB030BD00002DE9F74FE6
:1065A00055EC104B06460F4610EE102A10EE100A5E
:1065B0002B46294602F056FB40B153493046FFF7BF
:1065C0009FFF8246504603B0BDE8F08F25F000499A
:1065D0004E4B4FF0FF322046494602F043FB48B98C
:1065E0004A4B4FF0FF322046494602F01DFB08B9E6
:1065F0004749E3E7474B4FF060422046294602F007
:1066000027FB08B14449D9E7444B4FF0604220468C
:10661000294602F0FFFA0028F4D100220023204688
:10662000294602F0F7FAD0B12D213046FFF77EFF60
:1066300005F1004382461D463949DFF8EC904FF0E2
:10664000000B00204FF000085FFA8BF39F4208D93F
:1066500042464B4602F096F90BF1010BF4E78246F5
:10666000EAE722462B4601F0ADFE0D46044602F055
:1066700037FB804601F0E2FF02460B4620462946E2
:1066800001F09EFE0A2204460D4630464146FFF7C1
:1066900066FF824427B123493046FFF731FF824429
:1066A000DFF884904FF00008013FFFB2FF2F89D040
:1066B00042464B462046294602F03AF804460D462B
:1066C00002F0E6FAB0F1000B1ADA2D213046FFF79E
:1066D0002DFFCBF1000103460A2230460193FFF75C
:1066E0003EFF019B18448244584601F0B7FF024622
:1066F0000B462046294601F063FE04460D46D3E7CB
:1067000059460023E8E700BFE8910D00FFFFEF7F47
:10671000EC910D00FFFFEF41F0910D00FFFFEFC185
:106720000000E03FF4910D000000244038B504461D
:1067300010EE100ACDB201F0A3FF41EC100B294678
:106740002046BDE83840FFF729BF10B50446FFF7E3
:1067500039FA204610BD00000348044A04490023CA
:10676000836000F02FBB00BF5CE6032060E30320E2
:106770004B670D0010B5044608462170FFF732F84C
:1067800000236360204610BD10B504460068FFF783
:106790007DF9204610BD10B50446006808B1FFF72A
:1067A00075F90023C4E90133236010BD38B50446F0
:1067B0000D4600680131FFF771F910B1C4E9000519
:1067C000012038BD10B50368044623B143688B42ED
:1067D00001D3012010BD2046FFF7E8FF0028F9D0C3
:1067E000A368002BF5D122681370F2E737B50D4688
:1067F000114601920446FFF7E5FF019A28B92046A9
:10680000FFF7C9FF204603B030BDA26029462068CB
:1068100002F0E4FA2268A3680021D154F2E70023D1
:1068200013B5C0E9003304468360037341B10846E1
:10683000019102F032FB019902462046FFF7D6FF94
:10684000204602B010BD000010B5094B094C0222D1
:1068500000201A60084B2060A080A071A360FFF7A1
:1068600051F82046054A0649BDE8104000F0AABA92
:1068700078E603206CE603200000FFFF60E30320BE
:10688000B9470D00024B1A68024B1A60704700BFEF
:10689000F4E203207CE6032070474174704708B59A
:1068A000007CFEF7E7FF20EAE07008BD08B5007C39
:1068B000FEF7B8FF20EAE07008BD08B5007CFEF7DF
:1068C000C1FF40EAE07008BD08B5007CFEF7B2FFEA
:1068D00040EAE07008BD007CFEF7BCBF37B5457CE0
:1068E00004462DB1207C03B0BDE83040FEF792BFD6
:1068F000007C0191FEF7BEFF00280199F2DC2846DA
:1069000003B030BD10B51421044600F060FA2046F3
:1069100010BD000010B54FF0000C044608461146AB
:106920004FF47A72C4E901C2044A22600122207441
:1069300062741A46FEF766FF204610BD1C920D00D9
:1069400013B50E4C2178BFF35B8F11F0010112D10A
:1069500020460191FDF7A5FB019960B1084A094B5A
:106960000948FFF7D7FF2046FDF7A0FB074A084973
:10697000054800F027FA044802B010BD80E6032065
:1069800084E6032008E703208CE7032060E303206C
:1069900099680D0041747047704708B50021007C6C
:1069A000FEF790FF40EAE07008BD08B50121007CC9
:1069B000FEF788FF40EAE07008BD08B5007CFEF7EE
:1069C00079FF20EAE07008BD08B5007CFEF76AFF99
:1069D00020EAE07008BD13B50446007C0191FEF783
:1069E00069FF0028019901DC607C20B1207CFEF762
:1069F00071FF20EAE07002B010BD007CFEF772BFAC
:106A000010B51421044600F0E2F9204610BD000044
:106A100010B54FF47A73044608460021C4E9011307
:106A2000044B23600123207463741146FEF72AFF90
:106A3000204610BD4C920D00007C0022FEF72ABFBC
:106A4000007CFEF757BF10B514220446002102F067
:106A5000D3F9204610BD000010B5104C88B003A833
:106A6000FFF7F1FF2178BFF35B8F11F0010111D126
:106A700020460191FDF715FB019958B103AA08487A
:106A8000FFF7C6FF2046FDF711FB064A06490448FA
:106A900000F098F9024808B010BD00BFA0E703203D
:106AA000A4E7032060E3032099690D0000224068F9
:106AB0001146FEF7ABBF002240681146FEF7C6BF85
:106AC000002240681146FEF7D1BF40680022FEF761
:106AD000C5BF4068002281F00101FEF7AFBF00236F
:106AE00040681A461946FEF7A1BF002340681A46BF
:106AF0001946FEF793BF002240681146FEF776BFA5
:106B0000406800220221FEF779BF002340681A4640
:106B1000FEF764BF024B04225A60024A1A607047B3
:106B2000B8E703207C920D00014B1860704700BF4E
:106B3000FCE2032008B50B4B43B1FFF78DFF036860
:106B40001B699847002801DDAFF30080064B43B175
:106B5000FFF7F6FE03681B699847002801DDAFF3D5
:106B6000008008BD000000000000000008B5FFF72D
:106B7000E1FFFEF797FD014B186008BDD4E7032045
:106B80000248034A0349121A02F028B900F403200C
:106B900004F4032080970D0007B5002300931A46E4
:106BA0006FF07701FEF7E0FE03B05DF804FB000034
:106BB00007B543880A2B08D0502B0BD1094B1B6813
:106BC0004BB103B05DF804EB1847FFF7E5FF03B0E6
:106BD0005DF804FB002300931A466FF07701FEF77F
:106BE000C3FEF4E7C4E7032038B5124C1248134D36
:106BF0000021FEF77BFF2368AB42114B0CBF012243
:106C000000221A7002D0FFF7BBFF2560FEF742FD9D
:106C1000044602F0F9F80B4B13B12046AFF30080A5
:106C200000210848FEF7D2FEBDE8384006480021A2
:106C3000FEF790BE00F40320296B0D001E1C279A5E
:106C4000C0E7032000000000B16B0D00232813B53E
:106C500002D9002002B010BDA0F10B03022B1AD8FC
:106C6000174C2178BFF35B8F11F001010BD1204647
:106C70000191FDF716FA019928B11248FFF77AFD44
:106C80002046FDF713FA0F4B1878FEF7B3FD0028E6
:106C9000DFD10120DEE7012809D800F06BF80021E0
:106CA000007CFEF76FFD80F00100C0B2D2E709382A
:106CB0000128EED8FFF744FE007CFEF7D3FDF2E793
:106CC000C8E70320CCE70320232838B504460D4647
:106CD0000AD8FF2908D0FFF7B9FF28B12946204676
:106CE000BDE83840FEF7EEBC38BD38B504460D4669
:106CF000FEF7F0FCFF2810D0062804D84D2323FA15
:106D000000F0C30709D42046FFF7A0FF28B12946A9
:106D10002046BDE83840FEF7E5BC38BD10B5044656
:106D2000FEF7D8FC031FDBB2012B08D92046FFF782
:106D30008DFF20B12046BDE81040FEF7DBBC0020EF
:106D400010BD000038B500232025438014230446DD
:106D50000380856005610649284600F03AF8044939
:106D60006060284600F035F8E060204638BD00BF7E
:106D7000A8920D0030B50F4D2978BFF35B8F11F04D
:106D8000010487B013D12846FDF78BF978B101A82B
:106D9000FFF7D8FF01AA21460748FFF727FA284640
:106DA000FDF784F9054A0649034800F00BF802484C
:106DB00007B030BDD8E70320DCE7032060E3032001
:106DC00095610D000B460146184601F0F9BFFDF72D
:106DD00066B9FDF762B908B5FEF770FE08B5FEF7B3
:106DE0006DFE08B5FEF76AFE0FB480B584B000AF43
:106DF00007F1180454F8042B7A60104602F04DF89D
:106E000000F2072323F00703ADEB030D00F500713B
:106E10007A68FC602346684600F058F8FEF74EFE9C
:106E200008B5FEF74BFE000080B59CB0064600AFEB
:106E30000C46A41B0E496922381D01F0CFFF04F156
:106E4000700323F00703ADEB030D6D466822391D77
:106E5000284601F0C3FF2246314605F168002C4464
:106E600001F0BCFF002384F868302846FFF7B6FF26
:106E7000A9920D002DE9F04100AF84B06D4605F1F7
:106E80000C04DFF8448023464FF00A0CB2FBFCF6FA
:106E90000CFB162E18F80EE003F801ED9646BEF135
:106EA000090F3246F2D8E41A8C4209D8C4F10C0119
:106EB0002246294401F092FF2046BD46BDE8F081FC
:106EC0004FF0FF34F8E700BF12930D0001392DE9B0
:106ED000F0410746154600EB010804462A7862B3E4
:106EE00044452ED2252A07D16A78732A09D07A2AF6
:106EF00012D0252A00D1013515F8012B04F8012BF9
:106F0000ECE753F8042B013A12F8011FE9B14445AC
:106F100017D004F8011BF7E7AA78752AECD11E46B2
:106F2000A8EB040156F8042B2046FFF7A3FF002826
:106F300007DD044403353346D0E72270E01BBDE88B
:106F4000F08121463846FFF76FFF0235C6E70AB1E8
:106F500001F044BF7047000008B50B68B3F1804FE3
:106F600002D30D48FFF73DFF93420BD9B3EB420F1D
:106F70004FEA420006D2B0F1804F2ABF6FF0404383
:106F800008600B600868013001D5FFF724FFBDE8F9
:106F90000840FDF780B800BF1D930D0050F8083B76
:106FA000834202D01846FDF77AB87047012A10B51F
:106FB00002D10A78027010BDFFF7C9FFFBE708B5E0
:106FC000521AFFF7F3FF08BD70B504460E460830AD
:106FD000206056F8083B9E420D460BD110223146E8
:106FE000FFF7B5FF6B68636000232E606B602B7248
:106FF000204670BD23608B68A360F3E700B510EEF8
:10700000103A204A23F00043934283B019DDB3F1D4
:10701000FF4F04DB30EE400A03B05DF804FB684626
:1070200000F0DAFA00F00300012811D002281FD086
:10703000B8B1DDED010A9DED000A012000F0D2FF9C
:10704000EAE7DFED110A00F015FC03B05DF804FB80
:10705000DDED010A9DED000A00F0C4FFB1EE400A2B
:10706000DAE7DDED010A9DED000A00F003FCD3E74D
:10707000DDED010A9DED000A00F0FCFBB1EE400AD7
:10708000CAE700BFD80F493F0000000000B510EE6E
:10709000103A214A23F00043934283B01ADDB3F142
:1070A000FF4F04DB30EE400A03B05DF804FB684696
:1070B00000F092FA00F00300012813D0022820D03B
:1070C000B8B1DDED010A9DED000A00F0D3FBB1EE91
:1070D000400AE9E7DFED110A002000F083FF03B06A
:1070E0005DF804FBDDED010A9DED000A00F0C2FB36
:1070F000DAE7DDED010A9DED000A012000F072FFE4
:10710000D2E7DDED010A9DED000A012000F06AFFE3
:10711000B1EE400AC8E700BFD80F493F00000000A9
:1071200010B52DED028B2B4C8AB0B0EE408A00F0EA
:10713000B1F894F900300133F0EE408A0FD0B4EE8C
:10714000488AF1EE10FA0AD6B0EE480A01F074F857
:10715000F7EE007AB4EEE70AF1EE10FA05DCB0EED5
:10716000680A0AB0BDEC028B10BD01231A4A0093D5
:1071700018EE100A00230192089301F081FA0246EA
:107180000B461648CDE90423CDE9022300F074FF35
:1071900094F90030022B8DED060B11D0684600F0FB
:1071A00069FF68B1089B83B9DDE9060101F0B8FD0C
:1071B00008EE900AB0EE680A0AB0BDEC028B10BD72
:1071C000FEF78CFC21230360ECE7FEF787FC089BAD
:1071D0000360E9E7F8E2032038930D0040930D00C7
:1071E00000F052B910B52DED028B8AB0B0EE408A96
:1071F00000F03CFB254B93F90040631C09D0B4EE32
:10720000488AF1EE10FA04D6B5EEC08AF1EE10FA13
:1072100003D40AB0BDEC028B10BD01231C4A0093BD
:1072200018EE100A00230192089301F029FA0022B7
:10723000CDE90401CDE902010023BCB11046194695
:1072400001F0A0FB022CCDE9060111D1FEF746FCAE
:1072500021230360089B9BB9DDE9060101F060FD75
:1072600000EE100A0AB0BDEC028B10BDCDE906237A
:10727000684600F0FFFE0028E8D0089B002BEBD00A
:10728000FEF72CFC089B0360E6E700BFF8E2032052
:1072900044930D0038B510EE105A25F00044B4F1B7
:1072A0007E5F2DED048B7FD077DCB4F17C5F0EDA4E
:1072B000B4F1485F80F29480DFED637A70EE277A54
:1072C000B7EE007AF4EEC77AF1EE10FA62DC00F065
:1072D000B3FFF7EE007A37EEC00AB6EE008A20EE72
:1072E000088A9FED5A3A9FED5A4ADFED5A3ADFED90
:1072F0005A4A9FED5A5ADFED5A5A9FED5A6A9FED4E
:107300005A7ADFED5A6ADFED5A8AA8EE034AE8EEB0
:10731000234AA4EE085AE4EE885AA5EE086AA5EEC0
:10732000887AE6EE086AE7EE087AE6EE888AB0EE3A
:10733000480AB0EE679A00F099FA4E4B9C4268EE0C
:10734000888A3EDC10EE103A23F47F6323F00F03AB
:1073500006EE903AA6EEE68A70EE267AC8EE895AD4
:1073600088EE275A9FED447ADFED447AB0EE006A4A
:10737000A5EE467A30EE000AB0EE675AA6EEC65A7F
:1073800090EE257A37EE450A37EEC00A002DD8BFB9
:10739000B1EE400ABDEC048B38BDBDEC048B70EE41
:1073A000407A87EEA70A38BDDFED337A9FED347A55
:1073B00060EE277ABDEC048BE0EE077AB0EE670A48
:1073C00038BDC8EE896A9FED2F7ADFED2D7AA0EEE9
:1073D000260AF0EE006AA0EE267A37EEC70AD5E755
:1073E00060EE007ADFED192ADFED193ADFED1B4A76
:1073F0009FED183A9FED184ADFED1A6A9FED185A73
:10740000DFED1A5A9FED186A9FED197AE7EEA23A5E
:10741000BDEC048BE3EEA74AA7EE834AE4EEA76A2D
:10742000A4EE275AE6EEA75AA5EE276AA5EEA77A9C
:10743000F7EE006AE6EE276A67EE277A87EEA67A0D
:10744000A0EE070A38BD00BFCAF2497108EF113833
:10745000047F4F3A2EC69D3D613330BF461124BD97
:107460002D570140A80A4E3E39D119C090B0A6BE92
:10747000ABAA2A3E9999793F2EBD3BB3DB0F493F1A
:10748000DB0FC93F2EBD3B3310B582B0CDED010AF5
:10749000019B23F00042B2F1FF4FF0EE407A30DC66
:1074A00010EE100A20F00041B1F1FF4F29DCB3F1DA
:1074B0007E5F42D09C1704F0020444EAD07431B3DA
:1074C0007AB3B2F1FF4F40D0B1F1FF4F29D08A1A01
:1074D000B2F1F45F4FEAE25134DA002B42DA3C3188
:1074E00040DA9FED340A012C4ED0022C43D064B117
:1074F0009FED317ADFED317A30EE070A30EE670A20
:1075000003E09DED017A37EE270A02B010BD022C90
:1075100010D09FED2B0A032C18BFB0EE670A02B003
:1075200010BD9FED280ADFED287A0028B8BFB0EE25
:10753000670AEAE79FED210AE7E702B0BDE81040DD
:1075400000F0A2BD9FED1F0ACDE7B1F1FF4F04F19E
:10755000FF3420D0022C26D81C4B03EB840494ED7E
:10756000000AD2E79DED017A87EE870A00F064FEFB
:1075700000F08AFDB7E79FED107ADFED107A30EE6C
:10758000070A37EEC00AC0E710EE103A03F10043D5
:1075900000EE103AB9E7022C08D80D4B03EB840437
:1075A00094ED000AB1E79FED030AAEE79FED090AEB
:1075B000ABE700BF000000002EBDBB33DB0F49402E
:1075C000DB0F49C0DB0FC93FDB0FC9BF58930D006C
:1075D0004C930D00DB0F493F70B510EE103A954A01
:1075E00023F00044944286B0054668DD924A9442F6
:1075F00010EE106A1ADC002BDFED907A904A24F02E
:107600000F0440F3F180944270EE677A66D09FEDEC
:107610008D7A77EEC76A012077EEE67AC5ED006ACB
:1076200077EEC77AC5ED017A06B070BD864A9442FE
:1076300067DDB4F1FF4F49DAE215863AA4EBC25395
:1076400007EE903ABDEEE77ADFED806AB8EEC77AD2
:1076500077EEC77A8DED037A67EEA67ABDEEE77A0C
:10766000B8EEC77A77EEC77A8DED047A67EEA67A20
:10767000F5EE407AF1EE10FACDED057A40F0A380F8
:10768000B5EE407AF1EE10FA14BF022301237049DF
:1076900001910221009103A8294600F06DF9002E06
:1076A000C2DA95ED007AD5ED017AB1EE477AF1EEC6
:1076B000677A404285ED007AC5ED017AB4E7002291
:1076C00085ED000A4260002006B070BD70EE407A81
:1076D0000020C5ED017AC5ED007AA5E7DFED5D6A12
:1076E0009FED5D7A77EEE67A012077EEC76A77EE56
:1076F000E67AC5ED006A77EEC77AC5ED017A06B085
:1077000070BD00F099FDDFED556A9FED4C6A9FED6D
:107710004D7AF6EE007AE0EE267AFDEEE77A17EE85
:10772000900AF8EEE76A1F28A6EEC60A66EE877A88
:10773000B1EE666A1EDC4A4A411E24F0FF0352F88D
:107740002120934216D030EE677A85ED007A30EE34
:10775000470A002E30EE670A85ED010ABFF664AFD6
:10776000B1EE477AB1EE400A85ED007A85ED010A67
:10777000404259E730EE677AE21517EE103AC3F34C
:10778000C753C3EBD454082CDFDDDFED327A9FED15
:10779000327AF0EE405AE6EE275A30EE650AA6EE4F
:1077A000270AF0EE407AD6EE877A35EEE77A17EEC2
:1077B000103AC3F3C753D21A192A06DC85ED007AB2
:1077C000B0EE650AC3E7032361E79FED267A9FEDDC
:1077D000265AB0EE650AA6EE070A75EEC07AE6EE06
:1077E000077AD6EE857AAEE7944270EE277A0ED00D
:1077F0009FED147A77EE876A4FF0FF3077EEE67AE6
:10780000C5ED006A77EE877AC5ED017A0CE7DFED0A
:10781000116A9FED117A77EEA67A4FF0FF3077EE7E
:10782000876A77EEE67AC5ED006A77EE877AC5ED6E
:10783000017AF9E6D80F493FE3CB1640800FC93FE4
:10784000D00FC93F43443537800F49430000804380
:10785000E4930D000044353708A3852E84F9223FB8
:1078600064930D0000A3852E32318D24B1EEC00A41
:10787000704700BF10EE103A23F00043B3F1485FA9
:107880002CDAFDEEC07A17EE903A002B60D020EE95
:10789000007ADFED314A9FED315ADFED315A9FED2D
:1078A000316ADFED317ADFED316AA7EE245AE7EE77
:1078B000055AA7EE256AE7EE067AE7EE276A67EE35
:1078C000266A60EEC00AF6EE007AE7EE260AB7EE08
:1078D000000AD7EE270A30EE600A704720EE007AE1
:1078E000DFED1D4A9FED1D5ADFED1D5A9FED1D6A0C
:1078F000DFED1D7ADFED1D6A1D4AA7EE245A934283
:10790000E5EE075AA5EE876AE6EE077AE7EE876AA4
:1079100066EE876AD5DD174A934214DC03F17F4394
:1079200007EE903AB7EE006A36EE676A60EEC00A7C
:10793000F6EE005AE7EE260AD7EE257A77EEE00A51
:1079400036EE600A7047B6EE076AF5EE027AEDE7AA
:10795000B7EE000A704700BF4ED747ADF6740F313F
:107960007CF293B4010DD037610BB6BAABAA2A3DB5
:107970009999993E0000483F2DE9F04F2DED048B79
:10798000DBB0D74C689D0791111D54F82560049316
:107990000992834603F1FF39C0F29D82D31E44BF92
:1079A00013460433DB1003930133DB000893DDE956
:1079B00008239B1A0693039B16EB0901A3EB09030B
:1079C00016D401319FEDC77A699819441EAA002B7D
:1079D000A4BF50F8234007EE904A03F10103ACBF67
:1079E000F8EEE77AF0EE477A8B42E2EC017AEED1DC
:1079F000002EC0F2E082049B1EA901EB830446AD79
:107A00004FEA830C4846F7180BEB8301B9F1000FDE
:107A1000DFEDB47A09DB22465B46F3EC016A32ED16
:107A2000017A8B42E6EE877AF7D10130B842E5EC75
:107A3000017A04F10404E9D10DF1280808EB86036A
:107A4000083B05939FEDA99ADFEDA78A069800965B
:107A500009AB03EB860A0BEB0C0446AF5B465AAA54
:107A600002EB8602002E12ED140A4FEA860B16DD99
:107A700007EB8602414660EE097AB0EE407AFDEEF1
:107A8000E77A72ED016AF8EEE77ABA42A7EEE87A91
:107A900037EEA60ABDEEC77AA1EC017AEBD1CDE9AB
:107AA000010300F017FCB0EE408AB4EE000A28EEA5
:107AB000000A00F0C9FBF2EE007AA0EE678A019896
:107AC000029BFDEEC89A0028F8EEE97A38EE678A44
:107AD00078DD06F1FF3CC0F1080258F82C5045FA59
:107AE00002F101FA02F2AA1A48F82C20C0F10705A7
:107AF00019EE90CA42FA05F58C44002D09EE90CAA1
:107B000068DCB5EE408AF1EE10FA40F0B680009ADB
:107B100006F1FF3E724510DC06F18042013A08EBA7
:107B2000820200219C4652F80439524541EA030181
:107B3000F9D16346002940F0F280009A013A58F8E2
:107B40002220002A40F0E680059A4FF0010C52F8FE
:107B500004190CF1010C0029F9D006F1010BB44411
:107B6000DE460499039A8D195A441EA902F18042F7
:107B700001EB85056999013A01EB820607EB8B0B56
:107B8000D6ED017A9FED577AF8EEE77AB9F1000F5A
:107B900006F104062946C5ED007A05F1040509DB66
:107BA0001A4601E071ED017AF2EC016AA242A6EEFA
:107BB000A77AF7D10EF1010EE645ABEC017ADFDDD5
:107BC00066464CE740F09C80721E58F822502D12F9
:107BD000002D96DD19EE902A002E02F1010209EE29
:107BE000902A40F38E81D8F80010002974D1012E1C
:107BF0001CD042464FF0010C52F8041F002979D0E6
:107C00000CF10102C1F58071964248F82C100CDD90
:107C100058F82210C34408EB820200E01168C1F159
:107C2000FF0142F8041B5A45F8D1012100280CDD60
:107C3000012800F04781022807D106F1FF3C58F8DF
:107C40002C2002F03F0248F82C20022D7FF459AF7F
:107C5000B7EE000A30EE488A00293FF452AFCDE972
:107C6000010300F037FB38EE408ADDE90103B5EE91
:107C7000408AF1EE10FA3FF44AAFDDE90832B0EE87
:107C8000480A981A02960195009E00F023FB9FED8A
:107C9000167AB4EEC70AF1EE10FADDE90123C0F25C
:107CA0005781DFED127A069960EE277A0831FDEEF2
:107CB000E77A0691F8EEE77A5D1CA7EEC70AFDEEBB
:107CC000E77ABDEEC00A10EE101A48F8231017EE3E
:107CD000903A48F8253039E001224FF0000C91E746
:107CE00028970D0000000000000080430000803B4A
:107CF0000000C93F0CF1010CB4457FF47DAF95E75E
:107D0000F6EE007AB4EEE78AF1EE10FA80F2E8803F
:107D10000025F6E606F1010BDE46DC4621E7069873
:107D200058F82E10083833462A46009E06907546AD
:107D300061B903F18043023B08EB8303014653F82A
:107D40000409013D08390028F9D0069106980092EF
:107D5000B7EE000A00F0BEFA002D009AC0F21E81B4
:107D60004FEA850E46AB03EB0E070EF1040C1FED38
:107D7000217A08EB0C03391D73ED017AF8EEE77AEE
:107D8000434567EE807A20EE070A61ED017AF3D170
:107D9000002E1FED296A4FF0000420DB8F48DFED35
:107DA000907A3946B0EE467A002303E09C4208DB25
:107DB000B0EC017AF1EC016A01339E42E6EE877A7B
:107DC000F4DA5AAB03EB8403A54243ED287AA7F11A
:107DD000040704F1010305D0002E1C46DEDADFEDB6
:107DE000807AEEE7689902291CDC002900F38B8079
:107DF0000FD132ABDFED7A7A9C443CED017A6345DA
:107E000077EE877AF9D10AB1F1EE677A079BC3ED75
:107E1000007A19EE903A03F007005BB0BDEC048BDA
:107E2000BDE8F08F689B032BF3D1002D00F0CB80D1
:107E30005AAB734432A913ED287A01EB850373ED35
:107E4000017AF0EE476A37EE277A994277EEC77AE1
:107E500083ED007A77EEA67AC3ED017AEFD1012D9A
:107E600040F3B18005F180455AAB013D9E44AD0021
:107E70002B1D1EED287A0B4433A873ED017AF0EE2A
:107E8000476A37EE277A984277EEC77A83ED007A11
:107E900077EEA67AC3ED017AEFD10835DFED507A9F
:107EA0004B19083133ED017A994277EE877AF9D18F
:107EB000002A55D10799329A339BC1ED027A0A60A4
:107EC0004B60A6E706F1FF3C58F82C2002F07F0239
:107ED00048F82C20B9E6082308930023039366E5AD
:107EE00019EE902A002E02F1010209EE902AC8BF75
:107EF00002253FF778AEF7EE007A37EEC88A022502
:107F0000FFE5002192E632A9DFED357A01EB83032C
:107F100033ED017A994277EE877AF9D192BB9DEDE4
:107F2000327A079B002DC3ED007A77EE677A0BDD7E
:107F300033A90123B1EC017A01339D4277EE877AB0
:107F4000F8DA0AB1F1EE677A079BC3ED017A60E7D0
:107F5000BDEEC00A1D4610EE101A48F82310F5E6D3
:107F6000DDED326A9DED337A079BF1EE677AF1EE33
:107F7000666AB1EE477AC3ED027AC3ED006A83ED1B
:107F8000017A46E7DDED326A079BB1EE677A002D94
:107F900076EEE77A83ED007ACADCD3E7689B022BA2
:107FA0000DDC002B14DC7FF434AFDFED0D7A002AFA
:107FB0003FF42CAF28E7049B4FEA830C3CE5689B19
:107FC000032B7FF426AFDFED067A002AC8D171E7D4
:107FD000DFED037A002AA2D0D4E700BF00970D009E
:107FE0000000000010EE103A23F00043B3F1485FA8
:107FF00004DAFDEEC07A17EE903A5BB360EE007AD9
:108000009FED155ADFED155A9FED156ADFED156AE4
:108010009FED157AE7EE855A20EE275AA5EEA76A5E
:10802000E6EE276AA6EEA77A30B9DFED106AE7EE32
:10803000876AA6EE850A704727EE457AF6EE006A53
:10804000A0EEA67ADFED0A6AD7EE270AE5EE260A49
:1080500030EE600A704700BFD3C92E2F342FD7B23D
:108060001BEF3836010D50B98988083CABAA2ABEEF
:10807000ABAA2A3E002070479FED010B704700BF5E
:10808000000000000000F87F38B510EE105A25F00F
:108090000044B4F1A14FF0EE407A0BDBB4F1FF4F96
:1080A00059DCDFED527A9FED520A002DC8BFB0EEC9
:1080B000670A38BD4F4B9C425CDCB4F1445F4DDB3A
:1080C0004FF0FF3327EEA76A9FED4B1A9FED4B2A27
:1080D0009FED4B3ADFED4B1ADFED4B2A9FED4B4AFC
:1080E000DFED4B3A9FED4B5ADFED4B4ADFED4B6A2C
:1080F000DFED4B5A26EE067A5A1CA7EE012AE7EE70
:10810000212AA2EE073AE2EE873AA3EE074AE3EE0F
:10811000874AA4EE075AE4EE875AE5EE076A25EE91
:10812000877A66EE866A3AD03E493F4A01EB830180
:1081300076EE876A91ED000A96EEA70A02EB8303BA
:10814000002D93ED007A70EE677A37EE670AB0DAA9
:10815000B1EE400A38BD30EE000A38BD9FED337AEB
:1081600030EE077AF7EE006AB4EEE67AF1EE10FA36
:10817000A6DD38BD00F060F82D4B9C4216DCA3F55F
:10818000D0039C4227DCF0EE007ABFEE007AA0EE2E
:10819000277A002330EE270AC7EE007A92E776EEC0
:1081A000876AE6EEE77AB0EE670A38BD214B9C425B
:1081B0000BDCF7EE087AB7EE007AA0EE277A0223FE
:1081C00030EE670AC0EE077A7CE7BFEE007AC7EEB2
:1081D000007A032376E7F7EE007A30EE677A30EE26
:1081E000270A0123C7EE007A6CE700BFDB0FC93F07
:1081F000DB0FC9BFFFFFDF3ED769853C59DA4B3D36
:10820000356B883D21A215BD6BF16EBD6E2EBA3D5A
:1082100095879DBD2549123E388EE3BDABAAAA3E87
:10822000CDCC4CBE44970D0034970D00CAF2497175
:10823000FFFF973FFFFF1B4010EE103A23F0004373
:1082400000EE103A704700BF10EE102AC2F3C75379
:108250007F3B162B22F000411ADC002B1EDB1A4953
:1082600019410A4227D0DFED197A70EE277AF5EE30
:10827000C07AF1EE10FA1EDD002A04DA4FF4000095
:1082800040FA03F31A4422EA010300EE103A704761
:10829000B1F1FF4F0FD330EE000A7047DFED0B7ADC
:1082A00070EE277AF5EEC07AF1EE10FA03DD002ABF
:1082B00002DB9FED070A70470029FFEE007A18BF26
:1082C000B0EE670A704700BFFFFF7F00CAF2497136
:1082D0000000000082B08DED010A019B33F00042E6
:1082E0002AD0B2F1FF4F23D213F0FF4F28D19DEDDA
:1082F000017ADFED2A7A2A4B67EE277A9842CDED94
:10830000017A37DB019BC3F3C752193A0244FE2AB4
:108310001ADD9FED240A9FED247A019B002BF0EEDD
:10832000407AB8BFB0EE470A20EE270A02B0704785
:1083300030EE000A02B070479DED010A02B07047AE
:10834000D20D0244FE2AE4DC002A0BDC12F1160FE7
:1083500017DA4CF250339842DBDC9FED140A9FEDA4
:10836000147ADAE723F0FF4343EAC25300EE103AEF
:1083700002B070479FED0D0ADDED017A27EE800A0D
:10838000D8E7193223F0FF4343EAC253DFED097AFD
:1083900007EE103A27EE270ACCE700BF0000004C9A
:1083A000B03CFFFFCAF24971CAF249F16042A20D26
:1083B0006042A28D0000003381F0004102E000BF66
:1083C00083F0004330B54FEA41044FEA430594EA95
:1083D000050F08BF90EA020F1FBF54EA000C55EAD0
:1083E000020C7FEA645C7FEA655C00F0E2804FEAA1
:1083F0005454D4EB5555B8BF6D420CDD2C4480EA83
:10840000020281EA030382EA000083EA010180EAB2
:10841000020281EA0303362D88BF30BD11F0004F00
:108420004FEA01314FF4801C4CEA113102D0404236
:1084300061EB410113F0004F4FEA03334CEA133371
:1084400002D0524263EB430394EA050F00F0A78089
:10845000A4F10104D5F1200E0DDB02FA0EFC22FA84
:1084600005F2801841F1000103FA0EF2801843FA78
:1084700005F359410EE0A5F120050EF1200E012A69
:1084800003FA0EFC28BF4CF0020C43FA05F3C018A7
:1084900051EBE37101F0004507D54FF0000EDCF120
:1084A000000C7EEB00006EEB0101B1F5801F1BD3C9
:1084B000B1F5001F0CD349085FEA30004FEA3C0CCD
:1084C00004F101044FEA445212F5800F80F09A80C3
:1084D000BCF1004F08BF5FEA500C50F1000041EBC7
:1084E000045141EA050130BD5FEA4C0C404141EBCB
:1084F0000101013C28BFB1F5801FE9D291F0000FC6
:1085000004BF01460020B1FA81F308BF2033A3F174
:108510000B03B3F120020CDA0C3208DD02F1140C6B
:10852000C2F10C0201FA0CF021FA02F10CE002F1A6
:108530001402D8BFC2F1200C01FA02F120FA0CFC9F
:10854000DCBF41EA0C019040E41AA2BF01EB0451E8
:10855000294330BD6FEA04041F3C1CDA0C340EDCE6
:1085600004F11404C4F1200220FA04F001FA02F329
:1085700040EA030021FA04F345EA030130BDC4F1E7
:108580000C04C4F1200220FA02F001FA04F340EADC
:108590000300294630BD21FA04F0294630BD94F08D
:1085A000000F83F4801306BF81F480110134013D74
:1085B0004EE77FEA645C18BF7FEA655C29D094EAE5
:1085C000050F08BF90EA020F05D054EA000C04BF63
:1085D0001946104630BD91EA030F1EBF002100204E
:1085E00030BD5FEA545C05D14000494128BF41F0ED
:1085F000004130BD14F580043CBF01F5801130BD51
:1086000001F0004545F0FE4141F470014FF00000DB
:1086100030BD7FEA645C1ABF194610467FEA655C8C
:108620001CBF0B46024650EA013406BF52EA03352E
:1086300091EA030F41F4002130BD00BF90F0000F1C
:1086400004BF0021704730B54FF4806404F1320458
:108650004FF000054FF0000150E700BF90F0000F11
:1086600004BF0021704730B54FF4806404F1320438
:1086700010F0004548BF40424FF000013EE700BF08
:1086800042004FEAE2014FEA31014FEA02701FBF98
:1086900012F07F4393F07F4F81F06051704732F0CA
:1086A0007F4208BF704793F07F4F04BF41F4002121
:1086B000704730B54FF4607401F0004521F000417F
:1086C0001CE700BF50EA010208BF704730B54FF009
:1086D00000050AE050EA010208BF704730B511F00A
:1086E000004502D5404261EB41014FF4806404F142
:1086F00032045FEA915C3FF4D8AE4FF003025FEAC8
:10870000DC0C18BF03325FEADC0C18BF033202EB4B
:10871000DC02C2F1200300FA03FC20FA02F001FAA5
:1087200003FE40EA0E0021FA02F11444BDE600BF48
:1087300070B54FF0FF0C4CF4E06C1CEA11541DBFF7
:108740001CEA135594EA0C0F95EA0C0F00F0DEF8C2
:108750002C4481EA030621EA4C5123EA4C5350EAA7
:10876000013518BF52EA033541F4801143F48013F8
:1087700038D0A0FB02CE4FF00005E1FB02E506F089
:108780000042E0FB03E54FF00006E1FB03569CF0DE
:10879000000F18BF4EF0010EA4F1FF04B6F5007FE4
:1087A00064F5407404D25FEA4E0E6D4146EB060656
:1087B00042EAC62141EA55514FEAC52040EA5E50DF
:1087C0004FEACE2EB4F1FD0C88BFBCF5E06F1ED889
:1087D000BEF1004F08BF5FEA500E50F1000041EBC0
:1087E000045170BD06F0004646EA010140EA02006D
:1087F00081EA0301B4EB5C04C2BFD4EB0C0541EA8F
:10880000045170BD41F480114FF0000E013C00F3A3
:10881000AB8014F1360FDEBF002001F0004170BDC7
:10882000C4F10004203C35DA0C341BDC04F11404E0
:10883000C4F1200500FA05F320FA04F001FA05F26C
:1088400040EA020001F0004221F0004110EBD37039
:1088500021FA04F642EB06015EEA430E08BF20EA65
:10886000D37070BDC4F10C04C4F1200500FA04F308
:1088700020FA05F001FA04F240EA020001F000419A
:1088800010EBD37041F100015EEA430E08BF20EA0D
:10889000D37070BDC4F1200500FA05F24EEA020E55
:1088A00020FA04F301FA05F243EA020321FA04F084
:1088B00001F0004121FA04F220EA020000EBD3703B
:1088C0005EEA430E08BF20EAD37070BD94F0000F3B
:1088D0000FD101F00046400041EB010111F4801F6F
:1088E00008BF013CF7D041EA060195F0000F18BF20
:1088F000704703F00046520043EB030313F4801F5C
:1089000008BF013DF7D043EA0603704794EA0C0F15
:108910000CEA135518BF95EA0C0F0CD050EA41062B
:1089200018BF52EA4306D1D181EA030101F00041A8
:108930004FF0000070BD50EA410606BF10461946D0
:1089400052EA430619D094EA0C0F02D150EA0136DC
:1089500013D195EA0C0F05D152EA03361CBF10461D
:1089600019460AD181EA030101F0004141F0FE41BC
:1089700041F470014FF0000070BD41F0FE4141F440
:10898000780170BD70B54FF0FF0C4CF4E06C1CEA40
:1089900011541DBF1CEA135594EA0C0F95EA0C0FF5
:1089A00000F0A7F8A4EB050481EA030E52EA0335B0
:1089B0004FEA013100F088804FEA03334FF08055D1
:1089C00045EA131343EA12634FEA022245EA1115FE
:1089D00045EA10654FEA00260EF000419D4208BFAF
:1089E000964244F1FD0404F5407402D25B084FEA5C
:1089F0003202B61A65EB03055B084FEA32024FF408
:108A000080104FF4002CB6EB020E75EB030E22BF64
:108A1000B61A754640EA0C005B084FEA3202B6EB24
:108A2000020E75EB030E22BFB61A754640EA5C00D3
:108A30005B084FEA3202B6EB020E75EB030E22BF63
:108A4000B61A754640EA9C005B084FEA3202B6EB64
:108A5000020E75EB030E22BFB61A754640EADC0023
:108A600055EA060E18D04FEA051545EA16754FEA85
:108A700006164FEAC30343EA52734FEAC2025FEAA3
:108A80001C1CC0D111F4801F0BD141EA00014FF032
:108A900000004FF0004CB6E711F4801F04BF014303
:108AA0000020B4F1FD0C88BFBCF5E06F3FF6AFAE1F
:108AB000B5EB030C04BFB6EB020C5FEA500C50F1AF
:108AC000000041EB045170BD0EF0004E4EEA113132
:108AD00014EB5C04C2BFD4EB0C0541EA045170BD39
:108AE00041F480114FF0000E013C90E645EA060E7D
:108AF0008DE60CEA135594EA0C0F08BF95EA0C0FAB
:108B00003FF43BAF94EA0C0F0AD150EA01347FF4F2
:108B100034AF95EA0C0F7FF425AF104619462CE7C9
:108B200095EA0C0F06D152EA03353FF4FDAE10462C
:108B3000194622E750EA410618BF52EA43067FF47D
:108B4000C5AE50EA41047FF40DAF52EA43057FF40D
:108B5000EBAE12E74FF0FF3C06E000BF4FF0010C18
:108B600002E000BF4FF0010C4DF804CD4FEA410C7C
:108B70007FEA6C5C4FEA430C18BF7FEA6C5C1BD049
:108B800001B050EA410C0CBF52EA430C91EA030FCA
:108B900002BF90EA020F0020704710F1000F91EA27
:108BA000030F58BF994208BF90422CBFD8176FEAF5
:108BB000E37040F0010070474FEA410C7FEA6C5CC3
:108BC00002D150EA013C07D14FEA430C7FEA6C5CCA
:108BD000D6D152EA033CD3D05DF8040B704700BFF6
:108BE0008446104662468C461946634600E000BF44
:108BF00001B5FFF7B7FF002848BF10F1000F01BD16
:108C00004DF808EDFFF7F4FF0CBF012000205DF8E0
:108C100008FB00BF4DF808EDFFF7EAFF34BF012065
:108C200000205DF808FB00BF4DF808EDFFF7E0FFFE
:108C300094BF012000205DF808FB00BF4DF808ED4F
:108C4000FFF7CEFF94BF012000205DF808FB00BFB6
:108C50004DF808EDFFF7C4FF34BF012000205DF898
:108C600008FB00BF4FEA410C7FEA6C5C02D150EA7E
:108C7000013C0AD14FEA430C7FEA6C5C02D152EA14
:108C8000033C02D14FF0000070474FF001007047E5
:108C90004FEA410212F5001215D211D56FF4787324
:108CA000B3EB625212D94FEAC12343F0004343EAC7
:108CB000505311F0004F23FA02F018BF40427047A2
:108CC0004FF00000704750EA013005D111F000402C
:108CD00008BF6FF0004070474FF00000704700BFC2
:108CE0004A0011D212F5001211D20DD56FF478732B
:108CF000B3EB62520ED44FEAC12343F0004343EA80
:108D0000505323FA02F070474FF00000704750EACA
:108D1000013002D14FF0FF3070474FF00000704734
:108D20004FEA4102B2F1E04324BFB3F5001CDCF18D
:108D3000FE5C0DD901F0004C4FEAC0024CEA5070C5
:108D4000B2F1004F40EB830008BF20F001007047F4
:108D500011F0804F21D113F13872BCBF01F00040F7
:108D6000704741F480114FEA5252C2F11802C2F129
:108D7000200C10FA0CF320FA02F018BF40F00100AA
:108D80004FEAC1234FEAD32303FA0CFC40EA0C005C
:108D900023FA02F34FEA4303CCE77FEA625307D199
:108DA00050EA01331EBF4FF0FE4040F440007047D0
:108DB00001F0004040F0FE4040F40000704700BF6A
:108DC00010B5054C13462CB10A4601460220AFF3FC
:108DD000008010BD2046FCE7000000000A449142DC
:108DE00000F1FF3300D1704710B511F8014B03F8C3
:108DF000014F9142F9D110BD02440346934200D184
:108E0000704703F8011BF9E738B50D4B1D68AB6BD4
:108E100004467BB91820FCF731FE0A4A0A4BA863C6
:108E2000C0E90023094B83600B23838101220023C7
:108E3000C0E90423AB6B00221C615A6138BD00BF3E
:108E4000FCE203200E33CDAB34126DE6ECDE050000
:108E5000034611F8012B03F8012B002AF9D17047C2
:108E6000024B0146186800F003B800BFFCE2032083
:108E700037B5044608460D4600F00FF8421C11466F
:108E800020460192FCF722FE044618B1019A2946B9
:108E9000FFF7A4FF204603B030BD034613F8012BB3
:108EA000002AFBD1181A013870470000134B73B524
:108EB0001E68B46D0546C4B950200191FCF7DEFD73
:108EC000B065C0E90044C0E90244C0E90444C0E917
:108ED0000A44C0E90C44C0E90E44C0E91044C0E9AA
:108EE00012440199846104774462B26D01232846DB
:108EF00002B0BDE8704000F003B800BFFCE2032000
:108F0000F0B508B9106888B10446204614F8015B32
:108F10000F4617F8016B1EB965B91560284605E0C4
:108F2000B542F6D1002BF0D114600370F0BD1C46A1
:108F30000CE015B914F8013B0E4616F8015BAB4284
:108F4000F7D1002BF3D0002304F8013C1460EDE7C7
:108F500021400D005D400D0085400D0089400D0051
:108F600000000000616363656C20782C792C7A2006
:108F7000286D696E2F6D617829203D20002F006DCE
:108F800061676E20782C792C7A20286D696E2F6DA0
:108F9000617829203D20006779726F20782C792C28
:108FA0007A202863757272656E742F6176657261BE
:108FB000676529203D2000252E3032662C252E3075
:108FC00032662C252E3032662C252E303266003447
:108FD000352E343738363238382C2D37332E36315B
:108FE000373032342C34352E343935333638382C4A
:108FF0002D37332E3537373939363430303030303D
:10900000303200612D626C652D63656E7472616C27
:1090100042544E007075626C6973686564004D451A
:109020002040204D544C006C6F636174696F6E007A
:109030006779726F6D6574657200796177506974D4
:109040006368526F6C6C4D61676E6974756465001E
:10905000436F6D706C6574656420766F696420730E
:109060006574757000766563746F723A3A5F4D5F30
:109070007265616C6C6F635F696E73657274002CEE
:1090800000766563746F723A3A5F4D5F72616E6726
:10909000655F636865636B3A205F5F6E2028776861
:1090A00069636820697320257A7529203E3D207404
:1090B0006869732D3E73697A652829202877686965
:1090C000636820697320257A75290063616C6C657B
:1090D0006400214552523A2072656164696E6720CE
:1090E000616363656C65726F6D65746572002145BF
:1090F00052523A2072656164696E67206D61676ED5
:1091000065746F6D6574657200214552523A207224
:10911000656164696E67206779726F73636F7065EC
:10912000000000000000000000000000A95B0D002E
:10913000AF5B0D00FF5B0D00BD5B0D00AB5B0D0079
:10914000000000000000000077610D006D610D005F
:1091500063610D0059610D004D610D0041610D000D
:1091600035610D002D610D0023610D0019610D00A9
:10917000ED630D00000000000000000095610D008F
:10918000DF610D00B7610D0097610D00BF610D003B
:10919000C7610D00CF610D00D7610D000000000018
:1091A00000000000A1620D0091620D0093620D00AD
:1091B00061707000000000000000000085630D0079
:1091C0008F630D0099630D00A3630D00AD630D0067
:1091D000B9630D00C5630D00D1630D00D9630D00A7
:1091E000E3630D00ED630D006E616E00696E660055
:1091F0006F7666002E0025592D256D2D256454258A
:10920000483A254D3A2553257A0061736374696D98
:1092100065000000000000000000000099680D00DB
:1092200005690D00DD680D00D5640D00AD680D0009
:10923000C9680D00BB680D00D7680D009B680D0064
:109240009F680D00000000000000000099690D00FB
:10925000016A0D00D7690D00D5640D00C9690D00C4
:109260009B690D00AB690D00FB690D00BB690D002A
:1092700095690D0000000000000000000B6B0D0060
:10928000016B0D00F76A0D00AD6A0D00EB6A0D0071
:10929000DF6A0D00D36A0D00CB6A0D00C16A0D00B4
:1092A000B76A0D00ED630D00006E6F7420656E6F80
:1092B00075676820737061636520666F7220666FE2
:1092C000726D617420657870616E73696F6E2028AD
:1092D000506C65617365207375626D697420667585
:1092E0006C6C20627567207265706F727420617497
:1092F0002068747470733A2F2F6763632E676E75DE
:109300002E6F72672F627567732F293A0A2020200B
:1093100020003031323334353637383900626173EA
:1093200069635F737472696E673A3A5F4D5F637227
:1093300065617465000000006173696E660000007D
:10934000000000007371727466000000DB0F49BFFB
:10935000E4CB1640E4CB16C000000080DB0F494090
:10936000DB0F49C0000FC93F000F494000CB9640BA
:10937000000FC9400053FB4000CB164100ED2F41C8
:10938000000F49410031624100537B41003A8A415C
:1093900000CB9641005CA34100EDAF41007EBC4193
:1093A000000FC94100A0D5410031E24100C2EE41A9
:1093B0000053FB4100F20342003A0A42008310428C
:1093C00000CB164200141D42005C234200A5294236
:1093D00000ED2F4200363642007E3C4200C742423A
:1093E000000F4942A2000000F900000083000000C5
:1093F0006E0000004E000000440000001500000058
:1094000029000000FC0000002700000057000000B9
:10941000D1000000F500000034000000DD00000075
:10942000C0000000DB0000006200000095000000AA
:10943000990000003C000000430000009000000084
:1094400041000000FE000000510000006300000029
:10945000AB000000DE000000BB000000C500000003
:1094600061000000B7000000240000006E00000052
:109470003A000000420000004D000000D200000051
:10948000E000000006000000490000002E0000007F
:10949000EA00000009000000D10000009200000076
:1094A0001C000000FE0000001D000000EB0000009A
:1094B0001C000000B100000029000000A70000000F
:1094C0003E000000E80000008200000035000000BF
:1094D000F50000002E000000BB000000440000006A
:1094E00084000000E90000009C0000007000000003
:1094F00026000000B40000005F0000007E000000B5
:10950000410000003900000091000000D60000007A
:109510003900000083000000530000003900000003
:10952000F40000009C000000840000005F000000C8
:109530008B000000BD000000F900000028000000C2
:109540003B0000001F000000F80000009700000032
:10955000FF000000DE000000050000009800000091
:109560000F000000EF0000002F00000011000000BD
:109570008B0000005A0000000A0000006D0000008F
:109580001F0000006D000000360000007E0000009B
:10959000CF00000027000000CB0000000900000001
:1095A000B70000004F000000460000003F00000030
:1095B000660000009E0000005F000000EA0000005E
:1095C0002D0000007500000027000000BA00000018
:1095D000C7000000EB000000E5000000F100000003
:1095E0007B0000003D000000070000003900000083
:1095F000F70000008A000000520000009200000006
:10960000EA0000006B000000FB0000005F000000AB
:10961000B10000001F0000008D0000005D00000090
:1096200008000000560000000300000030000000A9
:1096300046000000FC0000007B0000006B00000002
:10964000AB000000F0000000CF000000BC000000F4
:10965000200000009A000000F40000003600000026
:109660001D000000A9000000E300000091000000C0
:10967000610000005E000000E60000001B0000002A
:10968000080000006500000099000000850000004F
:109690005F00000014000000A0000000680000004F
:1096A000400000008D000000FF000000D800000016
:1096B000800000004D000000730000002700000043
:1096C0003100000006000000060000001500000048
:1096D00056000000CA00000073000000A80000004F
:1096E000C900000060000000E20000007B000000F4
:1096F000C00000008C0000006B0000000000C93FAB
:109700000000F0390000DA370000A2330000842E98
:109710000000502B0000C2270000D0220000C41F10
:109720000000C61B000044170400000007000000F2
:10973000090000003863ED3EDA0F493F5E987B3F39
:10974000DA0FC93F6937AC3168212233B40F1433C3
:109750006821A233494C0D00815B0D0081610D0031
:1097600075630D00C1640D0059670D0049680D0057
:1097700085680D00156B0D00000000000000000062
:0497800000000000E5
:109784000A920D000100000000E303200000000025
:1097940000000000000000000000000000000000C5
:1097A40000000000000000000000000000000000B5
:1097B40000000000000000000000000000000000A5
:1097C4000000000000000000000000000000000095
:1097D4000000000000000000000000000000000085
:0C97E40000000000000000000000000079
:1097F000FFFFFFFF00000102030405060708090A36
:109800000B0C0D0E0F101112131415161718191A30
:089810001B1C1D1E1F20280077
:049818007856341238
:04000003D0004020C9
:00000001FF
